:100000000C94BE2E0C94DF2E0C94DF2E0C94DF2E5D
:100010000C94DF2E0C94DF2E0C94DF2E0C94DF2E2C
:100020000C94DF2E0C94376F0C94DF2E0C94C86F59
:100030000C94DF2E0C9475700C94DF2E0C94DF2E34
:100040000C94DF2E0C94164C0C94DF2E0C94DF2EA7
:100050000C94DF2E0C947B490C94DF2E0C94DF2E35
:100060000C94DF2E0C94DF2E0C94DF2E0C94DF2EDC
:100070000C94DF2E0C94DF2E0C94DF2E0C94DF2ECC
:100080000C94DF2E0C94DF2E0C94DF2E0C94DF2EBC
:100090000C94DF2E0C94DF2E0C94DF2E0C94DF2EAC
:1000A0000C94DF2E0C94DF2E0C94DF2E0C94DF2E9C
:1000B0000C94DF2E0C94DF2E0C94DF2E0C94DF2E8C
:1000C0000C94DF2E0C94DF2E0C94DF2E0C94DF2E7C
:1000D0000C94DF2E0C94DF2E0C94DF2E0C94DF2E6C
:1000E0000C94DF2E0C94444D00000000003E5B4F4A
:1000F0005B3E3E6B4F6B3E1C3E7C3E1C183C7E3C88
:10010000181C577D571C1C5E7F5E1C00183C180095
:10011000FFE7C3E7FF0018241800FFE7DBE7FF3025
:10012000483A060E2629792926407F050507407F93
:1001300005253F5A3CE73C5A7F3E1C1C08081C1C06
:100140003E7F14227F22145F5F005F5F06097F01FC
:100150007F006689956A606060606094A2FFA294E7
:1001600008047E040810207E201008082A1C0808B5
:100170001C2A08081E101010100C1E0C1E0C303803
:100180003E3830060E3E0E06000000000000005F04
:1001900000000007000700147F147F14242A7F2A20
:1001A00012231308646236495620500008070300E2
:1001B000001C2241000041221C002A1C7F1C2A082E
:1001C000083E080800807030000808080808000091
:1001D00060600020100804023E5149453E00427F05
:1001E000400072494949462141494D331814127F54
:1001F0001027454545393C4A4949314121110907F4
:100200003649494936464949291E00001400000074
:100210004034000000081422411414141414004146
:1002200022140802015909063E415D594E7C121103
:10023000127C7F494949363E414141227F4141413B
:100240003E7F494949417F090909013E41415173B6
:100250007F0808087F00417F41002040413F017F27
:10026000081422417F404040407F021C027F7F04EF
:1002700008107F3E4141413E7F090909063E415138
:10028000215E7F09192946264949493203017F0128
:10029000033F4040403F1F2040201F3F4038403F29
:1002A000631408146303047804036159494D43003F
:1002B0007F4141410204081020004141417F040276
:1002C000010204404040404000030708002054540D
:1002D00078407F28444438384444442838444428EB
:1002E0007F385454541800087E090218A4A49C783E
:1002F0007F0804047800447D40002040403D007F9A
:100300001028440000417F40007C047804787C0879
:100310000404783844444438FC182424181824244D
:1003200018FC7C08040408485454542404043F4432
:10033000243C4040207C1C2040201C3C4030403C61
:1003400044281028444C9090907C4464544C4400C1
:100350000836410000007700000041360800020125
:100360000204023C2623263C1EA1A161123A404011
:10037000207A38545455592155557941225454788E
:1003800042215554784020545579400C1E52721227
:1003900039555555593954545459395554545800B0
:1003A00000457C410002457D420001457C407D12B4
:1003B00011127DF0282528F07C5455450020545416
:1003C0007C547C0A097F4932494949323A444444C1
:1003D0003A324A4848303A4141217A3A42402078FC
:1003E000009DA0A07D3D4242423D3D4040403D3CFD
:1003F00024FF2424487E4943662B2FFC2F2BFF0922
:1004000029F620C0887E0903205454794100004415
:100410007D413048484A32384040227A007A0A0A00
:10042000727D0D19317D2629292F28262929292673
:1004300030484D4020380808080808080808382FB8
:1004400010C8ACBA2F102834FA00007B0000081442
:100450002A142222142A14085500550055AA55AA18
:1004600055AAFF55FF55FF000000FF00101010FFB8
:1004700000141414FF001010FF00FF1010F010F013
:10048000141414FC001414F700FF0000FF00FF1404
:1004900014F404FC141417101F10101F101F141450
:1004A000141F00101010F0000000001F101010109A
:1004B0001F10101010F010000000FF10101010108E
:1004C00010101010FF10000000FF140000FF00FFCC
:1004D00000001F10170000FC04F414141710171468
:1004E00014F404F40000FF00F7141414141414148A
:1004F000F700F7141414171410101F101F141414FD
:10050000F4141010F010F000001F101F0000001F66
:1005100014000000FC140000F010F01010FF10FF99
:10052000141414FF141010101F00000000F010FF2E
:10053000FFFFFFFFF0F0F0F0F0FFFFFF0000000012
:1005400000FFFF0F0F0F0F0F3844443844FC4A4A96
:100550004A347E02020606027E027E02635549414B
:10056000633844443C04407E201E2006027E020282
:1005700099A5E7A5991C2A492A1C4C7201724C3096
:100580004A4D4D303048784830BC625A463D3E496D
:100590004949007E0101017E2A2A2A2A2A44445F11
:1005A000444440514A444040444A51400000FF0105
:1005B00003E080FF000008086B6B08361236243613
:1005C000060F090F06000018180000001010003078
:1005D00040FF0101001F01011E00191D1712003C00
:1005E0003C3C3C000000000000000000003E5B4F6F
:1005F0005B3E3E6B4F6B3E1C3E7C3E1C183C7E3C83
:10060000181C577D571C1C5E7F5E1C00183C180090
:10061000FFE7C3E7FF0018241800FFE7DBE7FF3020
:10062000483A060E2629792926407F050507407F8E
:1006300005253F5A3CE73C5A7F3E1C1C08081C1C01
:100640003E7F14227F22145F5F005F5F06097F01F7
:100650007F006689956A606060606094A2FFA294E2
:1006600008047E040810207E201008082A1C0808B0
:100670001C2A08081E101010100C1E0C1E0C3038FE
:100680003E3830060E3E0E06000000000000005FFF
:1006900000000007000700147F147F14242A7F2A1B
:1006A00012231308646236495620500008070300DD
:1006B000001C2241000041221C002A1C7F1C2A0829
:1006C000083E08080080703000080808080800008C
:1006D00060600020100804023E5149453E00427F00
:1006E000400072494949462141494D331814127F4F
:1006F0001027454545393C4A4949314121110907EF
:100700003649494936464949291E0000140000006F
:100710004034000000081422411414141414004141
:1007200022140802015909063E415D594E7C1211FE
:10073000127C7F494949363E414141227F41414136
:100740003E7F494949417F090909013E41415173B1
:100750007F0808087F00417F41002040413F017F22
:10076000081422417F404040407F021C027F7F04EA
:1007700008107F3E4141413E7F090909063E415133
:10078000215E7F09192946264949493203017F0123
:10079000033F4040403F1F2040201F3F4038403F24
:1007A000631408146303047804036159494D43003A
:1007B0007F4141410204081020004141417F040271
:1007C0000102044040404040000307080020545408
:1007D00078407F28444438384444442838444428E6
:1007E0007F385454541800087E090218A4A49C7839
:1007F0007F0804047800447D40002040403D007F95
:100800001028440000417F40007C047804787C0874
:100810000404783844444438FC1824241818242448
:1008200018FC7C08040408485454542404043F442D
:10083000243C4040207C1C2040201C3C4030403C5C
:1008400044281028444C9090907C4464544C4400BC
:100850000836410000007700000041360800020120
:100860000204023C2623263C1EA1A161123A40400C
:10087000207A385454555921555579412254547889
:1008800042215554784020545579400C1E52721222
:1008900039555555593954545459395554545800AB
:1008A00000457C410002457D420001457C407D12AF
:1008B00011127DF0282528F07C5455450020545411
:1008C0007C547C0A097F4932494949323A444444BC
:1008D0003A324A4848303A4141217A3A42402078F7
:1008E000009DA0A07D3D4242423D3D4040403D3CF8
:1008F00024FF2424487E4943662B2FFC2F2BFF091D
:1009000029F620C0887E0903205454794100004410
:100910007D413048484A32384040227A007A0A0AFB
:10092000727D0D19317D2629292F2826292929266E
:1009300030484D4020380808080808080808382FB3
:1009400010C8ACBA2F102834FA00007B000008143D
:100950002A142222142A14085500550055AA55AA13
:1009600055AAFF55FF55FF000000FF00101010FFB3
:1009700000141414FF001010FF00FF1010F010F00E
:10098000141414FC001414F700FF0000FF00FF14FF
:1009900014F404FC141417101F10101F101F14144B
:1009A000141F00101010F0000000001F1010101095
:1009B0001F10101010F010000000FF101010101089
:1009C00010101010FF10000000FF140000FF00FFC7
:1009D00000001F10170000FC04F414141710171463
:1009E00014F404F40000FF00F71414141414141485
:1009F000F700F7141414171410101F101F141414F8
:100A0000F4141010F010F000001F101F0000001F61
:100A100014000000FC140000F010F01010FF10FF94
:100A2000141414FF141010101F00000000F010FF29
:100A3000FFFFFFFFF0F0F0F0F0FFFFFF000000000D
:100A400000FFFF0F0F0F0F0F3844443844FC4A4A91
:100A50004A347E02020606027E027E026355494146
:100A6000633844443C04407E201E2006027E02027D
:100A700099A5E7A5991C2A492A1C4C7201724C3091
:100A80004A4D4D303048784830BC625A463D3E4968
:100A90004949007E0101017E2A2A2A2A2A44445F0C
:100AA000444440514A444040444A51400000FF0100
:100AB00003E080FF000008086B6B0836123624360E
:100AC000060F090F06000018180000001010003073
:100AD00040FF0101001F01011E00191D1712003CFB
:100AE0003C3C3C000000000000000000003E5B4F6A
:100AF0005B3E3E6B4F6B3E1C3E7C3E1C183C7E3C7E
:100B0000181C577D571C1C5E7F5E1C00183C18008B
:100B1000FFE7C3E7FF0018241800FFE7DBE7FF301B
:100B2000483A060E2629792926407F050507407F89
:100B300005253F5A3CE73C5A7F3E1C1C08081C1CFC
:100B40003E7F14227F22145F5F005F5F06097F01F2
:100B50007F006689956A606060606094A2FFA294DD
:100B600008047E040810207E201008082A1C0808AB
:100B70001C2A08081E101010100C1E0C1E0C3038F9
:100B80003E3830060E3E0E06000000000000005FFA
:100B900000000007000700147F147F14242A7F2A16
:100BA00012231308646236495620500008070300D8
:100BB000001C2241000041221C002A1C7F1C2A0824
:100BC000083E080800807030000808080808000087
:100BD00060600020100804023E5149453E00427FFB
:100BE000400072494949462141494D331814127F4A
:100BF0001027454545393C4A4949314121110907EA
:100C00003649494936464949291E0000140000006A
:100C1000403400000008142241141414141400413C
:100C200022140802015909063E415D594E7C1211F9
:100C3000127C7F494949363E414141227F41414131
:100C40003E7F494949417F090909013E41415173AC
:100C50007F0808087F00417F41002040413F017F1D
:100C6000081422417F404040407F021C027F7F04E5
:100C700008107F3E4141413E7F090909063E41512E
:100C8000215E7F09192946264949493203017F011E
:100C9000033F4040403F1F2040201F3F4038403F1F
:100CA000631408146303047804036159494D430035
:100CB0007F4141410204081020004141417F04026C
:100CC0000102044040404040000307080020545403
:100CD00078407F28444438384444442838444428E1
:100CE0007F385454541800087E090218A4A49C7834
:100CF0007F0804047800447D40002040403D007F90
:100D00001028440000417F40007C047804787C086F
:100D10000404783844444438FC1824241818242443
:100D200018FC7C08040408485454542404043F4428
:100D3000243C4040207C1C2040201C3C4030403C57
:100D400044281028444C9090907C4464544C4400B7
:100D5000083641000000770000004136080002011B
:100D60000204023C2623263C1EA1A161123A404007
:100D7000207A385454555921555579412254547884
:100D800042215554784020545579400C1E5272121D
:100D900039555555593954545459395554545800A6
:100DA00000457C410002457D420001457C407D12AA
:100DB00011127DF0282528F07C545545002054540C
:100DC0007C547C0A097F4932494949323A444444B7
:100DD0003A324A4848303A4141217A3A42402078F2
:100DE000009DA0A07D3D4242423D3D4040403D3CF3
:100DF00024FF2424487E4943662B2FFC2F2BFF0918
:100E000029F620C0887E090320545479410000440B
:100E10007D413048484A32384040227A007A0A0AF6
:100E2000727D0D19317D2629292F28262929292669
:100E300030484D4020380808080808080808382FAE
:100E400010C8ACBA2F102834FA00007B0000081438
:100E50002A142222142A14085500550055AA55AA0E
:100E600055AAFF55FF55FF000000FF00101010FFAE
:100E700000141414FF001010FF00FF1010F010F009
:100E8000141414FC001414F700FF0000FF00FF14FA
:100E900014F404FC141417101F10101F101F141446
:100EA000141F00101010F0000000001F1010101090
:100EB0001F10101010F010000000FF101010101084
:100EC00010101010FF10000000FF140000FF00FFC2
:100ED00000001F10170000FC04F41414171017145E
:100EE00014F404F40000FF00F71414141414141480
:100EF000F700F7141414171410101F101F141414F3
:100F0000F4141010F010F000001F101F0000001F5C
:100F100014000000FC140000F010F01010FF10FF8F
:100F2000141414FF141010101F00000000F010FF24
:100F3000FFFFFFFFF0F0F0F0F0FFFFFF0000000008
:100F400000FFFF0F0F0F0F0F3844443844FC4A4A8C
:100F50004A347E02020606027E027E026355494141
:100F6000633844443C04407E201E2006027E020278
:100F700099A5E7A5991C2A492A1C4C7201724C308C
:100F80004A4D4D303048784830BC625A463D3E4963
:100F90004949007E0101017E2A2A2A2A2A44445F07
:100FA000444440514A444040444A51400000FF01FB
:100FB00003E080FF000008086B6B08361236243609
:100FC000060F090F0600001818000000101000306E
:100FD00040FF0101001F01011E00191D1712003CF6
:100FE0003C3C3C000000000000000000003E5B4F65
:100FF0005B3E3E6B4F6B3E1C3E7C3E1C183C7E3C79
:10100000181C577D571C1C5E7F5E1C00183C180086
:10101000FFE7C3E7FF0018241800FFE7DBE7FF3016
:10102000483A060E2629792926407F050507407F84
:1010300005253F5A3CE73C5A7F3E1C1C08081C1CF7
:101040003E7F14227F22145F5F005F5F06097F01ED
:101050007F006689956A606060606094A2FFA294D8
:1010600008047E040810207E201008082A1C0808A6
:101070001C2A08081E101010100C1E0C1E0C3038F4
:101080003E3830060E3E0E06000000000000005FF5
:1010900000000007000700147F147F14242A7F2A11
:1010A00012231308646236495620500008070300D3
:1010B000001C2241000041221C002A1C7F1C2A081F
:1010C000083E080800807030000808080808000082
:1010D00060600020100804023E5149453E00427FF6
:1010E000400072494949462141494D331814127F45
:1010F0001027454545393C4A4949314121110907E5
:101100003649494936464949291E00001400000065
:101110004034000000081422411414141414004137
:1011200022140802015909063E415D594E7C1211F4
:10113000127C7F494949363E414141227F4141412C
:101140003E7F494949417F090909013E41415173A7
:101150007F0808087F00417F41002040413F017F18
:10116000081422417F404040407F021C027F7F04E0
:1011700008107F3E4141413E7F090909063E415129
:10118000215E7F09192946264949493203017F0119
:10119000033F4040403F1F2040201F3F4038403F1A
:1011A000631408146303047804036159494D430030
:1011B0007F4141410204081020004141417F040267
:1011C00001020440404040400003070800205454FE
:1011D00078407F28444438384444442838444428DC
:1011E0007F385454541800087E090218A4A49C782F
:1011F0007F0804047800447D40002040403D007F8B
:101200001028440000417F40007C047804787C086A
:101210000404783844444438FC182424181824243E
:1012200018FC7C08040408485454542404043F4423
:10123000243C4040207C1C2040201C3C4030403C52
:1012400044281028444C9090907C4464544C4400B2
:101250000836410000007700000041360800020116
:101260000204023C2623263C1EA1A161123A404002
:10127000207A38545455592155557941225454787F
:1012800042215554784020545579400C1E52721218
:1012900039555555593954545459395554545800A1
:1012A00000457C410002457D420001457C407D12A5
:1012B00011127DF0282528F07C5455450020545407
:1012C0007C547C0A097F4932494949323A444444B2
:1012D0003A324A4848303A4141217A3A42402078ED
:1012E000009DA0A07D3D4242423D3D4040403D3CEE
:1012F00024FF2424487E4943662B2FFC2F2BFF0913
:1013000029F620C0887E0903205454794100004406
:101310007D413048484A32384040227A007A0A0AF1
:10132000727D0D19317D2629292F28262929292664
:1013300030484D4020380808080808080808382FA9
:1013400010C8ACBA2F102834FA00007B0000081433
:101350002A142222142A14085500550055AA55AA09
:1013600055AAFF55FF55FF000000FF00101010FFA9
:1013700000141414FF001010FF00FF1010F010F004
:10138000141414FC001414F700FF0000FF00FF14F5
:1013900014F404FC141417101F10101F101F141441
:1013A000141F00101010F0000000001F101010108B
:1013B0001F10101010F010000000FF10101010107F
:1013C00010101010FF10000000FF140000FF00FFBD
:1013D00000001F10170000FC04F414141710171459
:1013E00014F404F40000FF00F7141414141414147B
:1013F000F700F7141414171410101F101F141414EE
:10140000F4141010F010F000001F101F0000001F57
:1014100014000000FC140000F010F01010FF10FF8A
:10142000141414FF141010101F00000000F010FF1F
:10143000FFFFFFFFF0F0F0F0F0FFFFFF0000000003
:1014400000FFFF0F0F0F0F0F3844443844FC4A4A87
:101450004A347E02020606027E027E02635549413C
:10146000633844443C04407E201E2006027E020273
:1014700099A5E7A5991C2A492A1C4C7201724C3087
:101480004A4D4D303048784830BC625A463D3E495E
:101490004949007E0101017E2A2A2A2A2A44445F02
:1014A000444440514A444040444A51400000FF01F6
:1014B00003E080FF000008086B6B08361236243604
:1014C000060F090F06000018180000001010003069
:1014D00040FF0101001F01011E00191D1712003CF1
:1014E0003C3C3C0000000000EF03038002CF0300FF
:1014F000C130ED0464031281E803850078CB05391F
:101500002C003402F70120EA020000C00123C101CF
:1015100010C5023E28C701863601483701003A014E
:1015200055B1020018B603088227F2010026010116
:10153000E00F0F312B0C0E084EF1370710030E0988
:1015400000E10F000E1403110731C148080F0C31E0
:10155000360F118029800000000000003E5B4F5BC9
:101560003E3E6B4F6B3E1C3E7C3E1C183C7E3C1846
:101570001C577D571C1C5E7F5E1C00183C1800FF2A
:10158000E7C3E7FF0018241800FFE7DBE7FF304858
:101590003A060E2629792926407F050507407F0552
:1015A000253F5A3CE73C5A7F3E1C1C08081C1C3E49
:1015B0007F14227F22145F5F005F5F06097F017F37
:1015C000006689956A606060606094A2FFA29408DA
:1015D000047E040810207E201008082A1C08081C1D
:1015E0002A08081E101010100C1E0C1E0C30383E5D
:1015F0003830060E3E0E06000000000000005F00BE
:10160000000007000700147F147F14242A7F2A1289
:10161000231308646236495620500008070300006F
:101620001C2241000041221C002A1C7F1C2A0808A1
:101630003E080800807030000808080808000060B4
:10164000600020100804023E5149453E00427F40A0
:101650000072494949462141494D331814127F10FF
:1016600027454545393C4A49493141211109073649
:1016700049494936464949291E00001400000040E6
:1016800034000000081422411414141414004122E0
:10169000140802015909063E415D594E7C1211128F
:1016A0007C7F494949363E414141227F4141413E8B
:1016B0007F494949417F090909013E414151737FF1
:1016C0000808087F00417F41002040413F017F081A
:1016D0001422417F404040407F021C027F7F04086B
:1016E000107F3E4141413E7F090909063E4151219B
:1016F0005E7F09192946264949493203017F0103C2
:101700003F4040403F1F2040201F3F4038403F6344
:101710001408146303047804036159494D43007F9E
:101720004141410204081020004141417F0402016F
:101730000204404040404000030708002054547811
:10174000407F284444383844444428384444287F5F
:10175000385454541800087E090218A4A49C787FB9
:101760000804047800447D40002040403D007F1084
:1017700028440000417F40007C047804787C080401
:1017800004783844444438FC1824241818242418B5
:10179000FC7C08040408485454542404043F4424A2
:1017A0003C4040207C1C2040201C3C4030403C44BD
:1017B000281028444C9090907C4464544C44000879
:1017C00036410000007700000041360800020102A7
:1017D00004023C2623263C1EA1A161123A4040206F
:1017E0007A385454555921555579412254547842E8
:1017F000215554784020545579400C1E52721239AC
:101800005555555939545454593955545458000064
:10181000457C410002457D420001457C407D12111E
:10182000127DF0282528F07C545545002054547C26
:10183000547C0A097F4932494949323A4444443A7E
:10184000324A4848303A4141217A3A4240207800B1
:101850009DA0A07D3D4242423D3D4040403D3C2454
:10186000FF2424487E4943662B2FFC2F2BFF092998
:10187000F620C0887E090320545479410000447D3D
:10188000413048484A32384040227A007A0A0A7287
:101890007D0D19317D2629292F2826292929263031
:1018A000484D4020380808080808080808382F1054
:1018B000C8ACBA2F102834FA00007B000008142AA4
:1018C000142222142A14085500550055AA55AA5569
:1018D000AAFF55FF55FF000000FF00101010FF0089
:1018E000141414FF001010FF00FF1010F010F0147B
:1018F0001414FC001414F700FF0000FF00FF141480
:10190000F404FC141417101F10101F101F141414CB
:101910001F00101010F0000000001F101010101F0A
:1019200010101010F010000000FF10101010101018
:10193000101010FF10000000FF140000FF00FF0057
:10194000001F10170000FC04F414141710171414CF
:10195000F404F40000FF00F714141414141414F722
:1019600000F7141414171410101F101F141414F47B
:10197000141010F010F000001F101F0000001F14C2
:10198000000000FC140000F010F01010FF10FF1415
:101990001414FF141010101F00000000F010FFFFBF
:1019A000FFFFFFF0F0F0F0F0FFFFFF00000000008D
:1019B000FFFF0F0F0F0F0F3844443844FC4A4A4AC8
:1019C000347E02020606027E027E026355494163AE
:1019D0003844443C04407E201E2006027E020299C8
:1019E000A5E7A5991C2A492A1C4C7201724C304A61
:1019F0004D4D303048784830BC625A463D3E4949EA
:101A000049007E0101017E2A2A2A2A2A44445F4491
:101A10004440514A444040444A51400000FF0103C1
:101A2000E080FF000008086B6B083612362436068B
:101A30000F090F06000018180000001010003040B9
:101A4000FF0101001F01011E00191D1712003C3C7F
:101A50003C3C000000000000000000003E5B4F5BCB
:101A60003E3E6B4F6B3E1C3E7C3E1C183C7E3C1841
:101A70001C577D571C1C5E7F5E1C00183C1800FF25
:101A8000E7C3E7FF0018241800FFE7DBE7FF304853
:101A90003A060E2629792926407F050507407F054D
:101AA000253F5A3CE73C5A7F3E1C1C08081C1C3E44
:101AB0007F14227F22145F5F005F5F06097F017F32
:101AC000006689956A606060606094A2FFA29408D5
:101AD000047E040810207E201008082A1C08081C18
:101AE0002A08081E101010100C1E0C1E0C30383E58
:101AF0003830060E3E0E06000000000000005F00B9
:101B0000000007000700147F147F14242A7F2A1284
:101B1000231308646236495620500008070300006A
:101B20001C2241000041221C002A1C7F1C2A08089C
:101B30003E080800807030000808080808000060AF
:101B4000600020100804023E5149453E00427F409B
:101B50000072494949462141494D331814127F10FA
:101B600027454545393C4A49493141211109073644
:101B700049494936464949291E00001400000040E1
:101B800034000000081422411414141414004122DB
:101B9000140802015909063E415D594E7C1211128A
:101BA0007C7F494949363E414141227F4141413E86
:101BB0007F494949417F090909013E414151737FEC
:101BC0000808087F00417F41002040413F017F0815
:101BD0001422417F404040407F021C027F7F040866
:101BE000107F3E4141413E7F090909063E41512196
:101BF0005E7F09192946264949493203017F0103BD
:101C00003F4040403F1F2040201F3F4038403F633F
:101C10001408146303047804036159494D43007F99
:101C20004141410204081020004141417F0402016A
:101C3000020440404040400003070800205454780C
:101C4000407F284444383844444428384444287F5A
:101C5000385454541800087E090218A4A49C787FB4
:101C60000804047800447D40002040403D007F107F
:101C700028440000417F40007C047804787C0804FC
:101C800004783844444438FC1824241818242418B0
:101C9000FC7C08040408485454542404043F44249D
:101CA0003C4040207C1C2040201C3C4030403C44B8
:101CB000281028444C9090907C4464544C44000874
:101CC00036410000007700000041360800020102A2
:101CD00004023C2623263C1EA1A161123A4040206A
:101CE0007A385454555921555579412254547842E3
:101CF000215554784020545579400C1E52721239A7
:101D0000555555593954545459395554545800005F
:101D1000457C410002457D420001457C407D121119
:101D2000127DF0282528F07C545545002054547C21
:101D3000547C0A097F4932494949323A4444443A79
:101D4000324A4848303A4141217A3A4240207800AC
:101D50009DA0A07D3D4242423D3D4040403D3C244F
:101D6000FF2424487E4943662B2FFC2F2BFF092993
:101D7000F620C0887E090320545479410000447D38
:101D8000413048484A32384040227A007A0A0A7282
:101D90007D0D19317D2629292F282629292926302C
:101DA000484D4020380808080808080808382F104F
:101DB000C8ACBA2F102834FA00007B000008142A9F
:101DC000142222142A14085500550055AA55AA5564
:101DD000AAFF55FF55FF000000FF00101010FF0084
:101DE000141414FF001010FF00FF1010F010F01476
:101DF0001414FC001414F700FF0000FF00FF14147B
:101E0000F404FC141417101F10101F101F141414C6
:101E10001F00101010F0000000001F101010101F05
:101E200010101010F010000000FF10101010101013
:101E3000101010FF10000000FF140000FF00FF0052
:101E4000001F10170000FC04F414141710171414CA
:101E5000F404F40000FF00F714141414141414F71D
:101E600000F7141414171410101F101F141414F476
:101E7000141010F010F000001F101F0000001F14BD
:101E8000000000FC140000F010F01010FF10FF1410
:101E90001414FF141010101F00000000F010FFFFBA
:101EA000FFFFFFF0F0F0F0F0FFFFFF000000000088
:101EB000FFFF0F0F0F0F0F3844443844FC4A4A4AC3
:101EC000347E02020606027E027E026355494163A9
:101ED0003844443C04407E201E2006027E020299C3
:101EE000A5E7A5991C2A492A1C4C7201724C304A5C
:101EF0004D4D303048784830BC625A463D3E4949E5
:101F000049007E0101017E2A2A2A2A2A44445F448C
:101F10004440514A444040444A51400000FF0103BC
:101F2000E080FF000008086B6B0836123624360686
:101F30000F090F06000018180000001010003040B4
:101F4000FF0101001F01011E00191D1712003C3C7A
:101F50003C3C000000000000000000003E5B4F5BC6
:101F60003E3E6B4F6B3E1C3E7C3E1C183C7E3C183C
:101F70001C577D571C1C5E7F5E1C00183C1800FF20
:101F8000E7C3E7FF0018241800FFE7DBE7FF30484E
:101F90003A060E2629792926407F050507407F0548
:101FA000253F5A3CE73C5A7F3E1C1C08081C1C3E3F
:101FB0007F14227F22145F5F005F5F06097F017F2D
:101FC000006689956A606060606094A2FFA29408D0
:101FD000047E040810207E201008082A1C08081C13
:101FE0002A08081E101010100C1E0C1E0C30383E53
:101FF0003830060E3E0E06000000000000005F00B4
:10200000000007000700147F147F14242A7F2A127F
:102010002313086462364956205000080703000065
:102020001C2241000041221C002A1C7F1C2A080897
:102030003E080800807030000808080808000060AA
:10204000600020100804023E5149453E00427F4096
:102050000072494949462141494D331814127F10F5
:1020600027454545393C4A4949314121110907363F
:1020700049494936464949291E00001400000040DC
:1020800034000000081422411414141414004122D6
:10209000140802015909063E415D594E7C12111285
:1020A0007C7F494949363E414141227F4141413E81
:1020B0007F494949417F090909013E414151737FE7
:1020C0000808087F00417F41002040413F017F0810
:1020D0001422417F404040407F021C027F7F040861
:1020E000107F3E4141413E7F090909063E41512191
:1020F0005E7F09192946264949493203017F0103B8
:102100003F4040403F1F2040201F3F4038403F633A
:102110001408146303047804036159494D43007F94
:102120004141410204081020004141417F04020165
:102130000204404040404000030708002054547807
:10214000407F284444383844444428384444287F55
:10215000385454541800087E090218A4A49C787FAF
:102160000804047800447D40002040403D007F107A
:1021700028440000417F40007C047804787C0804F7
:1021800004783844444438FC1824241818242418AB
:10219000FC7C08040408485454542404043F442498
:1021A0003C4040207C1C2040201C3C4030403C44B3
:1021B000281028444C9090907C4464544C4400086F
:1021C000364100000077000000413608000201029D
:1021D00004023C2623263C1EA1A161123A40402065
:1021E0007A385454555921555579412254547842DE
:1021F000215554784020545579400C1E52721239A2
:10220000555555593954545459395554545800005A
:10221000457C410002457D420001457C407D121114
:10222000127DF0282528F07C545545002054547C1C
:10223000547C0A097F4932494949323A4444443A74
:10224000324A4848303A4141217A3A4240207800A7
:102250009DA0A07D3D4242423D3D4040403D3C244A
:10226000FF2424487E4943662B2FFC2F2BFF09298E
:10227000F620C0887E090320545479410000447D33
:10228000413048484A32384040227A007A0A0A727D
:102290007D0D19317D2629292F2826292929263027
:1022A000484D4020380808080808080808382F104A
:1022B000C8ACBA2F102834FA00007B000008142A9A
:1022C000142222142A14085500550055AA55AA555F
:1022D000AAFF55FF55FF000000FF00101010FF007F
:1022E000141414FF001010FF00FF1010F010F01471
:1022F0001414FC001414F700FF0000FF00FF141476
:10230000F404FC141417101F10101F101F141414C1
:102310001F00101010F0000000001F101010101F00
:1023200010101010F010000000FF1010101010100E
:10233000101010FF10000000FF140000FF00FF004D
:10234000001F10170000FC04F414141710171414C5
:10235000F404F40000FF00F714141414141414F718
:1023600000F7141414171410101F101F141414F471
:10237000141010F010F000001F101F0000001F14B8
:10238000000000FC140000F010F01010FF10FF140B
:102390001414FF141010101F00000000F010FFFFB5
:1023A000FFFFFFF0F0F0F0F0FFFFFF000000000083
:1023B000FFFF0F0F0F0F0F3844443844FC4A4A4ABE
:1023C000347E02020606027E027E026355494163A4
:1023D0003844443C04407E201E2006027E020299BE
:1023E000A5E7A5991C2A492A1C4C7201724C304A57
:1023F0004D4D303048784830BC625A463D3E4949E0
:1024000049007E0101017E2A2A2A2A2A44445F4487
:102410004440514A444040444A51400000FF0103B7
:10242000E080FF000008086B6B0836123624360681
:102430000F090F06000018180000001010003040AF
:10244000FF0101001F01011E00191D1712003C3C75
:102450003C3C000000000000000000003E5B4F5BC1
:102460003E3E6B4F6B3E1C3E7C3E1C183C7E3C1837
:102470001C577D571C1C5E7F5E1C00183C1800FF1B
:10248000E7C3E7FF0018241800FFE7DBE7FF304849
:102490003A060E2629792926407F050507407F0543
:1024A000253F5A3CE73C5A7F3E1C1C08081C1C3E3A
:1024B0007F14227F22145F5F005F5F06097F017F28
:1024C000006689956A606060606094A2FFA29408CB
:1024D000047E040810207E201008082A1C08081C0E
:1024E0002A08081E101010100C1E0C1E0C30383E4E
:1024F0003830060E3E0E06000000000000005F00AF
:10250000000007000700147F147F14242A7F2A127A
:102510002313086462364956205000080703000060
:102520001C2241000041221C002A1C7F1C2A080892
:102530003E080800807030000808080808000060A5
:10254000600020100804023E5149453E00427F4091
:102550000072494949462141494D331814127F10F0
:1025600027454545393C4A4949314121110907363A
:1025700049494936464949291E00001400000040D7
:1025800034000000081422411414141414004122D1
:10259000140802015909063E415D594E7C12111280
:1025A0007C7F494949363E414141227F4141413E7C
:1025B0007F494949417F090909013E414151737FE2
:1025C0000808087F00417F41002040413F017F080B
:1025D0001422417F404040407F021C027F7F04085C
:1025E000107F3E4141413E7F090909063E4151218C
:1025F0005E7F09192946264949493203017F0103B3
:102600003F4040403F1F2040201F3F4038403F6335
:102610001408146303047804036159494D43007F8F
:102620004141410204081020004141417F04020160
:102630000204404040404000030708002054547802
:10264000407F284444383844444428384444287F50
:10265000385454541800087E090218A4A49C787FAA
:102660000804047800447D40002040403D007F1075
:1026700028440000417F40007C047804787C0804F2
:1026800004783844444438FC1824241818242418A6
:10269000FC7C08040408485454542404043F442493
:1026A0003C4040207C1C2040201C3C4030403C44AE
:1026B000281028444C9090907C4464544C4400086A
:1026C0003641000000770000004136080002010298
:1026D00004023C2623263C1EA1A161123A40402060
:1026E0007A385454555921555579412254547842D9
:1026F000215554784020545579400C1E527212399D
:102700005555555939545454593955545458000055
:10271000457C410002457D420001457C407D12110F
:10272000127DF0282528F07C545545002054547C17
:10273000547C0A097F4932494949323A4444443A6F
:10274000324A4848303A4141217A3A4240207800A2
:102750009DA0A07D3D4242423D3D4040403D3C2445
:10276000FF2424487E4943662B2FFC2F2BFF092989
:10277000F620C0887E090320545479410000447D2E
:10278000413048484A32384040227A007A0A0A7278
:102790007D0D19317D2629292F2826292929263022
:1027A000484D4020380808080808080808382F1045
:1027B000C8ACBA2F102834FA00007B000008142A95
:1027C000142222142A14085500550055AA55AA555A
:1027D000AAFF55FF55FF000000FF00101010FF007A
:1027E000141414FF001010FF00FF1010F010F0146C
:1027F0001414FC001414F700FF0000FF00FF141471
:10280000F404FC141417101F10101F101F141414BC
:102810001F00101010F0000000001F101010101FFB
:1028200010101010F010000000FF10101010101009
:10283000101010FF10000000FF140000FF00FF0048
:10284000001F10170000FC04F414141710171414C0
:10285000F404F40000FF00F714141414141414F713
:1028600000F7141414171410101F101F141414F46C
:10287000141010F010F000001F101F0000001F14B3
:10288000000000FC140000F010F01010FF10FF1406
:102890001414FF141010101F00000000F010FFFFB0
:1028A000FFFFFFF0F0F0F0F0FFFFFF00000000007E
:1028B000FFFF0F0F0F0F0F3844443844FC4A4A4AB9
:1028C000347E02020606027E027E0263554941639F
:1028D0003844443C04407E201E2006027E020299B9
:1028E000A5E7A5991C2A492A1C4C7201724C304A52
:1028F0004D4D303048784830BC625A463D3E4949DB
:1029000049007E0101017E2A2A2A2A2A44445F4482
:102910004440514A444040444A51400000FF0103B2
:10292000E080FF000008086B6B083612362436067C
:102930000F090F06000018180000001010003040AA
:10294000FF0101001F01011E00191D1712003C3C70
:102950003C3C000000000000000000003E5B4F5BBC
:102960003E3E6B4F6B3E1C3E7C3E1C183C7E3C1832
:102970001C577D571C1C5E7F5E1C00183C1800FF16
:10298000E7C3E7FF0018241800FFE7DBE7FF304844
:102990003A060E2629792926407F050507407F053E
:1029A000253F5A3CE73C5A7F3E1C1C08081C1C3E35
:1029B0007F14227F22145F5F005F5F06097F017F23
:1029C000006689956A606060606094A2FFA29408C6
:1029D000047E040810207E201008082A1C08081C09
:1029E0002A08081E101010100C1E0C1E0C30383E49
:1029F0003830060E3E0E06000000000000005F00AA
:102A0000000007000700147F147F14242A7F2A1275
:102A1000231308646236495620500008070300005B
:102A20001C2241000041221C002A1C7F1C2A08088D
:102A30003E080800807030000808080808000060A0
:102A4000600020100804023E5149453E00427F408C
:102A50000072494949462141494D331814127F10EB
:102A600027454545393C4A49493141211109073635
:102A700049494936464949291E00001400000040D2
:102A800034000000081422411414141414004122CC
:102A9000140802015909063E415D594E7C1211127B
:102AA0007C7F494949363E414141227F4141413E77
:102AB0007F494949417F090909013E414151737FDD
:102AC0000808087F00417F41002040413F017F0806
:102AD0001422417F404040407F021C027F7F040857
:102AE000107F3E4141413E7F090909063E41512187
:102AF0005E7F09192946264949493203017F0103AE
:102B00003F4040403F1F2040201F3F4038403F6330
:102B10001408146303047804036159494D43007F8A
:102B20004141410204081020004141417F0402015B
:102B300002044040404040000307080020545478FD
:102B4000407F284444383844444428384444287F4B
:102B5000385454541800087E090218A4A49C787FA5
:102B60000804047800447D40002040403D007F1070
:102B700028440000417F40007C047804787C0804ED
:102B800004783844444438FC1824241818242418A1
:102B9000FC7C08040408485454542404043F44248E
:102BA0003C4040207C1C2040201C3C4030403C44A9
:102BB000281028444C9090907C4464544C44000865
:102BC0003641000000770000004136080002010293
:102BD00004023C2623263C1EA1A161123A4040205B
:102BE0007A385454555921555579412254547842D4
:102BF000215554784020545579400C1E5272123998
:102C00005555555939545454593955545458000050
:102C1000457C410002457D420001457C407D12110A
:102C2000127DF0282528F07C545545002054547C12
:102C3000547C0A097F4932494949323A4444443A6A
:102C4000324A4848303A4141217A3A42402078009D
:102C50009DA0A07D3D4242423D3D4040403D3C2440
:102C6000FF2424487E4943662B2FFC2F2BFF092984
:102C7000F620C0887E090320545479410000447D29
:102C8000413048484A32384040227A007A0A0A7273
:102C90007D0D19317D2629292F282629292926301D
:102CA000484D4020380808080808080808382F1040
:102CB000C8ACBA2F102834FA00007B000008142A90
:102CC000142222142A14085500550055AA55AA5555
:102CD000AAFF55FF55FF000000FF00101010FF0075
:102CE000141414FF001010FF00FF1010F010F01467
:102CF0001414FC001414F700FF0000FF00FF14146C
:102D0000F404FC141417101F10101F101F141414B7
:102D10001F00101010F0000000001F101010101FF6
:102D200010101010F010000000FF10101010101004
:102D3000101010FF10000000FF140000FF00FF0043
:102D4000001F10170000FC04F414141710171414BB
:102D5000F404F40000FF00F714141414141414F70E
:102D600000F7141414171410101F101F141414F467
:102D7000141010F010F000001F101F0000001F14AE
:102D8000000000FC140000F010F01010FF10FF1401
:102D90001414FF141010101F00000000F010FFFFAB
:102DA000FFFFFFF0F0F0F0F0FFFFFF000000000079
:102DB000FFFF0F0F0F0F0F3844443844FC4A4A4AB4
:102DC000347E02020606027E027E0263554941639A
:102DD0003844443C04407E201E2006027E020299B4
:102DE000A5E7A5991C2A492A1C4C7201724C304A4D
:102DF0004D4D303048784830BC625A463D3E4949D6
:102E000049007E0101017E2A2A2A2A2A44445F447D
:102E10004440514A444040444A51400000FF0103AD
:102E2000E080FF000008086B6B0836123624360677
:102E30000F090F06000018180000001010003040A5
:102E4000FF0101001F01011E00191D1712003C3C6B
:102E50003C3C000000000000000000003E5B4F5BB7
:102E60003E3E6B4F6B3E1C3E7C3E1C183C7E3C182D
:102E70001C577D571C1C5E7F5E1C00183C1800FF11
:102E8000E7C3E7FF0018241800FFE7DBE7FF30483F
:102E90003A060E2629792926407F050507407F0539
:102EA000253F5A3CE73C5A7F3E1C1C08081C1C3E30
:102EB0007F14227F22145F5F005F5F06097F017F1E
:102EC000006689956A606060606094A2FFA29408C1
:102ED000047E040810207E201008082A1C08081C04
:102EE0002A08081E101010100C1E0C1E0C30383E44
:102EF0003830060E3E0E06000000000000005F00A5
:102F0000000007000700147F147F14242A7F2A1270
:102F10002313086462364956205000080703000056
:102F20001C2241000041221C002A1C7F1C2A080888
:102F30003E0808008070300008080808080000609B
:102F4000600020100804023E5149453E00427F4087
:102F50000072494949462141494D331814127F10E6
:102F600027454545393C4A49493141211109073630
:102F700049494936464949291E00001400000040CD
:102F800034000000081422411414141414004122C7
:102F9000140802015909063E415D594E7C12111276
:102FA0007C7F494949363E414141227F4141413E72
:102FB0007F494949417F090909013E414151737FD8
:102FC0000808087F00417F41002040413F017F0801
:102FD0001422417F404040407F021C027F7F040852
:102FE000107F3E4141413E7F090909063E41512182
:102FF0005E7F09192946264949493203017F0103A9
:103000003F4040403F1F2040201F3F4038403F632B
:103010001408146303047804036159494D43007F85
:103020004141410204081020004141417F04020156
:1030300002044040404040000307080020545478F8
:10304000407F284444383844444428384444287F46
:10305000385454541800087E090218A4A49C787FA0
:103060000804047800447D40002040403D007F106B
:1030700028440000417F40007C047804787C0804E8
:1030800004783844444438FC18242418182424189C
:10309000FC7C08040408485454542404043F442489
:1030A0003C4040207C1C2040201C3C4030403C44A4
:1030B000281028444C9090907C4464544C44000860
:1030C000364100000077000000413608000201028E
:1030D00004023C2623263C1EA1A161123A40402056
:1030E0007A385454555921555579412254547842CF
:1030F000215554784020545579400C1E5272123993
:10310000555555593954545459395554545800004B
:10311000457C410002457D420001457C407D121105
:10312000127DF0282528F07C545545002054547C0D
:10313000547C0A097F4932494949323A4444443A65
:10314000324A4848303A4141217A3A424020780098
:103150009DA0A07D3D4242423D3D4040403D3C243B
:10316000FF2424487E4943662B2FFC2F2BFF09297F
:10317000F620C0887E090320545479410000447D24
:10318000413048484A32384040227A007A0A0A726E
:103190007D0D19317D2629292F2826292929263018
:1031A000484D4020380808080808080808382F103B
:1031B000C8ACBA2F102834FA00007B000008142A8B
:1031C000142222142A14085500550055AA55AA5550
:1031D000AAFF55FF55FF000000FF00101010FF0070
:1031E000141414FF001010FF00FF1010F010F01462
:1031F0001414FC001414F700FF0000FF00FF141467
:10320000F404FC141417101F10101F101F141414B2
:103210001F00101010F0000000001F101010101FF1
:1032200010101010F010000000FF101010101010FF
:10323000101010FF10000000FF140000FF00FF003E
:10324000001F10170000FC04F414141710171414B6
:10325000F404F40000FF00F714141414141414F709
:1032600000F7141414171410101F101F141414F462
:10327000141010F010F000001F101F0000001F14A9
:10328000000000FC140000F010F01010FF10FF14FC
:103290001414FF141010101F00000000F010FFFFA6
:1032A000FFFFFFF0F0F0F0F0FFFFFF000000000074
:1032B000FFFF0F0F0F0F0F3844443844FC4A4A4AAF
:1032C000347E02020606027E027E02635549416395
:1032D0003844443C04407E201E2006027E020299AF
:1032E000A5E7A5991C2A492A1C4C7201724C304A48
:1032F0004D4D303048784830BC625A463D3E4949D1
:1033000049007E0101017E2A2A2A2A2A44445F4478
:103310004440514A444040444A51400000FF0103A8
:10332000E080FF000008086B6B0836123624360672
:103330000F090F06000018180000001010003040A0
:10334000FF0101001F01011E00191D1712003C3C66
:103350003C3C000000000000000000003E5B4F5BB2
:103360003E3E6B4F6B3E1C3E7C3E1C183C7E3C1828
:103370001C577D571C1C5E7F5E1C00183C1800FF0C
:10338000E7C3E7FF0018241800FFE7DBE7FF30483A
:103390003A060E2629792926407F050507407F0534
:1033A000253F5A3CE73C5A7F3E1C1C08081C1C3E2B
:1033B0007F14227F22145F5F005F5F06097F017F19
:1033C000006689956A606060606094A2FFA29408BC
:1033D000047E040810207E201008082A1C08081CFF
:1033E0002A08081E101010100C1E0C1E0C30383E3F
:1033F0003830060E3E0E06000000000000005F00A0
:10340000000007000700147F147F14242A7F2A126B
:103410002313086462364956205000080703000051
:103420001C2241000041221C002A1C7F1C2A080883
:103430003E08080080703000080808080800006096
:10344000600020100804023E5149453E00427F4082
:103450000072494949462141494D331814127F10E1
:1034600027454545393C4A4949314121110907362B
:1034700049494936464949291E00001400000040C8
:1034800034000000081422411414141414004122C2
:10349000140802015909063E415D594E7C12111271
:1034A0007C7F494949363E414141227F4141413E6D
:1034B0007F494949417F090909013E414151737FD3
:1034C0000808087F00417F41002040413F017F08FC
:1034D0001422417F404040407F021C027F7F04084D
:1034E000107F3E4141413E7F090909063E4151217D
:1034F0005E7F09192946264949493203017F0103A4
:103500003F4040403F1F2040201F3F4038403F6326
:103510001408146303047804036159494D43007F80
:103520004141410204081020004141417F04020151
:1035300002044040404040000307080020545478F3
:10354000407F284444383844444428384444287F41
:10355000385454541800087E090218A4A49C787F9B
:103560000804047800447D40002040403D007F1066
:1035700028440000417F40007C047804787C0804E3
:1035800004783844444438FC182424181824241897
:10359000FC7C08040408485454542404043F442484
:1035A0003C4040207C1C2040201C3C4030403C449F
:1035B000281028444C9090907C4464544C4400085B
:1035C0003641000000770000004136080002010289
:1035D00004023C2623263C1EA1A161123A40402051
:1035E0007A385454555921555579412254547842CA
:1035F000215554784020545579400C1E527212398E
:103600005555555939545454593955545458000046
:10361000457C410002457D420001457C407D121100
:10362000127DF0282528F07C545545002054547C08
:10363000547C0A097F4932494949323A4444443A60
:10364000324A4848303A4141217A3A424020780093
:103650009DA0A07D3D4242423D3D4040403D3C2436
:10366000FF2424487E4943662B2FFC2F2BFF09297A
:10367000F620C0887E090320545479410000447D1F
:10368000413048484A32384040227A007A0A0A7269
:103690007D0D19317D2629292F2826292929263013
:1036A000484D4020380808080808080808382F1036
:1036B000C8ACBA2F102834FA00007B000008142A86
:1036C000142222142A14085500550055AA55AA554B
:1036D000AAFF55FF55FF000000FF00101010FF006B
:1036E000141414FF001010FF00FF1010F010F0145D
:1036F0001414FC001414F700FF0000FF00FF141462
:10370000F404FC141417101F10101F101F141414AD
:103710001F00101010F0000000001F101010101FEC
:1037200010101010F010000000FF101010101010FA
:10373000101010FF10000000FF140000FF00FF0039
:10374000001F10170000FC04F414141710171414B1
:10375000F404F40000FF00F714141414141414F704
:1037600000F7141414171410101F101F141414F45D
:10377000141010F010F000001F101F0000001F14A4
:10378000000000FC140000F010F01010FF10FF14F7
:103790001414FF141010101F00000000F010FFFFA1
:1037A000FFFFFFF0F0F0F0F0FFFFFF00000000006F
:1037B000FFFF0F0F0F0F0F3844443844FC4A4A4AAA
:1037C000347E02020606027E027E02635549416390
:1037D0003844443C04407E201E2006027E020299AA
:1037E000A5E7A5991C2A492A1C4C7201724C304A43
:1037F0004D4D303048784830BC625A463D3E4949CC
:1038000049007E0101017E2A2A2A2A2A44445F4473
:103810004440514A444040444A51400000FF0103A3
:10382000E080FF000008086B6B083612362436066D
:103830000F090F060000181800000010100030409B
:10384000FF0101001F01011E00191D1712003C3C61
:103850003C3C000000000000000000003E5B4F5BAD
:103860003E3E6B4F6B3E1C3E7C3E1C183C7E3C1823
:103870001C577D571C1C5E7F5E1C00183C1800FF07
:10388000E7C3E7FF0018241800FFE7DBE7FF304835
:103890003A060E2629792926407F050507407F052F
:1038A000253F5A3CE73C5A7F3E1C1C08081C1C3E26
:1038B0007F14227F22145F5F005F5F06097F017F14
:1038C000006689956A606060606094A2FFA29408B7
:1038D000047E040810207E201008082A1C08081CFA
:1038E0002A08081E101010100C1E0C1E0C30383E3A
:1038F0003830060E3E0E06000000000000005F009B
:10390000000007000700147F147F14242A7F2A1266
:10391000231308646236495620500008070300004C
:103920001C2241000041221C002A1C7F1C2A08087E
:103930003E08080080703000080808080800006091
:10394000600020100804023E5149453E00427F407D
:103950000072494949462141494D331814127F10DC
:1039600027454545393C4A49493141211109073626
:1039700049494936464949291E00001400000040C3
:1039800034000000081422411414141414004122BD
:10399000140802015909063E415D594E7C1211126C
:1039A0007C7F494949363E414141227F4141413E68
:1039B0007F494949417F090909013E414151737FCE
:1039C0000808087F00417F41002040413F017F08F7
:1039D0001422417F404040407F021C027F7F040848
:1039E000107F3E4141413E7F090909063E41512178
:1039F0005E7F09192946264949493203017F01039F
:103A00003F4040403F1F2040201F3F4038403F6321
:103A10001408146303047804036159494D43007F7B
:103A20004141410204081020004141417F0402014C
:103A300002044040404040000307080020545478EE
:103A4000407F284444383844444428384444287F3C
:103A5000385454541800087E090218A4A49C787F96
:103A60000804047800447D40002040403D007F1061
:103A700028440000417F40007C047804787C0804DE
:103A800004783844444438FC182424181824241892
:103A9000FC7C08040408485454542404043F44247F
:103AA0003C4040207C1C2040201C3C4030403C449A
:103AB000281028444C9090907C4464544C44000856
:103AC0003641000000770000004136080002010284
:103AD00004023C2623263C1EA1A161123A4040204C
:103AE0007A385454555921555579412254547842C5
:103AF000215554784020545579400C1E5272123989
:103B00005555555939545454593955545458000041
:103B1000457C410002457D420001457C407D1211FB
:103B2000127DF0282528F07C545545002054547C03
:103B3000547C0A097F4932494949323A4444443A5B
:103B4000324A4848303A4141217A3A42402078008E
:103B50009DA0A07D3D4242423D3D4040403D3C2431
:103B6000FF2424487E4943662B2FFC2F2BFF092975
:103B7000F620C0887E090320545479410000447D1A
:103B8000413048484A32384040227A007A0A0A7264
:103B90007D0D19317D2629292F282629292926300E
:103BA000484D4020380808080808080808382F1031
:103BB000C8ACBA2F102834FA00007B000008142A81
:103BC000142222142A14085500550055AA55AA5546
:103BD000AAFF55FF55FF000000FF00101010FF0066
:103BE000141414FF001010FF00FF1010F010F01458
:103BF0001414FC001414F700FF0000FF00FF14145D
:103C0000F404FC141417101F10101F101F141414A8
:103C10001F00101010F0000000001F101010101FE7
:103C200010101010F010000000FF101010101010F5
:103C3000101010FF10000000FF140000FF00FF0034
:103C4000001F10170000FC04F414141710171414AC
:103C5000F404F40000FF00F714141414141414F7FF
:103C600000F7141414171410101F101F141414F458
:103C7000141010F010F000001F101F0000001F149F
:103C8000000000FC140000F010F01010FF10FF14F2
:103C90001414FF141010101F00000000F010FFFF9C
:103CA000FFFFFFF0F0F0F0F0FFFFFF00000000006A
:103CB000FFFF0F0F0F0F0F3844443844FC4A4A4AA5
:103CC000347E02020606027E027E0263554941638B
:103CD0003844443C04407E201E2006027E020299A5
:103CE000A5E7A5991C2A492A1C4C7201724C304A3E
:103CF0004D4D303048784830BC625A463D3E4949C7
:103D000049007E0101017E2A2A2A2A2A44445F446E
:103D10004440514A444040444A51400000FF01039E
:103D2000E080FF000008086B6B0836123624360668
:103D30000F090F0600001818000000101000304096
:103D4000FF0101001F01011E00191D1712003C3C5C
:103D50003C3C0000000000000000000000000000EB
:103D60000000000000000101010D0D0D10111000F8
:103D700000000000000000000000000101010D0D26
:103D80000D10111008090A000100000100000000D8
:103D90000101010D0D0D10111008090A0000010BA1
:103DA00011000B11000102010D0D0D101110080979
:103DB0000A0000010000000102000B11010D0D0DB1
:103DC00010111008090A00000100000000000000A6
:103DD0000100050C030B110108090A010101000093
:103DE00000000000000000050B03050B030309059C
:103DF0000B11000B11000001000000000000000288
:103E000008050208050000000102000B1100000176
:103E10000000000000000000000000000000070E8D
:103E200003070E04070E040209050101010000004A
:103E30000000000000000001000B11000B11000247
:103E400003000000000000000000000000000B1153
:103E500000070E03070E040309050001000000001F
:103E6000020300070E030B1100070E03070E0407E1
:103E70000E04020905000100070E03070E04070ED9
:103E8000040B1100070E03070E04020905020805C2
:103E9000070E03070E04070E04070E04070E0403A3
:103EA0000905020805020805070E04070E04070E9F
:103EB00004070E04030905020805020805020805A7
:103EC00000020002080502080502080502080502B2
:103ED00008050208050001000000000000000000C5
:103EE0000100050B03050B03050B03050B03000085
:103EF00000000000000100050B0302080501030497
:103F00000D0D0D010101000000000000050B030272
:103F10000805010204010304101110010101000051
:103F200000000000050B0302080500020401030461
:103F3000101110010101000000000100050B030237
:103F40000805000204010304101110010101000022
:103F500000000100050B030208050102040103042F
:103F60001011100101010000000001000001000516
:103F70000B030208050203041011100101010000E7
:103F800000000000000000000100050B03050B030A
:103F9000050C04050B0300000000000000010101F6
:103FA000101110101110101110101110010101004A
:103FB00000000000000000000102010D0D0D0D0DBC
:103FC0000D010201000000000000000000000000E0
:103FD0000202021011101011100202020000000073
:103FE000000000000002020210111008090B08096D
:103FF0000B1011100202020000000101011011104B
:104000000C03110C03110C03110C031110111001FE
:1040100001010101011011100C03110C02110C021D
:10402000110C03111011100101010000000D0D0D04
:104030000C03110C03110C03110C03110D0D0D00D9
:1040400000000000000101010D0D0D0D0D0D0D0D05
:104050000D0D0D0D01010100000000000000020225
:1040600000101103101103101103070E04000100CA
:10407000000000020200101102070E030B11000BDA
:104080001100101102070E03000100101102070EAB
:10409000040B1100101102070E030B110010110286
:1040A000070E04101102070E041011021011021065
:1040B0001102070E04101102070E04101102070E60
:1040C00004101102101102101102070E0410110247
:1040D000070E04101102070E040B11001011020745
:1040E0000E030B1100101102070E04020200101142
:1040F00002070E030B11000B1100101102070E0333
:104100000001000000000202001011031011031052
:104110001103070E04000100000000000000000071
:1041200000000202021011100C0311010102000034
:104130000000000000000002020210111010111017
:104140000C03110C02110100020000000202021017
:1041500011101011101011100C03110C02110C028F
:104160001101010210111010111010111010111076
:104170000C03110C03110C03110C03110C03110C93
:1041800003110C03110C031108090B08090A080993
:104190000A08090A0201020C02110C02110C031197
:1041A00008090A08090A08090A00010100000001BB
:1041B00000020C02110C031108090A08090A000088
:1041C000010000000000000000000201020C0311C9
:1041D00008090A00010100000000000000000000C2
:1041E000000000000100011105001105011105107A
:1041F0001110010201000000000000000100011187
:104200000500110500110501110500110500000050
:10421000000000050B030E110B050C040102000E3B
:10422000110B010301010101000000050B030E1138
:104230000B0E110B060C04060C040E110B000001F2
:10424000000100000200060C040E110B0E110B0EF3
:10425000110B0102010102010011050111051111EB
:10426000030C03110C03110B110200010010110FBC
:104270000102020B03110C03110C02110C021103B9
:10428000020608090A010101000000050B040100F3
:10429000020100010000010208050000000000000A
:1042A0000000000000010000020000020000010008
:1042B00001010100000000000000020000110500E3
:1042C00011050011050209050000000001000002AF
:1042D000000011050111050111050011050111056D
:1042E0000209050000000011050111051011101050
:1042F00011100111050E110B0E110B030905001110
:10430000050111051011100203020011050103013E
:104310000E110B0208050011050011050111050021
:10432000110500110500110502090502080501111A
:10433000050011050011050011050011050011050A
:104340000208050208050011050003000011050020
:104350001105000300001105020805020805000010
:1043600000000201011000061002051111031111D5
:10437000020B1100010200010101101110100306CF
:104380001111030E110B1111031111020B11000970
:1043900001051011100E110B1111030203010E1172
:1043A0000B020301000100010201101110020302BF
:1043B0000E110B0E110B0E110B0E110B0102010150
:1043C00002021011101001061002060E110B090254
:1043D000050202010D0D0D0B03110C03110C03114D
:1043E000060B040B1100050B0309010508090A015E
:1043F00002020E110B09010510000510010509014B
:104400000501000008090A000200010100050B0374
:104410000101000100000208050000000001000089
:104420000000000000000100000100010C03110C5D
:10443000031108090A00000000000000000000004D
:1044400000030205101110101110101110010201CB
:104450000000000000000000000101011011100424
:10446000040610111001020100000000000000000D
:10447000000101010B11020B11000B11010B1100C6
:104480000000000101010101020C02110C041101E4
:1044900011050002000102010101021011101011AA
:1044A000100C041110111008090A03020508090A6A
:1044B0000000000203021011101011100D0D0D0D5F
:1044C0000D0D0101010000010001000B11000B1195
:1044D00001010201050B03050B03050B030000009E
:1044E00000020300020300020301010200010200B6
:1044F00001020002030002020002030002030002A4
:10450000030002030102040102040102030001028C
:1045100000020300090C07090D070A0D08090D0721
:10452000090D08080C06020301080B07090C07080F
:104530000B07080C07070A06090D07070A05070AF3
:1045400005090C07111111040509080C07090D07CD
:10455000040509111111080B07060A04080C0609C5
:104560000C07040703040703090D07070B040508DC
:1045700003060A04060A04040803040803040803E3
:10458000040803060A0405090304070304070205D7
:1045900009030509030508030509040509040508BD
:1045A00003000E0B0B0B01010C05040D0A0A0E0E85
:1045B0000E0F09080E08070A05050A02020D060675
:1045C0000C04030E07070A05050F07060D07050E65
:1045D0000E0E0D04030502010603030F0A090A0665
:1045E000060502010603030F0F0F0E050405020165
:1045F0000000000E07050C04030000000401010E7A
:1046000008070E09090C07060F0A09050101050232
:10461000010E0D0D0905040E06050E0B0A0A05050F
:104620000603030000000000000502010F07050E4D
:104630000D0D0F0D0D0B070700000000000000001E
:10464000000000000D06050A05050F07050F090704
:104650000401010E0A090E0C0B0502010904030EE8
:10466000070600000000000000000000000000003D
:10467000000000000000000000000000000000003A
:10468000000000000000000000000000000000002A
:10469000000000000000000000000000000000001A
:1046A000000000000000000000000000000000000A
:1046B0000000000011111111111100000000000094
:1046C00000000000000000000000000011111111A6
:1046D00011110000000000000000000000000000B8
:1046E00000000000000000000000000000000000CA
:1046F00000000000000000000000000000000000BA
:1047000000000000000000000000000000000000A9
:104710000000000000000000000000000000000099
:104720000000000000000000000000000000000089
:104730000000000000000000000000000000000079
:104740000000000000000000000000111111111114
:104750001100000000000000000000000000000048
:1047600000000011111111111100000000000000E3
:104770000000000000000000000000000000000039
:104780000000000000000000000000000000000029
:104790000000000000000000000000000000001108
:1047A00011111111110000000000000000000000B4
:1047B0000000000000000011111111111100000093
:1047C00000000000000000000000000000000000E9
:1047D00000000000000000000000000000000000D9
:1047E00000000000000000000000000000000000C9
:1047F0000000000000000011111111111100000053
:104800000000000000000000000000000000001197
:104810001111111111000000000000000000000043
:104820000000000000000000000000000000000088
:104830000000000000001111111111110000000012
:104840000000000000000000000000000000111146
:104850001111111100000000000000000000000014
:104860000000000000000000000000000000000048
:1048700000000000001111111111110000000000D2
:1048800000000000000000000000000000111111F5
:1048900011111100000000000000000000000000E5
:1048A00000000000000011111111111100000000A2
:1048B0000000000000000000111111111111111170
:1048C00011111111000000000000000000000000A4
:1048D0001111111111110000000000000000000072
:1048E00000000000000000000000000000000000C8
:1048F00000000000000000000000000000000000B8
:1049000000000000000000000000000000000000A7
:104910000000000000000000000000000000000097
:104920000000000000000000000000000000000087
:104930000000000000001111111111110000000011
:1049400000000000000000001111111111111111DF
:104950001111111100000000000000000000000013
:10496000111111111111001111111111110000007B
:1049700000000000000000000011111111111111C0
:1049800011111111110000000000000000000000D2
:1049900000111111111111000000000000000000B1
:1049A0000000000000000000000000000000000007
:1049B0000000000000000000111111111111000091
:1049C00000000000000000000000000000000000E7
:1049D0001111111111110000000000000000000071
:1049E00000000000000000000000000000000000C7
:1049F0000000000000000011111111111100000051
:104A0000000000000000000000111111111111112F
:104A10001111111111000000000000000000000041
:104A200000111111111111001111111111110000BA
:104A300000111111111111000000111111111111AA
:104A4000111111111111000000111111111111009A
:104A500000001111111111110000000000000000F0
:104A60000000000000000000000000000000000046
:104A70000000000000000000000000000000000036
:104A80000000000000000000000000000000000026
:104A90000000000000000000000000000000000016
:104AA0000000000000000000000000000000000006
:104AB0000000000000000000111111111111000090
:104AC000001111111111110000001111111111111A
:104AD000111111111111000000111111111111000A
:104AE0000000111111111111000000000000000060
:104AF0000000111111111111000000000000000050
:104B0000000000000000000000001111111111113F
:104B10000000000000000000000000000000000095
:104B2000000011111111111100000000000000001F
:104B3000000000000000000000001111111111110F
:104B40000000000000000000000000000000000065
:104B500000001111111111110000000000000000EF
:104B600000000000000000000000111111111111DF
:104B70000000000000000000000000000000000035
:104B800000001111111111110000000000000000BF
:104B900000000000000000000000111111111111AF
:104BA0000000000000000000000000000000000005
:104BB0000000000B0B0B1111110D0D0D000000007A
:104BC00000000000000000000000000D0D0D11119C
:104BD000110C0C0C000000000000000000000000A0
:104BE0000000000F0F0F1111110A0A0A0000000047
:104BF0000000000000000000040404101010111157
:104C0000110707070000000000000000000000007E
:104C10000707071111111010100404040000000010
:104C200000000000000000000A0A0A1111110F0F15
:104C30000F00000000000000000000000000000065
:104C40000C0C0C1111110D0D0D00000000000000E6
:104C500000000000000000000D0D0D1111110B0BE4
:104C60000B00000000000000000000000000000039
:104C7000000000000202020F0F0F0F0F0F060606C2
:104C800000000000000000000000000008080811FB
:104C900011111010100505050000000000000000B3
:104CA000000000000D0D0D1111110E0E0E00000080
:104CB00000000000000000000004040410101011A7
:104CC00011110909090000000000000000000000A7
:104CD000000909091111111010100404040000004A
:104CE0000000000000000000000E0E0E1111110D5A
:104CF0000D0D000000000000000000000000050590
:104D00000510101011111108080800000000000023
:104D10000000000000000606060F0F0F0F0F0F0225
:104D2000020200000000000000000000000000007F
:104D300000000000000000000808080E0E0E09091F
:104D40000900000000000000000000000002020254
:104D50000F0F0F1111110D0D0D00000000000000CC
:104D600000000000000A0A0A1111111010100707B4
:104D700007000000000000000000040404101010F0
:104D80001111110C0C0C00000000000000000000CC
:104D900000000C0C0C111111101010040404000080
:104DA000000000000000000707071010101111118B
:104DB0000A0A0A0000000000000000000000000DC8
:104DC0000D0D1111110F0F0F020202000000000063
:104DD000000000000000000909090E0E0E08080876
:104DE00000000000000000000000000000000000C3
:104DF0000000000000000000000000000A0A0A098C
:104E00000909000000000000000000000000000090
:104E1000000A0A0A111111111111070707000000F9
:104E20000000000000000808081010101111110DFA
:104E30000D0D0101010000000000000606060F0F25
:104E40000F1111110E0E0E040404000000000000EA
:104E50000404040E0E0E1111110F0F0F06060600AA
:104E600000000000000101010D0D0D1111111010C5
:104E700010080808000000000000000000070707F5
:104E80001111111111110A0A0A000000000000009E
:104E900000000000000000000909090A0A0A0000D9
:104EA0000000000000000000000000000000000002
:104EB00000000000000000000000000000010101EF
:104EC00007070700000000000000000000000000CD
:104ED00000000404040D0D0D111111090909000051
:104EE000000000000000000606060E0E0E11111153
:104EF0001111110A0A0A0000000000000808080F3A
:104F00000F0F1111111010100A0A0A000000000002
:104F1000000A0A0A1010101111110F0F0F080808CB
:104F20000000000000000A0A0A1111111111110EEF
:104F30000E0E060606000000000000000000090931
:104F4000091111110D0D0D040404000000000000F2
:104F50000000000000000000000707070101010039
:104F60000000000000000000000000000000000041
:104F70000000000000000000000000000000000031
:104F80000000000000000000000000000000000021
:104F90000000000000000707070D0D0D09090900BA
:104FA00000000000000000000404040C0C0C1010B1
:104FB000101111110E0E0E0000000202020A0A0A60
:104FC0001010101111111111110F0F0F08080808FE
:104FD00008080F0F0F1111111111111010100A0AEA
:104FE0000A0202020000000E0E0E11111110101024
:104FF0000C0C0C0404040000000000000000000978
:1050000009090D0D0D070707000000000000000052
:105010000000000000000000000000000000000090
:105020000000000000000000000000000000000080
:105030000000000000000000000000000000000070
:105040000000000000000000000000000000000060
:10505000000000000000000000000505050606062F
:105060000000000000000000000404040909090E0B
:105070000E0E1010100F0F0F0202020808080D0D7F
:105080000D1010101111111111111111110F0F0F1D
:105090000F0F0F1111111111111111111010100D0D
:1050A0000D0D0808080202020F0F0F1010100E0E4F
:1050B0000E090909040404000000000000000000BB
:1050C00006060605050500000000000000000000BF
:1050D00000000000000000000000000000000000D0
:1050E00000000000000000000000000000000000C0
:1050F00000000000000000000000000000000000B0
:10510000000000000000000000000000000000009F
:10511000000000000000000000000000000000008F
:10512000000000000000000000000404040707075E
:105130000A0A0A0C0C0C0D0D0D0B0B0B0D0D0D0FAF
:105140000F0F101010111111111111111111111156
:105150001111111111111111111111111110101042
:105160000F0F0F0D0D0D0B0B0B0D0D0D0C0C0C0A75
:105170000A0A0707070404040000000000000000FA
:10518000000000000000000000000000000000001F
:10519000000000000000000000000000000000000F
:1051A00000000000000000000000000000000000FF
:1051B00000000000000000000000000000000000EF
:1051C00000000000000000000000000000000000DF
:1051D00000000000000000000000000000000000CF
:1051E00000000000000000000000000000000000BF
:1051F0000000000000000000000011111111111149
:10520000111111111111111111111111111111118E
:10521000111111111111111111111111111111117E
:1052200011111111111111111111000000000000D4
:10523000000000000000000000000000000000006E
:10524000000000000000000000000000000000005E
:10525000000000000000000000000000000000004E
:10526000000000000000000000000000000000003E
:10527000000000000000000000000000000000002E
:10528000000000000000000000000000000000001E
:10529000000000000000000000000000000000000E
:1052A0000000000D0D0D0C0C0C0A0A0A070707047C
:1052B0000404000000000000000000111111111191
:1052C000111111111111111010100F0F0F0D0D0DE3
:1052D0000B0B0B0B0B0B0D0D0D0F0F0F10101011F7
:1052E0001111111111111111111111000000000003
:1052F000000000000404040707070A0A0A0C0C0C4B
:105300000D0D0D0000000000000000000000000076
:10531000000000000000000000000000000000008D
:10532000000000000000000000000000000000007D
:10533000000000000000000000000000000000006D
:105340000000000000000000000000000606060546
:105350000505000000000000000000000000000043
:10536000000000000F0F0F1010100E0E0E0909099B
:105370000404040000000000000000000F0F0F11E3
:1053800011111111111111111010100D0D0D08082E
:10539000080202020202020808080D0D0D1010108A
:1053A0001111111111111111110F0F0F0000000037
:1053B00000000000000404040909090E0E0E10107C
:1053C000100F0F0F000000000000000000000000A0
:1053D00000000000000005050506060600000000AC
:1053E00000000000000000000000000000000000BD
:1053F00000000000000000000000000000000000AD
:105400000000000000000000000000000009090981
:105410000D0D0D0707070000000000000000000050
:1054200000000000000E0E0E1111111010100C0CD7
:105430000C0404040000000000000000000808083C
:105440000F0F0F1111111111111010100A0A0A0279
:1054500002020000000000000202020A0A0A101004
:10546000101111111111110F0F0F08080800000081
:105470000000000000000404040C0C0C10101011BB
:1054800011110E0E0E0000000000000000000000D0
:10549000000000000707070D0D0D090909000000B5
:1054A00000000000000000000000000000000000FC
:1054B00000000000000000000007070701010100D4
:1054C00000000000000000000000000000000909CA
:1054D000091111110D0D0D0404040000000000005D
:1054E0000000000000000A0A0A1111111111110E2A
:1054F0000E0E06060600000000000000000000007E
:10550000000A0A0A1010101111110F0F0F080808D5
:105510000000000000000000000000000808080F64
:105520000F0F1111111010100A0A0A0000000000DC
:10553000000000000000000606060E0E0E111111FC
:105540001111110A0A0A000000000000000000000A
:1055500000000404040D0D0D1111110909090000CA
:105560000000000000000000000000000001010138
:10557000070707000000000000000909090A0A0ADD
:105580000000000000000000000000000000000714
:1055900007071111111111110A0A0A000000000079
:1055A000000000000000000101010D0D0D1111119E
:1055B00010101008080800000000000000000000A3
:1055C00000000404040E0E0E1111110F0F0F060639
:1055D00006000000000000000000000000060606B3
:1055E0000F0F0F1111110E0E0E0404040000000025
:1055F0000000000000000000080808101010111141
:10560000110D0D0D0101010000000000000000005F
:105610000000000A0A0A11111111111107070700F1
:1056200000000000000000000000000000000A0A66
:105630000A090909000000000000000909090E0E0E
:105640000E08080800000000000000000000000034
:105650000000000D0D0D1111110F0F0F02020200BD
:105660000000000000000000000000070707101005
:10567000101111110A0A0A000000000000000000C9
:105680000000000000000C0C0C111111101010048F
:1056900004040000000000000000000000000404FA
:1056A000041010101111110C0C0C0000000000006F
:1056B0000000000000000000000A0A0A1111111089
:1056C00010100707070000000000000000000000A5
:1056D000000202020F0F0F1111110D0D0D0000003D
:1056E0000000000000000000000000000808080E94
:1056F0000E0E090909000000000000000606060F52
:105700000F0F0F0F0F020202000000000000000048
:1057100000000000050505101010111111080808FF
:105720000000000000000000000000000000000E6B
:105730000E0E1111110D0D0D0000000000000000F3
:1057400000000000000000090909111111101010DB
:105750000404040000000000000000000000000439
:1057600004041010101111110909090000000000B3
:10577000000000000000000000000D0D0D111111CF
:105780000E0E0E00000000000000000000000000EF
:10579000000008080811111110101005050500007F
:1057A000000000000000000000000202020F0F0FC6
:1057B0000F0F0F06060600000000000000000000AA
:1057C0000D0D0D1111110B0B0B000000000000005E
:1057D00000000000000000000C0C0C1111110D0D58
:1057E0000D000000000000000000000000000000AC
:1057F0000A0A0A1111110F0F0F000000000000002B
:105800000000000000000000070707111111101030
:10581000100404040000000000000000000000006C
:1058200004040410101011111107070700000000F4
:1058300000000000000000000000000F0F0F111119
:10584000110A0A0A00000000000000000000000029
:105850000000000D0D0D1111110C0C0C00000000CA
:1058600000000000000000000000000B0B0B1111F5
:10587000110D0D0D000000000000000000000000F0
:105880003E5B4F5B3E3E6B4F6B3E1C3E7C3E1C18AE
:105890003C7E3C181C577D571C1C5E7F5E1C00180C
:1058A0003C1800FFE7C3E7FF0018241800FFE7DB00
:1058B000E7FF30483A060E2629792926407F05055C
:1058C00007407F05253F5A3CE73C5A7F3E1C1C0899
:1058D000081C1C3E7F14227F22145F5F005F5F065E
:1058E000097F017F006689956A606060606094A2AC
:1058F000FFA29408047E040810207E201008082AC5
:105900001C08081C2A08081E101010100C1E0C1E63
:105910000C30383E3830060E3E0E06000000000007
:1059200000005F00000007000700147F147F1424AC
:105930002A7F2A1223130864623649562050000831
:10594000070300001C2241000041221C002A1C7F8A
:105950001C2A08083E080800807030000808080863
:1059600008000060600020100804023E5149453ED6
:1059700000427F400072494949462141494D331850
:1059800014127F1027454545393C4A494931412188
:105990001109073649494936464949291E0000146C
:1059A00000000040340000000814224114141414B4
:1059B00014004122140802015909063E415D594E66
:1059C0007C1211127C7F494949363E414141227F78
:1059D0004141413E7F494949417F090909013E4111
:1059E0004151737F0808087F00417F4100204041FA
:1059F0003F017F081422417F404040407F021C024B
:105A00007F7F0408107F3E4141413E7F090909061E
:105A10003E4151215E7F09192946264949493203F1
:105A2000017F01033F4040403F1F2040201F3F4077
:105A300038403F6314081463030478040361594930
:105A40004D43007F41414102040810200041414183
:105A50007F04020102044040404040000307080068
:105A600020545478407F28444438384444442838EB
:105A70004444287F385454541800087E090218A45E
:105A8000A49C787F0804047800447D4000204040B6
:105A90003D007F1028440000417F40007C047804D2
:105AA000787C080404783844444438FC18242418CA
:105AB00018242418FC7C0804040848545454240472
:105AC000043F44243C4040207C1C2040201C3C409F
:105AD00030403C44281028444C9090907C446454BE
