:100000000C94AA140C94CB140C94CB140C94CB1415
:100010000C94CB140C94A7150C94C4150C94CB140D
:100020000C94CB140C94CB140C94CB140C94CB14D4
:100030000C94CB140C94CB140C94CB140C94CB14C4
:100040000C94CB140C94CB140C94CB140C94CB14B4
:100050000C94CB140C94CB140C94CB140C94CB14A4
:100060000C94CB140C94CB140C94CB140C94CB1494
:100070000C94CB140C94CB140C94CB140C94CB1484
:100080000C94CB140C94CB140C94CB140C94CB1474
:100090000C94CB140C94CB140C94CB140C94CB1464
:1000A0000C94CB140C94CB140C94CB140C94CB1454
:1000B0000C94CB140C94CB140C94CB140C94CB1444
:1000C0000C94CB140C94CB140C94CB140C94CB1434
:1000D0000C94CB140C94CB140C94CB140C94CB1424
:1000E0000C94CB1400000000003E5B4F5B3E3E6B67
:1000F0004F6B3E1C3E7C3E1C183C7E3C181C577DC2
:10010000571C1C5E7F5E1C00183C1800FFE7C3E70D
:10011000FF0018241800FFE7DBE7FF30483A060E1F
:100120002629792926407F050507407F05253F5A66
:100130003CE73C5A7F3E1C1C08081C1C3E7F1422D6
:100140007F22145F5F005F5F06097F017F00668981
:10015000956A606060606094A2FFA29408047E04C7
:100160000810207E201008082A1C08081C2A0808ED
:100170001E101010100C1E0C1E0C30383E383006AD
:100180000E3E0E06000000000000005F00000007A9
:10019000000700147F147F14242A7F2A12231308D7
:1001A000646236495620500008070300001C2241B3
:1001B000000041221C002A1C7F1C2A08083E080857
:1001C0000080703000080808080800006060002007
:1001D000100804023E5149453E00427F40007249EA
:1001E0004949462141494D331814127F102745458E
:1001F00045393C4A494931412111090736494949A4
:1002000036464949291E0000140000004034000011
:10021000000814224114141414140041221408027A
:10022000015909063E415D594E7C1211127C7F49ED
:100230004949363E414141227F4141413E7F494942
:1002400049417F090909013E414151737F0808086E
:100250007F00417F41002040413F017F081422413F
:100260007F404040407F021C027F7F0408107F3E99
:100270004141413E7F090909063E4151215E7F0906
:10028000192946264949493203017F01033F40406D
:10029000403F1F2040201F3F4038403F6314081458
:1002A0006303047804036159494D43007F41414190
:1002B0000204081020004141417F04020102044071
:1002C00040404040000307080020545478407F28F5
:1002D0004444383844444428384444287F385454EB
:1002E000541800087E090218A4A49C787F0804040E
:1002F0007800447D40002040403D007F10284400AD
:1003000000417F40007C047804787C08040478383D
:1003100044444438FC1824241818242418FC7C086D
:10032000040408485454542404043F44243C4040EA
:10033000207C1C2040201C3C4030403C442810289D
:10034000444C9090907C4464544C440008364100E6
:100350000000770000004136080002010204023C60
:100360002623263C1EA1A161123A4040207A38542F
:1003700054555921555579412254547842215554A8
:10038000784020545579400C1E52721239555555FB
:1003900059395454545939555454580000457C41E6
:1003A0000002457D420001457C407D1211127DF026
:1003B000282528F07C545545002054547C547C0A50
:1003C000097F4932494949323A4444443A324A4819
:1003D00048303A4141217A3A42402078009DA0A01D
:1003E0007D3D4242423D3D4040403D3C24FF24246F
:1003F000487E4943662B2FFC2F2BFF0929F620C08E
:10040000887E090320545479410000447D413048DE
:10041000484A32384040227A007A0A0A727D0D1921
:10042000317D2629292F28262929292630484D4083
:1004300020380808080808080808382F10C8ACBA7F
:100440002F102834FA00007B000008142A142222FE
:10045000142A14085500550055AA55AA55AAFF5547
:10046000FF55FF000000FF00101010FF00141414CF
:10047000FF001010FF00FF1010F010F0141414FC17
:10048000001414F700FF0000FF00FF1414F404FC34
:10049000141417101F10101F101F1414141F001015
:1004A0001010F0000000001F101010101F1010108E
:1004B00010F010000000FF1010101010101010109D
:1004C000FF10000000FF140000FF00FF00001F10DD
:1004D000170000FC04F414141710171414F404F497
:1004E0000000FF00F714141414141414F700F71488
:1004F0001414171410101F101F141414F4141010D7
:10050000F010F000001F101F0000001F140000007A
:10051000FC140000F010F01010FF10FF141414FF72
:10052000141010101F00000000F010FFFFFFFFFF6D
:10053000F0F0F0F0F0FFFFFF0000000000FFFF0F01
:100540000F0F0F0F3844443844FC4A4A4A347E02A5
:10055000020606027E027E02635549416338444426
:100560003C04407E201E2006027E020299A5E7A5DB
:10057000991C2A492A1C4C7201724C304A4D4D304C
:100580003048784830BC625A463D3E494949007E71
:100590000101017E2A2A2A2A2A44445F4444405108
:1005A0004A444040444A51400000FF0103E080FFBC
:1005B000000008086B6B083612362436060F090F48
:1005C00006000018180000001010003040FF010164
:1005D000001F01011E00191D1712003C3C3C3C008D
:1005E0000000000000000000003E5B4F5B3E3E6BE1
:1005F0004F6B3E1C3E7C3E1C183C7E3C181C577DBD
:10060000571C1C5E7F5E1C00183C1800FFE7C3E708
:10061000FF0018241800FFE7DBE7FF30483A060E1A
:100620002629792926407F050507407F05253F5A61
:100630003CE73C5A7F3E1C1C08081C1C3E7F1422D1
:100640007F22145F5F005F5F06097F017F0066897C
:10065000956A606060606094A2FFA29408047E04C2
:100660000810207E201008082A1C08081C2A0808E8
:100670001E101010100C1E0C1E0C30383E383006A8
:100680000E3E0E06000000000000005F00000007A4
:10069000000700147F147F14242A7F2A12231308D2
:1006A000646236495620500008070300001C2241AE
:1006B000000041221C002A1C7F1C2A08083E080852
:1006C0000080703000080808080800006060002002
:1006D000100804023E5149453E00427F40007249E5
:1006E0004949462141494D331814127F1027454589
:1006F00045393C4A4949314121110907364949499F
:1007000036464949291E000014000000403400000C
:100710000008142241141414141400412214080275
:10072000015909063E415D594E7C1211127C7F49E8
:100730004949363E414141227F4141413E7F49493D
:1007400049417F090909013E414151737F08080869
:100750007F00417F41002040413F017F081422413A
:100760007F404040407F021C027F7F0408107F3E94
:100770004141413E7F090909063E4151215E7F0901
:10078000192946264949493203017F01033F404068
:10079000403F1F2040201F3F4038403F6314081453
:1007A0006303047804036159494D43007F4141418B
:1007B0000204081020004141417F0402010204406C
:1007C00040404040000307080020545478407F28F0
:1007D0004444383844444428384444287F385454E6
:1007E000541800087E090218A4A49C787F08040409
:1007F0007800447D40002040403D007F10284400A8
:1008000000417F40007C047804787C080404783838
:1008100044444438FC1824241818242418FC7C0868
:10082000040408485454542404043F44243C4040E5
:10083000207C1C2040201C3C4030403C4428102898
:10084000444C9090907C4464544C440008364100E1
:100850000000770000004136080002010204023C5B
:100860002623263C1EA1A161123A4040207A38542A
:1008700054555921555579412254547842215554A3
:10088000784020545579400C1E52721239555555F6
:1008900059395454545939555454580000457C41E1
:1008A0000002457D420001457C407D1211127DF021
:1008B000282528F07C545545002054547C547C0A4B
:1008C000097F4932494949323A4444443A324A4814
:1008D00048303A4141217A3A42402078009DA0A018
:1008E0007D3D4242423D3D4040403D3C24FF24246A
:1008F000487E4943662B2FFC2F2BFF0929F620C089
:10090000887E090320545479410000447D413048D9
:10091000484A32384040227A007A0A0A727D0D191C
:10092000317D2629292F28262929292630484D407E
:1009300020380808080808080808382F10C8ACBA7A
:100940002F102834FA00007B000008142A142222F9
:10095000142A14085500550055AA55AA55AAFF5542
:10096000FF55FF000000FF00101010FF00141414CA
:10097000FF001010FF00FF1010F010F0141414FC12
:10098000001414F700FF0000FF00FF1414F404FC2F
:10099000141417101F10101F101F1414141F001010
:1009A0001010F0000000001F101010101F10101089
:1009B00010F010000000FF10101010101010101098
:1009C000FF10000000FF140000FF00FF00001F10D8
:1009D000170000FC04F414141710171414F404F492
:1009E0000000FF00F714141414141414F700F71483
:1009F0001414171410101F101F141414F4141010D2
:100A0000F010F000001F101F0000001F1400000075
:100A1000FC140000F010F01010FF10FF141414FF6D
:100A2000141010101F00000000F010FFFFFFFFFF68
:100A3000F0F0F0F0F0FFFFFF0000000000FFFF0FFC
:100A40000F0F0F0F3844443844FC4A4A4A347E02A0
:100A5000020606027E027E02635549416338444421
:100A60003C04407E201E2006027E020299A5E7A5D6
:100A7000991C2A492A1C4C7201724C304A4D4D3047
:100A80003048784830BC625A463D3E494949007E6C
:100A90000101017E2A2A2A2A2A44445F4444405103
:100AA0004A444040444A51400000FF0103E080FFB7
:100AB000000008086B6B083612362436060F090F43
:100AC00006000018180000001010003040FF01015F
:100AD000001F01011E00191D1712003C3C3C3C0088
:100AE0000000000000000000003E5B4F5B3E3E6BDC
:100AF0004F6B3E1C3E7C3E1C183C7E3C181C577DB8
:100B0000571C1C5E7F5E1C00183C1800FFE7C3E703
:100B1000FF0018241800FFE7DBE7FF30483A060E15
:100B20002629792926407F050507407F05253F5A5C
:100B30003CE73C5A7F3E1C1C08081C1C3E7F1422CC
:100B40007F22145F5F005F5F06097F017F00668977
:100B5000956A606060606094A2FFA29408047E04BD
:100B60000810207E201008082A1C08081C2A0808E3
:100B70001E101010100C1E0C1E0C30383E383006A3
:100B80000E3E0E06000000000000005F000000079F
:100B9000000700147F147F14242A7F2A12231308CD
:100BA000646236495620500008070300001C2241A9
:100BB000000041221C002A1C7F1C2A08083E08084D
:100BC00000807030000808080808000060600020FD
:100BD000100804023E5149453E00427F40007249E0
:100BE0004949462141494D331814127F1027454584
:100BF00045393C4A4949314121110907364949499A
:100C000036464949291E0000140000004034000007
:100C10000008142241141414141400412214080270
:100C2000015909063E415D594E7C1211127C7F49E3
:100C30004949363E414141227F4141413E7F494938
:100C400049417F090909013E414151737F08080864
:100C50007F00417F41002040413F017F0814224135
:100C60007F404040407F021C027F7F0408107F3E8F
:100C70004141413E7F090909063E4151215E7F09FC
:100C8000192946264949493203017F01033F404063
:100C9000403F1F2040201F3F4038403F631408144E
:100CA0006303047804036159494D43007F41414186
:100CB0000204081020004141417F04020102044067
:100CC00040404040000307080020545478407F28EB
:100CD0004444383844444428384444287F385454E1
:100CE000541800087E090218A4A49C787F08040404
:100CF0007800447D40002040403D007F10284400A3
:100D000000417F40007C047804787C080404783833
:100D100044444438FC1824241818242418FC7C0863
:100D2000040408485454542404043F44243C4040E0
:100D3000207C1C2040201C3C4030403C4428102893
:100D4000444C9090907C4464544C440008364100DC
:100D50000000770000004136080002010204023C56
:100D60002623263C1EA1A161123A4040207A385425
:100D7000545559215555794122545478422155549E
:100D8000784020545579400C1E52721239555555F1
:100D900059395454545939555454580000457C41DC
:100DA0000002457D420001457C407D1211127DF01C
:100DB000282528F07C545545002054547C547C0A46
:100DC000097F4932494949323A4444443A324A480F
:100DD00048303A4141217A3A42402078009DA0A013
:100DE0007D3D4242423D3D4040403D3C24FF242465
:100DF000487E4943662B2FFC2F2BFF0929F620C084
:100E0000887E090320545479410000447D413048D4
:100E1000484A32384040227A007A0A0A727D0D1917
:100E2000317D2629292F28262929292630484D4079
:100E300020380808080808080808382F10C8ACBA75
:100E40002F102834FA00007B000008142A142222F4
:100E5000142A14085500550055AA55AA55AAFF553D
:100E6000FF55FF000000FF00101010FF00141414C5
:100E7000FF001010FF00FF1010F010F0141414FC0D
:100E8000001414F700FF0000FF00FF1414F404FC2A
:100E9000141417101F10101F101F1414141F00100B
:100EA0001010F0000000001F101010101F10101084
:100EB00010F010000000FF10101010101010101093
:100EC000FF10000000FF140000FF00FF00001F10D3
:100ED000170000FC04F414141710171414F404F48D
:100EE0000000FF00F714141414141414F700F7147E
:100EF0001414171410101F101F141414F4141010CD
:100F0000F010F000001F101F0000001F1400000070
:100F1000FC140000F010F01010FF10FF141414FF68
:100F2000141010101F00000000F010FFFFFFFFFF63
:100F3000F0F0F0F0F0FFFFFF0000000000FFFF0FF7
:100F40000F0F0F0F3844443844FC4A4A4A347E029B
:100F5000020606027E027E0263554941633844441C
:100F60003C04407E201E2006027E020299A5E7A5D1
:100F7000991C2A492A1C4C7201724C304A4D4D3042
:100F80003048784830BC625A463D3E494949007E67
:100F90000101017E2A2A2A2A2A44445F44444051FE
:100FA0004A444040444A51400000FF0103E080FFB2
:100FB000000008086B6B083612362436060F090F3E
:100FC00006000018180000001010003040FF01015A
:100FD000001F01011E00191D1712003C3C3C3C0083
:100FE00000000000EF03038002CF0300C130ED04D6
:100FF00064031281E803850078CB05392C003402A4
:10100000F70120EA020000C00123C10110C5023E21
:1010100028C701863601483701003A0155B1020060
:1010200018B603088227F20100260101E00F0F31F4
:101030002B0C0E084EF1370710030E0900E10F00CC
:101040000E1403110731C148080F0C31360F1180FF
:1010500029800000000000003E5B4F5B3E3E6B4F6E
:101060006B3E1C3E7C3E1C183C7E3C181C577D573A
:101070001C1C5E7F5E1C00183C1800FFE7C3E7FFE6
:101080000018241800FFE7DBE7FF30483A060E2679
:1010900029792926407F050507407F05253F5A3CD1
:1010A000E73C5A7F3E1C1C08081C1C3E7F14227F14
:1010B00022145F5F005F5F06097F017F00668995EC
:1010C0006A606060606094A2FFA29408047E0408D5
:1010D00010207E201008082A1C08081C2A08081E58
:1010E000101010100C1E0C1E0C30383E3830060E3E
:1010F0003E0E06000000000000005F000000070038
:101100000700147F147F14242A7F2A1223130864F3
:101110006236495620500008070300001C22410097
:101120000041221C002A1C7F1C2A08083E080800D7
:101130008070300008080808080000606000201077
:101140000804023E5149453E00427F400072494931
:1011500049462141494D331814127F102745454512
:10116000393C4A4949314121110907364949493633
:10117000464949291E0000140000004034000000C8
:1011800008142241141414141400412214080201FA
:101190005909063E415D594E7C1211127C7F494926
:1011A00049363E414141227F4141413E7F494949C3
:1011B000417F090909013E414151737F0808087FB9
:1011C00000417F41002040413F017F081422417FC0
:1011D000404040407F021C027F7F0408107F3E4158
:1011E00041413E7F090909063E4151215E7F0919AF
:1011F0002946264949493203017F01033F404040C7
:101200003F1F2040201F3F4038403F6314081463B5
:1012100003047804036159494D43007F4141410271
:1012200004081020004141417F04020102044040B3
:10123000404040000307080020545478407F284471
:1012400044383844444428384444287F385454545B
:101250001800087E090218A4A49C787F080404786A
:1012600000447D40002040403D007F1028440000A5
:10127000417F40007C047804787C0804047838447A
:10128000444438FC1824241818242418FC7C08042E
:101290000408485454542404043F44243C4040204F
:1012A0007C1C2040201C3C4030403C4428102844FA
:1012B0004C9090907C4464544C44000836410000AB
:1012C00000770000004136080002010204023C26BB
:1012D00023263C1EA1A161123A4040207A38545482
:1012E0005559215555794122545478422155547805
:1012F0004020545579400C1E52721239555555599B
:10130000395454545939555454580000457C4100BF
:1013100002457D420001457C407D1211127DF0287E
:101320002528F07C545545002054547C547C0A09EF
:101330007F4932494949323A4444443A324A48485A
:10134000303A4141217A3A42402078009DA0A07D68
:101350003D4242423D3D4040403D3C24FF24244824
:101360007E4943662B2FFC2F2BFF0929F620C088CE
:101370007E090320545479410000447D413048489F
:101380004A32384040227A007A0A0A727D0D1931B9
:101390007D2629292F28262929292630484D402015
:1013A000380808080808080808382F10C8ACBA2FF1
:1013B000102834FA00007B000008142A142222149A
:1013C0002A14085500550055AA55AA55AAFF55FFDD
:1013D00055FF000000FF00101010FF00141414FF50
:1013E000001010FF00FF1010F010F0141414FC0097
:1013F0001414F700FF0000FF00FF1414F404FC14A1
:101400001417101F10101F101F1414141F00101099
:1014100010F0000000001F101010101F101010100E
:10142000F010000000FF101010101010101010FF2E
:1014300010000000FF140000FF00FF00001F101745
:101440000000FC04F414141710171414F404F4002E
:1014500000FF00F714141414141414F700F71414F4
:1014600014171410101F101F141414F4141010F07B
:1014700010F000001F101F0000001F14000000FCEF
:10148000140000F010F01010FF10FF141414FF14DB
:101490001010101F00000000F010FFFFFFFFFFF012
:1014A000F0F0F0F0FFFFFF0000000000FFFF0F0F63
:1014B0000F0F0F3844443844FC4A4A4A347E020233
:1014C0000606027E027E0263554941633844443C6D
:1014D00004407E201E2006027E020299A5E7A599FF
:1014E0001C2A492A1C4C7201724C304A4D4D303036
:1014F00048784830BC625A463D3E494949007E0121
:1015000001017E2A2A2A2A2A44445F444440514A3F
:10151000444040444A51400000FF0103E080FF0086
:101520000008086B6B083612362436060F090F06C2
:10153000000018180000001010003040FF010100EA
:101540001F01011E00191D1712003C3C3C3C00000D
:1015500000000000000000003E5B4F5B3E3E6B4F12
:101560006B3E1C3E7C3E1C183C7E3C181C577D5735
:101570001C1C5E7F5E1C00183C1800FFE7C3E7FFE1
:101580000018241800FFE7DBE7FF30483A060E2674
:1015900029792926407F050507407F05253F5A3CCC
:1015A000E73C5A7F3E1C1C08081C1C3E7F14227F0F
:1015B00022145F5F005F5F06097F017F00668995E7
:1015C0006A606060606094A2FFA29408047E0408D0
:1015D00010207E201008082A1C08081C2A08081E53
:1015E000101010100C1E0C1E0C30383E3830060E39
:1015F0003E0E06000000000000005F000000070033
:101600000700147F147F14242A7F2A1223130864EE
:101610006236495620500008070300001C22410092
:101620000041221C002A1C7F1C2A08083E080800D2
:101630008070300008080808080000606000201072
:101640000804023E5149453E00427F40007249492C
:1016500049462141494D331814127F10274545450D
:10166000393C4A494931412111090736494949362E
:10167000464949291E0000140000004034000000C3
:1016800008142241141414141400412214080201F5
:101690005909063E415D594E7C1211127C7F494921
:1016A00049363E414141227F4141413E7F494949BE
:1016B000417F090909013E414151737F0808087FB4
:1016C00000417F41002040413F017F081422417FBB
:1016D000404040407F021C027F7F0408107F3E4153
:1016E00041413E7F090909063E4151215E7F0919AA
:1016F0002946264949493203017F01033F404040C2
:101700003F1F2040201F3F4038403F6314081463B0
:1017100003047804036159494D43007F414141026C
:1017200004081020004141417F04020102044040AE
:10173000404040000307080020545478407F28446C
:1017400044383844444428384444287F3854545456
:101750001800087E090218A4A49C787F0804047865
:1017600000447D40002040403D007F1028440000A0
:10177000417F40007C047804787C08040478384475
:10178000444438FC1824241818242418FC7C080429
:101790000408485454542404043F44243C4040204A
:1017A0007C1C2040201C3C4030403C4428102844F5
:1017B0004C9090907C4464544C44000836410000A6
:1017C00000770000004136080002010204023C26B6
:1017D00023263C1EA1A161123A4040207A3854547D
:1017E0005559215555794122545478422155547800
:1017F0004020545579400C1E527212395555555996
:10180000395454545939555454580000457C4100BA
:1018100002457D420001457C407D1211127DF02879
:101820002528F07C545545002054547C547C0A09EA
:101830007F4932494949323A4444443A324A484855
:10184000303A4141217A3A42402078009DA0A07D63
:101850003D4242423D3D4040403D3C24FF2424481F
:101860007E4943662B2FFC2F2BFF0929F620C088C9
:101870007E090320545479410000447D413048489A
:101880004A32384040227A007A0A0A727D0D1931B4
:101890007D2629292F28262929292630484D402010
:1018A000380808080808080808382F10C8ACBA2FEC
:1018B000102834FA00007B000008142A1422221495
:1018C0002A14085500550055AA55AA55AAFF55FFD8
:1018D00055FF000000FF00101010FF00141414FF4B
:1018E000001010FF00FF1010F010F0141414FC0092
:1018F0001414F700FF0000FF00FF1414F404FC149C
:101900001417101F10101F101F1414141F00101094
:1019100010F0000000001F101010101F1010101009
:10192000F010000000FF101010101010101010FF29
:1019300010000000FF140000FF00FF00001F101740
:101940000000FC04F414141710171414F404F40029
:1019500000FF00F714141414141414F700F71414EF
:1019600014171410101F101F141414F4141010F076
:1019700010F000001F101F0000001F14000000FCEA
:10198000140000F010F01010FF10FF141414FF14D6
:101990001010101F00000000F010FFFFFFFFFFF00D
:1019A000F0F0F0F0FFFFFF0000000000FFFF0F0F5E
:1019B0000F0F0F3844443844FC4A4A4A347E02022E
:1019C0000606027E027E0263554941633844443C68
:1019D00004407E201E2006027E020299A5E7A599FA
:1019E0001C2A492A1C4C7201724C304A4D4D303031
:1019F00048784830BC625A463D3E494949007E011C
:101A000001017E2A2A2A2A2A44445F444440514A3A
:101A1000444040444A51400000FF0103E080FF0081
:101A20000008086B6B083612362436060F090F06BD
:101A3000000018180000001010003040FF010100E5
:101A40001F01011E00191D1712003C3C3C3C000008
:101A500000000000000000003E5B4F5B3E3E6B4F0D
:101A60006B3E1C3E7C3E1C183C7E3C181C577D5730
:101A70001C1C5E7F5E1C00183C1800FFE7C3E7FFDC
:101A80000018241800FFE7DBE7FF30483A060E266F
:101A900029792926407F050507407F05253F5A3CC7
:101AA000E73C5A7F3E1C1C08081C1C3E7F14227F0A
:101AB00022145F5F005F5F06097F017F00668995E2
:101AC0006A606060606094A2FFA29408047E0408CB
:101AD00010207E201008082A1C08081C2A08081E4E
:101AE000101010100C1E0C1E0C30383E3830060E34
:101AF0003E0E06000000000000005F00000007002E
:101B00000700147F147F14242A7F2A1223130864E9
:101B10006236495620500008070300001C2241008D
:101B20000041221C002A1C7F1C2A08083E080800CD
:101B3000807030000808080808000060600020106D
:101B40000804023E5149453E00427F400072494927
:101B500049462141494D331814127F102745454508
:101B6000393C4A4949314121110907364949493629
:101B7000464949291E0000140000004034000000BE
:101B800008142241141414141400412214080201F0
:101B90005909063E415D594E7C1211127C7F49491C
:101BA00049363E414141227F4141413E7F494949B9
:101BB000417F090909013E414151737F0808087FAF
:101BC00000417F41002040413F017F081422417FB6
:101BD000404040407F021C027F7F0408107F3E414E
:101BE00041413E7F090909063E4151215E7F0919A5
:101BF0002946264949493203017F01033F404040BD
:101C00003F1F2040201F3F4038403F6314081463AB
:101C100003047804036159494D43007F4141410267
:101C200004081020004141417F04020102044040A9
:101C3000404040000307080020545478407F284467
:101C400044383844444428384444287F3854545451
:101C50001800087E090218A4A49C787F0804047860
:101C600000447D40002040403D007F10284400009B
:101C7000417F40007C047804787C08040478384470
:101C8000444438FC1824241818242418FC7C080424
:101C90000408485454542404043F44243C40402045
:101CA0007C1C2040201C3C4030403C4428102844F0
:101CB0004C9090907C4464544C44000836410000A1
:101CC00000770000004136080002010204023C26B1
:101CD00023263C1EA1A161123A4040207A38545478
:101CE00055592155557941225454784221555478FB
:101CF0004020545579400C1E527212395555555991
:101D0000395454545939555454580000457C4100B5
:101D100002457D420001457C407D1211127DF02874
:101D20002528F07C545545002054547C547C0A09E5
:101D30007F4932494949323A4444443A324A484850
:101D4000303A4141217A3A42402078009DA0A07D5E
:101D50003D4242423D3D4040403D3C24FF2424481A
:101D60007E4943662B2FFC2F2BFF0929F620C088C4
:101D70007E090320545479410000447D4130484895
:101D80004A32384040227A007A0A0A727D0D1931AF
:101D90007D2629292F28262929292630484D40200B
:101DA000380808080808080808382F10C8ACBA2FE7
:101DB000102834FA00007B000008142A1422221490
:101DC0002A14085500550055AA55AA55AAFF55FFD3
:101DD00055FF000000FF00101010FF00141414FF46
:101DE000001010FF00FF1010F010F0141414FC008D
:101DF0001414F700FF0000FF00FF1414F404FC1497
:101E00001417101F10101F101F1414141F0010108F
:101E100010F0000000001F101010101F1010101004
:101E2000F010000000FF101010101010101010FF24
:101E300010000000FF140000FF00FF00001F10173B
:101E40000000FC04F414141710171414F404F40024
:101E500000FF00F714141414141414F700F71414EA
:101E600014171410101F101F141414F4141010F071
:101E700010F000001F101F0000001F14000000FCE5
:101E8000140000F010F01010FF10FF141414FF14D1
:101E90001010101F00000000F010FFFFFFFFFFF008
:101EA000F0F0F0F0FFFFFF0000000000FFFF0F0F59
:101EB0000F0F0F3844443844FC4A4A4A347E020229
:101EC0000606027E027E0263554941633844443C63
:101ED00004407E201E2006027E020299A5E7A599F5
:101EE0001C2A492A1C4C7201724C304A4D4D30302C
:101EF00048784830BC625A463D3E494949007E0117
:101F000001017E2A2A2A2A2A44445F444440514A35
:101F1000444040444A51400000FF0103E080FF007C
:101F20000008086B6B083612362436060F090F06B8
:101F3000000018180000001010003040FF010100E0
:101F40001F01011E00191D1712003C3C3C3C000003
:101F500000000000000000003E5B4F5B3E3E6B4F08
:101F60006B3E1C3E7C3E1C183C7E3C181C577D572B
:101F70001C1C5E7F5E1C00183C1800FFE7C3E7FFD7
:101F80000018241800FFE7DBE7FF30483A060E266A
:101F900029792926407F050507407F05253F5A3CC2
:101FA000E73C5A7F3E1C1C08081C1C3E7F14227F05
:101FB00022145F5F005F5F06097F017F00668995DD
:101FC0006A606060606094A2FFA29408047E0408C6
:101FD00010207E201008082A1C08081C2A08081E49
:101FE000101010100C1E0C1E0C30383E3830060E2F
:101FF0003E0E06000000000000005F000000070029
:102000000700147F147F14242A7F2A1223130864E4
:102010006236495620500008070300001C22410088
:102020000041221C002A1C7F1C2A08083E080800C8
:102030008070300008080808080000606000201068
:102040000804023E5149453E00427F400072494922
:1020500049462141494D331814127F102745454503
:10206000393C4A4949314121110907364949493624
:10207000464949291E0000140000004034000000B9
:1020800008142241141414141400412214080201EB
:102090005909063E415D594E7C1211127C7F494917
:1020A00049363E414141227F4141413E7F494949B4
:1020B000417F090909013E414151737F0808087FAA
:1020C00000417F41002040413F017F081422417FB1
:1020D000404040407F021C027F7F0408107F3E4149
:1020E00041413E7F090909063E4151215E7F0919A0
:1020F0002946264949493203017F01033F404040B8
:102100003F1F2040201F3F4038403F6314081463A6
:1021100003047804036159494D43007F4141410262
:1021200004081020004141417F04020102044040A4
:10213000404040000307080020545478407F284462
:1021400044383844444428384444287F385454544C
:102150001800087E090218A4A49C787F080404785B
:1021600000447D40002040403D007F102844000096
:10217000417F40007C047804787C0804047838446B
:10218000444438FC1824241818242418FC7C08041F
:102190000408485454542404043F44243C40402040
:1021A0007C1C2040201C3C4030403C4428102844EB
:1021B0004C9090907C4464544C440008364100009C
:1021C00000770000004136080002010204023C26AC
:1021D00023263C1EA1A161123A4040207A38545473
:1021E00055592155557941225454784221555478F6
:1021F0004020545579400C1E52721239555555598C
:10220000395454545939555454580000457C4100B0
:1022100002457D420001457C407D1211127DF0286F
:102220002528F07C545545002054547C547C0A09E0
:102230007F4932494949323A4444443A324A48484B
:10224000303A4141217A3A42402078009DA0A07D59
:102250003D4242423D3D4040403D3C24FF24244815
:102260007E4943662B2FFC2F2BFF0929F620C088BF
:102270007E090320545479410000447D4130484890
:102280004A32384040227A007A0A0A727D0D1931AA
:102290007D2629292F28262929292630484D402006
:1022A000380808080808080808382F10C8ACBA2FE2
:1022B000102834FA00007B000008142A142222148B
:1022C0002A14085500550055AA55AA55AAFF55FFCE
:1022D00055FF000000FF00101010FF00141414FF41
:1022E000001010FF00FF1010F010F0141414FC0088
:1022F0001414F700FF0000FF00FF1414F404FC1492
:102300001417101F10101F101F1414141F0010108A
:1023100010F0000000001F101010101F10101010FF
:10232000F010000000FF101010101010101010FF1F
:1023300010000000FF140000FF00FF00001F101736
:102340000000FC04F414141710171414F404F4001F
:1023500000FF00F714141414141414F700F71414E5
:1023600014171410101F101F141414F4141010F06C
:1023700010F000001F101F0000001F14000000FCE0
:10238000140000F010F01010FF10FF141414FF14CC
:102390001010101F00000000F010FFFFFFFFFFF003
:1023A000F0F0F0F0FFFFFF0000000000FFFF0F0F54
:1023B0000F0F0F3844443844FC4A4A4A347E020224
:1023C0000606027E027E0263554941633844443C5E
:1023D00004407E201E2006027E020299A5E7A599F0
:1023E0001C2A492A1C4C7201724C304A4D4D303027
:1023F00048784830BC625A463D3E494949007E0112
:1024000001017E2A2A2A2A2A44445F444440514A30
:10241000444040444A51400000FF0103E080FF0077
:102420000008086B6B083612362436060F090F06B3
:10243000000018180000001010003040FF010100DB
:102440001F01011E00191D1712003C3C3C3C0000FE
:1024500000000000000000003E5B4F5B3E3E6B4F03
:102460006B3E1C3E7C3E1C183C7E3C181C577D5726
:102470001C1C5E7F5E1C00183C1800FFE7C3E7FFD2
:102480000018241800FFE7DBE7FF30483A060E2665
:1024900029792926407F050507407F05253F5A3CBD
:1024A000E73C5A7F3E1C1C08081C1C3E7F14227F00
:1024B00022145F5F005F5F06097F017F00668995D8
:1024C0006A606060606094A2FFA29408047E0408C1
:1024D00010207E201008082A1C08081C2A08081E44
:1024E000101010100C1E0C1E0C30383E3830060E2A
:1024F0003E0E06000000000000005F000000070024
:102500000700147F147F14242A7F2A1223130864DF
:102510006236495620500008070300001C22410083
:102520000041221C002A1C7F1C2A08083E080800C3
:102530008070300008080808080000606000201063
:102540000804023E5149453E00427F40007249491D
:1025500049462141494D331814127F1027454545FE
:10256000393C4A494931412111090736494949361F
:10257000464949291E0000140000004034000000B4
:1025800008142241141414141400412214080201E6
:102590005909063E415D594E7C1211127C7F494912
:1025A00049363E414141227F4141413E7F494949AF
:1025B000417F090909013E414151737F0808087FA5
:1025C00000417F41002040413F017F081422417FAC
:1025D000404040407F021C027F7F0408107F3E4144
:1025E00041413E7F090909063E4151215E7F09199B
:1025F0002946264949493203017F01033F404040B3
:102600003F1F2040201F3F4038403F6314081463A1
:1026100003047804036159494D43007F414141025D
:1026200004081020004141417F040201020440409F
:10263000404040000307080020545478407F28445D
:1026400044383844444428384444287F3854545447
:102650001800087E090218A4A49C787F0804047856
:1026600000447D40002040403D007F102844000091
:10267000417F40007C047804787C08040478384466
:10268000444438FC1824241818242418FC7C08041A
:102690000408485454542404043F44243C4040203B
:1026A0007C1C2040201C3C4030403C4428102844E6
:1026B0004C9090907C4464544C4400083641000097
:1026C00000770000004136080002010204023C26A7
:1026D00023263C1EA1A161123A4040207A3854546E
:1026E00055592155557941225454784221555478F1
:1026F0004020545579400C1E527212395555555987
:10270000395454545939555454580000457C4100AB
:1027100002457D420001457C407D1211127DF0286A
:102720002528F07C545545002054547C547C0A09DB
:102730007F4932494949323A4444443A324A484846
:10274000303A4141217A3A42402078009DA0A07D54
:102750003D4242423D3D4040403D3C24FF24244810
:102760007E4943662B2FFC2F2BFF0929F620C088BA
:102770007E090320545479410000447D413048488B
:102780004A32384040227A007A0A0A727D0D1931A5
:102790007D2629292F28262929292630484D402001
:1027A000380808080808080808382F10C8ACBA2FDD
:1027B000102834FA00007B000008142A1422221486
:1027C0002A14085500550055AA55AA55AAFF55FFC9
:1027D00055FF000000FF00101010FF00141414FF3C
:1027E000001010FF00FF1010F010F0141414FC0083
:1027F0001414F700FF0000FF00FF1414F404FC148D
:102800001417101F10101F101F1414141F00101085
:1028100010F0000000001F101010101F10101010FA
:10282000F010000000FF101010101010101010FF1A
:1028300010000000FF140000FF00FF00001F101731
:102840000000FC04F414141710171414F404F4001A
:1028500000FF00F714141414141414F700F71414E0
:1028600014171410101F101F141414F4141010F067
:1028700010F000001F101F0000001F14000000FCDB
:10288000140000F010F01010FF10FF141414FF14C7
:102890001010101F00000000F010FFFFFFFFFFF0FE
:1028A000F0F0F0F0FFFFFF0000000000FFFF0F0F4F
:1028B0000F0F0F3844443844FC4A4A4A347E02021F
:1028C0000606027E027E0263554941633844443C59
:1028D00004407E201E2006027E020299A5E7A599EB
:1028E0001C2A492A1C4C7201724C304A4D4D303022
:1028F00048784830BC625A463D3E494949007E010D
:1029000001017E2A2A2A2A2A44445F444440514A2B
:10291000444040444A51400000FF0103E080FF0072
:102920000008086B6B083612362436060F090F06AE
:10293000000018180000001010003040FF010100D6
:102940001F01011E00191D1712003C3C3C3C0000F9
:102950000000000011241FBECFEFD1E2DEBFCDBFCB
:1029600000E00CBF18E1A0E0B2E0E2E1FCE400E02E
:102970000BBF02C007900D92A430B107D9F728E130
:10298000A4E0B8E101C01D92A432B207E1F70E94B1
:10299000FC150C9407260C9400000F931F93CF9303
:1029A000DF93CDB7DEB72D970FB6F894DEBF0FBE1D
:1029B000CDBF8B877D876C878091181890911918EF
:1029C00099230CF40196959587959C838B83809130
:1029D00013189091141899230CF4019695958795E6
:1029E0009E838D838091131890911418209118184C
:1029F00030911918281739070CF4C90198878F836B
:102A000082E090E09A83898326C089819A81992304
:102A10000CF40196959587959A8789872D813E813B
:102A200089859A85B901681B790B2B813C81898541
:102A30009A85A901481B590BCA01EC85FD8529819E
:102A40003A8149815A818F010E94511E89819A8160
:102A500006969A83898329813A818F8198852817E0
:102A600039079CF2000000002D960FB6F894DEBFE7
:102A70000FBECDBFDF91CF911F910F910895CF93DE
:102A8000DF9300D00F92CDB7DEB769837A838B8353
:102A90009C830BC089819A81AB81BC810397A1097A
:102AA000B10989839A83AB83BC8389819A81AB8185
:102AB000BC81181619061A061B0664F300000000F4
:102AC0000F900F900F900F90DF91CF910895CF93BB
:102AD000DF93CDB7DEB72C970FB6F894DEBF0FBEED
:102AE000CDBF69837A838B839C8349815A816B81B3
:102AF0007C8180ED97E0DC019A01AB010E94CB253F
:102B000069877A878B879C8789859A85AB85BC8501
:102B100089839A83AB83BC8389819A81AB81BC8191
:102B20000597A109B1098D839E83AF83B8876D8115
:102B30007E818F8198850E943F1500002C960FB6EC
:102B4000F894DEBF0FBECDBFDF91CF9108951F92E5
:102B50000F920FB60F9211248F939F93CF93DF9311
:102B6000CDB7DEB79091041881E0992309F080E099
:102B7000809304180000DF91CF919F918F910F9067
:102B80000FBE0F901F9018951F920F920FB60F92C5
:102B90001124CF93DF93CDB7DEB70000DF91CF9143
:102BA0000F900FBE0F901F901895CF93DF93CDB766
:102BB000DEB7F89481E290E02FEFFC01208384E2FD
:102BC00090E02FEFFC0120838DE290E0FC0120815A
:102BD0008DE290E02F7CFC0120838AE690E025E0E6
:102BE000FC0120838DE390E020E3FC0120837894B6
:102BF0000000DF91CF910895CF93DF9300D000D0F4
:102C0000CDB7DEB78FEF9FEF9A8389831C821B823B
:102C10001E821D8260E070E083E090E00E94371623
:102C200060E070E082E090E00E94371660E070E0C3
:102C300084E090E00E9437160E9444190E94762595
:102C400083E00E94DB1880E090E00E94BE206FEFDE
:102C50007FEF8AE00E94CD1480E090E026960FB6C8
:102C6000F894DEBF0FBECDBFDF91CF910895CF9313
:102C7000DF9300D000D0CDB7DEB79C838B837E83FB
:102C80006D832B813C81C901880F991F880F991F83
:102C9000820F931F880F991F80549B4FFC018081E6
:102CA00091819A8389838D819E810197E1F4898145
:102CB0009A81FC018081482F2B813C81C901880FBA
:102CC000991F880F991F820F931F880F991F8C538C
:102CD0009B4FFC0180819181842B282F89819A81CF
:102CE000FC01208320C08D819E81892BE1F48981A4
:102CF0009A81FC018081482F2B813C81C901880F7A
:102D0000991F880F991F820F931F880F991F8C534B
:102D10009B4FFC018081918180958423282F89819C
:102D20009A81FC012083000026960FB6F894DEBF3E
:102D30000FBECDBFDF91CF910895CF93DF9300D029
:102D400000D0CDB7DEB79C838B837E836D832B81D0
:102D50003C81C901880F991F880F991F820F931F0B
:102D6000880F991F8E539B4FFC01808191819A831C
:102D700089838D819E810197E1F489819A81FC018B
:102D80008081482F2B813C81C901880F991F880FB2
:102D9000991F820F931F880F991F8C539B4FFC0123
:102DA00080819181842B282F89819A81FC01208345
:102DB00020C08D819E81892BE1F489819A81FC015B
:102DC0008081482F2B813C81C901880F991F880F72
:102DD000991F820F931F880F991F8C539B4FFC01E3
:102DE0008081918180958423282F89819A81FC019B
:102DF0002083000026960FB6F894DEBF0FBECDBF2D
:102E0000DF91CF910895CF93DF9300D00F92CDB78C
:102E1000DEB79C838B832B813C81C901880F991F6E
:102E2000880F991F820F931F880F991F82549B4F01
:102E3000FC01808191819A83898389819A81FC0137
:102E40008081482F50E02B813C81C901880F991F58
:102E5000880F991F820F931F880F991F8C539B4FC8
:102E6000FC01808191818423952321E0892B09F441
:102E700020E0822F90E00F900F900F900F90DF9145
:102E8000CF910895CF93DF9300D00F92CDB7DEB7E7
:102E90009A8389837C836B8389819A8190930F18AD
:102EA00080930E188B819C8190930618809305184F
:102EB00000000F900F900F900F90DF91CF91089529
:102EC000CF93DF930F920F92CDB7DEB79A838983AA
:102ED00089819A819093121880931118809111180A
:102EE00090911218909317188093161800000F9065
:102EF0000F90DF91CF910895CF93DF930F92CDB7CD
:102F0000DEB789838981882311F0898101C081E03E
:102F1000809307188981882311F0898101C081E09D
:102F20008093151800000F90DF91CF910895CF93F3
:102F3000DF930F92CDB7DEB789838EE490E02981CD
:102F4000FC01208300008DE490E0FC018081882357
:102F5000D4F7000000000F90DF91CF910895CF9338
:102F6000DF93CDB7DEB7F8948CE490E0209123187E
:102F7000FC0120838DE490E020911E18FC01208349
:102F80000000DF91CF910895CF93DF9300D000D060
:102F9000CDB7DEB78B837D836C834E830E94AF17E2
:102FA00060E070E085E390E00E949D1660E070E0D4
:102FB0008EE290E00E949D168B810E94971761E03F
:102FC00070E08EE290E00E949D161A82198212C073
:102FD0008C819D81FC01208131E0320F8C819D81AB
:102FE000FC013083822F0E94971789819A81019674
:102FF0009A8389838E81882F90E029813A812817CE
:10300000390734F361E070E085E390E00E949D169B
:10301000000026960FB6F894DEBF0FBECDBFDF913D
:10302000CF910895CF93DF9300D000D000D0CDB7DB
:10303000DEB78E8378876F8349870E94AF1760E081
:1030400070E085E390E00E949D1660E070E08EE203
:1030500090E00E949D168E810E94971761E070E0BB
:103060008EE290E00E949D161A82198216C08F810E
:1030700098859C012F5F3F4F38872F839C838B83DC
:103080008B819C81FC0184918D838D810E94971797
:1030900089819A8101969A8389838985882F90E016
:1030A00029813A812817390714F361E070E085E33C
:1030B00090E00E949D16000029960FB6F894DEBF9E
:1030C0000FBECDBFDF91CF910895CF93DF9300D096
:1030D0000F92CDB7DEB769837A838B839C8361E0DF
:1030E00070E085E390E00E94371661E070E085E3D0
:1030F00090E00E949D1661E070E08EE290E00E94F8
:10310000371661E070E08EE290E00E949D1610920A
:103110001F1810922018109221181092221881E581
:103120008093231881E080931E18F89461E070E08A
:1031300085E390E00E94371661E070E084E390E060
:103140000E94371661E070E083E390E00E9437163A
:10315000789461E070E080E390E00E94371661E0CF
:1031600070E080E390E00E949D1664E670E080E0ED
:1031700090E00E94671560E070E080E390E00E94BC
:103180009D1664E670E080E090E00E94671561E0C3
:1031900070E080E390E00E949D1668EC70E080E0B3
:1031A00090E00E94671500000F900F900F900F9015
:1031B000DF91CF910895CF93DF930F92CDB7DEB714
:1031C00089838981837080930B1880910B18882FD5
:1031D00090E083309105E9F1843091050CF048C00E
:1031E0008230910539F1833091050CF041C0009790
:1031F00019F0019781F03CC088E4898380EF90E06A
:10320000909319188093181880E491E09093141803
:10321000809313182DC088E2898380E491E0909315
:1032200019188093181880EF90E0909314188093E9
:1032300013181EC088E8898380EF90E090931918D6
:103240008093181880E491E09093141880931318D9
:103250000FC088EE898380E491E0909319188093E1
:10326000181880EF90E090931418809313180000C2
:1032700041E0CE010196BC0186E30E94C417000024
:103280000F90DF91CF910895CF93DF93CDB7DEB745
:1032900063970FB6F894DEBF0FBECDBF81E090E01C
:1032A000A0E0B0E08B839C83AD83BE8381E08093FC
:1032B0001018109208188B819C81AD81BE81888B7B
:1032C000998BAA8BBB8B688979898A899B890E9493
:1032D000651880EF90E0909319188093181880E497
:1032E00091E0909314188093131885E290E09093E6
:1032F0000A18809309188BE091E090930D18809341
:103300000C1884EE9FE09A8389832CC089819A816E
:103310009C012F5F3F4F3A8329839C878B878B8546
:103320009C85FC0184918D878D858E878E858F7716
:103330008F8789819A814F85BC018A850E941218E6
:103340008F85882F90E029813A81820F931F9A837D
:1033500089838E85882334F466E970E080E090E00C
:103360000E94671589819A819C012F5F3F4F3A83A4
:10337000298398878F838F819885FC018491898721
:1033800089858A878A85882309F0C0CF00000000DC
:1033900063960FB6F894DEBF0FBECDBFDF91CF911D
:1033A0000895CF93DF930F92CDB7DEB7898360E0A6
:1033B00070E08EE290E00E949D1689810E9497172E
:1033C00061E070E08EE290E00E949D1600000F9098
:1033D000DF91CF910895CF93DF9300D0CDB7DEB7C3
:1033E0009A8389836B8389819A81292F33278EE47D
:1033F00090E0FC01208300008DE490E0FC018081DE
:103400008823D4F78EE490E02981FC01208300001A
:103410008DE490E0FC0180818823D4F70000000057
:103420000F900F900F90DF91CF9108950F93CF934E
:10343000DF93CDB7DEB761970FB6F894DEBF0FBE4E
:10344000CDBF9E838D8378876F835A8749873C875A
:103450002B870D872D813E8189859A85820F931F49
:1034600001979A8389832F8138858B859C85820F6C
:10347000931F01979C838B838AE20E94D1198D81CF
:103480009E816D850E94EB1989819A816D850E94CC
:10349000EB198BE20E94D1198F8198856D850E946E
:1034A000EB198B819C816D850E94EB198CE20E9447
:1034B000D1198D85882379F08D85282F30E040E063
:1034C00050E02E873F87488B598B6E857F85888992
:1034D00099890E946715000061960FB6F894DEBFC7
:1034E0000FBECDBFDF91CF910F910895AF92CF92D4
:1034F000EF920F931F93CF93DF93CDB7DEB7629711
:103500000FB6F894DEBF0FBECDBF98878F837A8742
:1035100069874B873D872C871F870E87E88AC98A72
:10352000AA8A80911818909119182F813885281728
:1035300039070CF027C18091131890911418298530
:103540003A85281739070CF01DC18889282F30E0EB
:10355000C901880F991F820F931F880F991F9C0123
:103560008F819885820F931F181619060CF00AC1D7
:103570008989882F90E09C01220F331F220F331F6F
:10358000220F331F89859A85820F931F18161906FB
:103590000CF0F8C080910818882331F48B85803BAB
:1035A00018F08B858F5F8B8760E070E085E390E09B
:1035B0000E949D161982DBC08B85282F30E0C9013F
:1035C000880F991F880F991F280F391F8981082E8E
:1035D000000C990B820F931F8D5A9A4E9D838C83FA
:1035E0008C819D81FC0184918E838E818A831B82D4
:1035F000B7C08A81882F90E081709927892B09F4C0
:1036000051C088898130D1F489898130B9F48B81A6
:10361000282F880F330B89859A85B901680F791F88
:103620008981282F880F330B8F819885820F931FF4
:103630004C855D852A890E9430218CC08989A82FFC
:10364000B0E08889E82FF0E08B81482F880F550B78
:103650008989882F90E0489F9001499F300D589F9D
:10366000300D112489859A85B901680F791F8981E8
:10367000482F880F550B8889882F90E0489F90012C
:10368000499F300D589F300D11248F819885820FEE
:10369000931F2C853D85EA8889019D01AF010E9419
:1036A0003D1D58C02E853F858C859D85281739077F
:1036B00009F450C088898130D1F489898130B9F406
:1036C0008B81282F880F330B89859A85B901680F64
:1036D000791F8981282F880F330B8F819885820F5E
:1036E000931F4E855F852A890E94302133C08989C6
:1036F000A82FB0E08889E82FF0E08B81482F880F51
:10370000550B8989882F90E0489F9001499F300D83
:10371000589F300D112489859A85B901680F791F4A
:103720008981482F880F550B8889882F90E0489F02
:103730009001499F300D589F300D11248F8198853D
:10374000820F931F2E853F85EA8889019D01AF0175
:103750000E943D1D8B818F5F8B838A8186958A8332
:103760008B8188300CF445CF89818F5F8983898173
:1037700085300CF421CF61E070E085E390E00E9499
:103780009D1601C0000062960FB6F894DEBF0FBE12
:10379000CDBFDF91CF911F910F91EF90CF90AF9060
:1037A0000895AF92CF92EF920F931F93CF93DF9331
:1037B00000D00F920F92CDB7DEB789837B836A83E7
:1037C0004C832D8389818A30C9F410920F1810928E
:1037D0000E188C81882F90E09C01220F331F220F3E
:1037E000331F220F331F8091051890910618820F06
:1037F000931F909306188093051862C089818D30BD
:1038000009F45EC080911018882381F18C81282FE3
:1038100030E0C901880F991F820F931F880F991FED
:103820009C0180910E1890910F18280F391F8091DC
:1038300018189091191882179307C4F410920F1852
:1038400010920E188C81882F90E09C01220F331F5C
:10385000220F331F220F331F8091051890910618F5
:10386000820F931F909306188093051840911118AA
:10387000509112182A813B816091051870910618A9
:1038800080910E1890910F18AD80CC80EC808A0149
:1038900049810E94761A8C81282F30E0C901880F57
:1038A000991F820F931F880F991F9C0180910E18FA
:1038B00090910F18820F931F90930F1880930E18FA
:1038C00000000F900F900F900F900F90DF91CF910D
:1038D0001F910F91EF90CF90AF900895CF93DF930A
:1038E00000D000D00F920F92CDB7DEB79C838B83B0
:1038F0007E836D834F8328871A82198216C089813F
:103900009A812B813C81820F931FFC018081382F8B
:103910008D819E8128854F81BC01832F0E94D11B00
:1039200089819A8101969A83898389819A812B81E1
:103930003C81820F931FFC018081882301F70000E6
:10394000000028960FB6F894DEBF0FBECDBFDF9102
:10395000CF910895EF920F931F93CF93DF93CDB73D
:10396000DEB72F970FB6F894DEBF0FBECDBF9E8394
:103970008D8378876F835A8749873C872B871E877B
:103980000D87EF862D813E8189859A852817390715
:1039900011F52F8138858B859C858217930760F4FC
:1039A0008F8198859C838B838B859C8598878F835B
:1039B0008B819C819C878B872B853C854D815E818B
:1039C0006F8178858D819E81ED85FE85EF848F01E5
:1039D0000E94742145C02F8138858B859C852817CE
:1039E000390711F52D813E8189859A8582179307C4
:1039F00060F48D819E819A83898389859A859E83CF
:103A00008D8389819A819A8789872F813885498515
:103A10005A856F8178858D819E81ED85FE85EF8445
:103A20008F010E9474211CC00E94AF1760E070E0FB
:103A300085E390E00E949D162B853C8549855A853B
:103A40006F8178858D819E81ED85FE85EF848F0164
:103A50000E94742161E070E085E390E00E949D1671
:103A600000002F960FB6F894DEBF0FBECDBFDF91DA
:103A7000CF911F910F91EF900895EF920F931F93A5
:103A8000CF93DF93CDB7DEB767970FB6F894DEBF5D
:103A90000FBECDBF9E838D8378876F835A874987FA
:103AA0003C872B871E870D87EF8689859A85892B12
:103AB00009F4EAC08B859C85892B09F4E5C08985CA
:103AC0009A85992384F489859A8501962D813E8172
:103AD000820F931F9E838D8389859A859195819509
:103AE00091099A87898780911818909119182D81CA
:103AF0003E81281739070CF0C7C08B859C85992318
:103B000084F48B859C8501962F813885820F931FC5
:103B100098878F838B859C859195819591099C874A
:103B20008B8780911318909114182F81388528174E
:103B300039070CF0A9C02D813E8189859A85820FB5
:103B4000931F01979A83898389819A8199230CF421
:103B50009BC02F8138858B859C85820F931F019791
:103B60009C838B838B819C8199230CF48DC08D81E8
:103B70009E8199233CF41E821D8289819A8101963F
:103B80009A8789878F81988599233CF418861F82AC
:103B90008B819C8101969C878B87809118189091CE
:103BA000191829813A812817390764F020911818CB
:103BB000309119188D819E81A901481B590BCA01AA
:103BC0009A87898780911318909114182B813C81D2
:103BD0002817390764F020911318309114188F8139
:103BE0009885B901681B790BCB019C878B878091E5
:103BF000091890910A18FC01208180910918909170
:103C00000A182E7FFC0120832B853C8549855A8527
:103C10006F8178858D819E810F850E94161A8F8510
:103C2000E82FF0E089859A85092E000CAA0BBB0BC2
:103C30002B853C85A901330F660B770B488B598B7D
:103C40006A8B7B8B9C01AD01688979898A899B8904
:103C50000E949C256C8B7D8B8E8B9F8B8D859E858A
:103C60009F014C895D896E897F890E94E520809142
:103C7000091890910A18FC012081809109189091EF
:103C80000A182160FC012083000067960FB6F894A3
:103C9000DEBF0FBECDBFDF91CF911F910F91EF908F
:103CA00008950F931F93CF93DF9300D000D000D0DF
:103CB0000F92CDB7DEB79A8389837C836B835E8353
:103CC0004D8338872F831A8709870E94AF1760E0DA
:103CD00070E085E390E00E949D1629853A854D812C
:103CE0005E816B817C8189819A8100E010E00E9475
:103CF000B1222B813C818F819885820F931FBC015B
:103D00006150710929853A854D815E8189819A8149
:103D100000E010E00E94B12229853A854F81588544
:103D20006B817C8189819A8100E010E00E946E2283
:103D300029813A818D819E81820F931F0197298568
:103D40003A854F8158856B817C8100E010E00E94AC
:103D50006E2261E070E085E390E00E949D16000015
:103D60002A960FB6F894DEBF0FBECDBFDF91CF917C
:103D70001F910F910895CF92DF92EF92FF920F93D0
:103D80001F93CF93DF9300D000D000D0CDB7DEB724
:103D90009A8389837C836B835E834D8338872F83EB
:103DA00009870E94AF1760E070E085E390E00E9411
:103DB0009D168985E82FF0E08D819E81880F991FDF
:103DC000AC014F5F5F4F2B813C818D819E81B9019A
:103DD000681B790B2F81388589819A818F010E9418
:103DE0006E228985E82FF0E02F8138854D815E8134
:103DF0006B817C8189819A816F01790100E010E0FB
:103E000023E030E00E94F42261E070E085E390E07E
:103E10000E949D16000029960FB6F894DEBF0FBED3
:103E2000CDBFDF91CF911F910F91FF90EF90DF9069
:103E3000CF9008950F93CF93DF93CDB7DEB76397FD
:103E40000FB6F894DEBF0FBECDBF9C878B877E87F1
:103E50006D87588B4F873A8B298B0B8B21E030E095
:103E60008F859889A901481B590BCA019A838983B8
:103E700081E090E09C838B832F85388980E090E0FF
:103E8000821B930B880F991F9E838D8318861F8238
:103E90008F8598899A8789870E94AF1760E070E0C4
:103EA00085E390E00E949D162D853E858F8598893B
:103EB000B901680F791F49895A898B859C852B899F
:103EC0000E9430212D853E858F859889B901681B18
:103ED000790B49895A898B859C852B890E943021D1
:103EE0002B853C858F859889820F931F49895A8934
:103EF0006D857E852B890E9430212B853C858F85A1
:103F00009889A901481B590BCA0149895A896D85AD
:103F10007E852B890E943021C0C089819A81992396
:103F200094F089859A8501979A8789878D819E81EA
:103F300002969E838D8329813A818D819E81820F95
:103F4000931F9A8389838F819885019698878F83A1
:103F50008B819C8102969C838B8329813A818B8102
:103F60009C81820F931F9A8389832D853E85898545
:103F70009A85B901680F791F2B853C858F819885BB
:103F8000820F931F49895A892B890E9430212D85E0
:103F90003E8589859A85B901680F791F2B853C85F7
:103FA0008F819885A901481B590BCA0149895A89F3
:103FB0002B890E9430212D853E8589859A85B901FE
:103FC000681B790B2B853C858F819885820F931F09
:103FD00049895A892B890E9430212D853E85898502
:103FE0009A85B901681B790B2B853C858F81988553
:103FF000A901481B590BCA0149895A892B890E947A
:1040000030212D853E858F819885B901680F791FF4
:104010002B853C8589859A85820F931F49895A890A
:104020002B890E9430212D853E858F819885B9018D
:10403000680F791F2B853C8589859A85A901481BC6
:10404000590BCA0149895A892B890E9430212D8533
:104050003E858F819885B901681B790B2B853C853E
:1040600089859A85820F931F49895A892B890E94D5
:1040700030212D853E858F819885B901681B790B8C
:104080002B853C8589859A85A901481B590BCA0156
:1040900049895A892B890E9430212F813885898549
:1040A0009A85281739070CF438CF61E070E085E372
:1040B00090E00E949D16000063960FB6F894DEBF54
:1040C0000FBECDBFDF91CF910F910895CF92DF92B8
:1040D000EF92FF920F931F93CF93DF93CDB7DEB78D
:1040E0002E970FB6F894DEBF0FBECDBF9A8389839B
:1040F0007C836B835E834D8338872F831A87098780
:10410000FC86EB86DE86CD862F8138854D815E81EB
:104110006B817C8189819A81ED85FE85E12C8F01FF
:104120000E94AA1C2B853C8549855A856F8178851C
:104130008D819E81ED85FE85E12C8F010E94AA1C58
:104140002B813C8149815A816B857C8589859A8543
:10415000ED85FE85E12C8F010E94AA1C00002E96A1
:104160000FB6F894DEBF0FBECDBFDF91CF911F9188
:104170000F91FF90EF90DF90CF900895EF920F9303
:104180001F93CF93DF930F920F92CDB7DEB79A8331
:1041900089832091131830911418809118189091E8
:1041A000191849815A81E12C8A01AC0160E070E064
:1041B00080E090E00E943D1D00000F900F90DF9185
:1041C000CF911F910F91EF900895CF93DF9300D07F
:1041D00000D000D0CDB7DEB79C838B834D835E8348
:1041E0006F83788729878B819C81892F9927898381
:1041F0008B818A8318C08EE490E02981FC012083A2
:1042000000008DE490E0FC0180818823D4F78EE4E7
:1042100090E02A81FC01208300008DE490E0FC0105
:1042200080818823D4F78D819E81AF81B885AC01D0
:10423000BD0141505109610971094D835E836F834E
:104240007887892B8A2B8B2BB1F6000000002996EA
:104250000FB6F894DEBF0FBECDBFDF91CF910895AA
:104260000F93CF93DF9300D000D00F92CDB7DEB77E
:104270009A8389837C836B835E834D832F838981BB
:104280009A81992334F180911818909119182981F5
:104290003A8128173907ECF48B819C819923CCF063
:1042A00080911318909114182B813C81281739079D
:1042B00084F46B817C8189819A810F8121E030E0D7
:1042C00041E050E00E94161A8D819E816F810E940C
:1042D000EB19000027960FB6F894DEBF0FBECDBFD6
:1042E000DF91CF910F910895EF920F931F93CF938A
:1042F000DF93CDB7DEB76D970FB6F894DEBF0FBE74
:10430000CDBF9C8B8B8B7E8B6D8B588F4F8B3A8F59
:10431000298F1C8F0B8FED8E298D3A8D8D899E896B
:10432000A901481B590BCA0199231CF49195819549
:104330009109AC012F89388D8B899C89B901681B43
:10434000790BCB0199231CF491958195910921E07A
:10435000841795070CF020E0822F90E09E838D83D8
:104360008D819E81892BC1F08B899C8998878F8351
:104370008D899E899C8B8B8B8F8198859E8B8D8B55
:104380008F89988D9A878987898D9A8D988F8F8B41
:1043900089859A859A8F898F2B893C898F89988DF9
:1043A00082179307C4F48B899C899C878B878F899C
:1043B000988D9C8B8B8B8B859C85988F8F8B8D8913
:1043C0009E899E878D87898D9A8D9E8B8D8B8D85FD
:1043D0009E859A8F898F2F89388D8B899C89A90119
:1043E000481B590BCA01988B8F87298D3A8D8D896F
:1043F0009E89B901681B790BCB0199231CF4919517
:10440000819591099A8B898B8F85988999230CF4D2
:104410000196959587959A8389832D893E89898D03
:104420009A8D281739072CF481E090E09C838B83C8
:104430003FC08FEF9FEF9C838B833AC08D819E811D
:10444000892B51F04B8D5C8D6B897C898D899E8980
:104450002D8D0E94302109C04B8D5C8D6D897E8928
:104460008B899C892D8D0E94302129813A818989EF
:104470009A89A901481B590BCA019A8389838981AA
:104480009A81992384F42D893E898B819C81820FA6
:10449000931F9E8B8D8B29813A818F859889820FFE
:1044A000931F9A8389838B899C8901969C8B8B8B24
:1044B0002B893C898F89988D821793070CF0BECF8A
:1044C000000000006D960FB6F894DEBF0FBECDBFA2
:1044D000DF91CF911F910F91EF900895EF920F937D
:1044E0001F93CF93DF9300D000D000D0CDB7DEB7BD
:1044F0009A8389837C836B835E834D8338872F8384
:1045000009870E94AF1760E070E085E390E00E94A9
:104510009D162B813C818D819E81820F931F9C0172
:1045200021503109EF81F88549815A816B817C8165
:1045300089819A81E9848F010E94742161E070E091
:1045400085E390E00E949D16000029960FB6F8942E
:10455000DEBF0FBECDBFDF91CF911F910F91EF90C6
:104560000895EF920F931F93CF93DF9300D000D065
:1045700000D0CDB7DEB79A8389837C836B835E835B
:104580004D8338872F8309870E94AF1760E070E062
:1045900085E390E00E949D1629813A818D819E815C
:1045A000820F931FAC0141505109EF81F8852B8197
:1045B0003C816B817C8189819A81E9848F010E9491
:1045C000742161E070E085E390E00E949D16000098
:1045D00029960FB6F894DEBF0FBECDBFDF91CF9105
:1045E0001F910F91EF900895CF92EF92FF920F934A
:1045F0001F93CF93DF93CDB7DEB76A970FB6F894CA
:10460000DEBF0FBECDBF988B8F877A8B698B5C8B9B
:104610004B8B2D8B1F8B0E8BF98EE88ECA8E21E073
:1046200030E08B899C89A901481B590BCA019A83E8
:10463000898381E090E09C838B832B893C8980E097
:1046400090E0821B930B880F991F9E838D831886A1
:104650001F828B899C899A8789878F8198859C87FF
:104660008B8789859A859E878D878E899F890196FC
:104670009F8B8E8BD0C089819A81992394F08985F4
:104680009A8501979A8789878D819E8102969E835C
:104690008D8329813A818D819E81820F931F9A8318
:1046A00089838F819885019698878F838B819C81E0
:1046B00002969C838B8329813A818B819C81820F16
:1046C000931F9A83898329853A858F819885281736
:1046D00039070CF448C08D89882F90E081709927A4
:1046E000892BE1F089859A859C01220F331F8E89E1
:1046F0009F89A901480F591F29893A8989859A8577
:10470000B901681B790B2F8538898F819885820FB5
:10471000931F288D398D0A8D0E946E228D89882FD6
:1047200090E082709927892BF1F089859A859C0108
:10473000220F331F8E899F89A901480F591F29898C
:104740003A8989859A85B901681B790B2F85388943
:104750008F819885F901E81BF90BCF01288D398DE0
:104760000A8D0E946E2229853A858D859E8528179F
:10477000390709F44CC08D89882F90E08170992702
:10478000892BE1F08B859C859C01220F331F8E893C
:104790009F89A901480F591F29893A898B859C85D2
:1047A000B901681B790B2F8538898D859E85820F0D
:1047B000931F288D398D0A8D0E946E228D89882F36
:1047C00090E082709927892BF1F08B859C859C0164
:1047D000220F331F8E899F89A901480F591F2989EC
:1047E0003A898B859C85B901681B790B2F8538899F
:1047F0008D859E85F901E81BF90BCF01288D398D38
:104800000A8D0E946E2289859A859E878D878F8169
:1048100098859C878B872F81388589859A8528176D
:1048200039070CF428CF000000006A960FB6F89400
:10483000DEBF0FBECDBFDF91CF911F910F91FF90D3
:10484000EF90CF900895CF93DF9300D00F920F9207
:10485000CDB7DEB769837A838B839C834D8381ECEC
:1048600090E0FC01208181EC90E02862FC01208333
:1048700082EC90E0FC01208182EC90E02660FC015B
:10488000208384EC90E027E630E0FC013183208334
:1048900000000F900F900F900F900F90DF91CF912D
:1048A0000895CF93DF930F92CDB7DEB789830000D1
:1048B00080EC90E0FC018081882F90E08072992745
:1048C000892BB1F386EC90E02981FC012083000064
:1048D0000F90DF91CF910895CF93DF930F920F92B6
:1048E000CDB7DEB79A8389830BC089819A819C01F9
:1048F0002F5F3F4F3A832983FC0180810E9451241E
:1049000089819A81FC018081882379F780EE97E183
:104910000E94902400000F900F90DF91CF91089596
:10492000CF93DF930F920F92CDB7DEB79A8389832F
:104930000BC089819A819C012F5F3F4F3A83298365
:10494000FC0180810E94512489819A81FC0180812F
:10495000882379F7000000000F900F90DF91CF912E
:104960000895CF93DF93CDB7DEB7000080EC90E0E1
:10497000FC0180818823D4F786EC90E0FC018081E3
:10498000DF91CF910895CF93DF9300D000D00F92A5
:104990000F92CDB7DEB769837A838B839C8389813D
:1049A0009A81AB81BC818D839E83AF83B8876D81F3
:1049B0007E818F8198850E94EB2484EE97E10E948E
:1049C0009024000028960FB6F894DEBF0FBECDBF2E
:1049D000DF91CF9108950F931F93CF93DF93CDB7BE
:1049E000DEB764970FB6F894DEBF0FBECDBF698304
:1049F0007A838B839C8389819A81AB81BC81009768
:104A0000A105B04829F487EE97E10E94902462C086
:104A100089819A81AB81BC81BB2394F48DE20E9491
:104A2000512489819A81AB81BC81B095A0959095E4
:104A300081959F4FAF4FBF4F89839A83AB83BC83D0
:104A400089819A81AB81BC810996A11DB11D4397D3
:104A5000A105B10500F189819A81AB81BC8189876B
:104A60009A87AB87BC870AE010E020E030E06985D8
:104A70007A858B859C85A90198010E94AC25DA0175
:104A8000C9018D839E83AF83B8876D817E818F81BD
:104A900098850E94EB2489819A81AB81BC818D87A6
:104AA0009E87AF87B88B0AE010E020E030E06D858C
:104AB0007E858F859889A90198010E94AC25698B14
:104AC0007A8B8B8B9C8B89899A89AB89BC89805D19
:104AD0000E945124000064960FB6F894DEBF0FBE0A
:104AE000CDBFDF91CF911F910F910895CF93DF93A9
:104AF000CDB7DEB746E060E875E280E090E00E9466
:104B000023240000DF91CF910895CF93DF93CDB799
:104B1000DEB70E9476256AE270E080E090E00E94B5
:104B2000EB2483EF97E10E94902464E670E080E03C
:104B300090E00E946715EFCFDB018F939F930E9457
:104B4000CB25BF91AF91A29F800D911DA39F900D8A
:104B5000B29F900D11240895052E97FB1EF400942A
:104B60000E94C32557FD07D00E94D62507FC03D01D
:104B70004EF40C94C32550954095309521953F4FA8
:104B80004F4F5F4F089590958095709561957F4F39
:104B90008F4F9F4F08950E94F825A59F900DB49FB9
:104BA000900DA49F800D911D11240895A1E21A2E4D
:104BB000AA1BBB1BFD010DC0AA1FBB1FEE1FFF1FC1
:104BC000A217B307E407F50720F0A21BB30BE40B11
:104BD000F50B661F771F881F991F1A9469F7609558
:104BE0007095809590959B01AC01BD01CF01089512
:104BF000A29FB001B39FC001A39F700D811D11241E
:104C0000911DB29F700D811D1124911D0895F8947E
:024C1000FFCFD4
:104C120000002C002D002E00010001002C002D00B0
:104C22002E00020002002C002D002E0010000300B6
:104C32002C002D002E00200004003200330034002E
:104C4200200005002C002D002E00080006000001A7
:104C52000101020108000700000101010201100028
:104C62000800000101010201200009000001010108
:104C7200020140000A0023002400250010000B005E
:104C820023002400250020000C002300240025001E
:104C920040000D0023002400250080000E000301C7
:104CA2000401050102000F000301040105010100D6
:104CB20010000001010102010200110000010101C6
:104CC20002010100120029002A002B000800130033
:104CD20029002A002B000400140029002A002B00BE
:104CE2000200150029002A002B00010016002000F6
:104CF20021002200010017002000210022000200F2
:104D020018002000210022000400190020002100C8
:104D1200220008001A0020002100220010001B00BF
:104D220020002100220020001C002000210022007F
:104D320040001D0020002100220080001E002600ED
:104D42002700280080001F002600270028004000BE
:104D5200200026002700280020002100260027002E
:104D62002800100022002600270028000800230047
:104D7200260027002800040024002600270028001F
:104D82000200250026002700280001002600290035
:104D92002A002B0080002700320033003400040078
:104DA20028003200330034000200290032003300B0
:104DB200340001002A0009010A010B0180002B00C6
:104DC20009010A010B0140002C0009010A010B0133
:104DD20020002D0009010A010B0110002E0009011B
:104DE2000A010B0108002F0009010A010B0104004E
:104DF200300009010A010B010200310009010A0118
:104E02000B010100320023002400250008003300BA
:104E12002300240025000400340023002400250080
:104E220002003500230024002500010036002F0077
:104E320030003100010037002F0030003100020045
:104E420038002F0030003100040039002F003000FC
:104E5200310008003A002F003000310010003B0002
:104E62002F003000310020003C002F0030003100C4
:104E720040003D002F003000310080003E0006015E
:104E82000701080101003F000601070108010200B5
:104E92004000060107010801040041000601070164
:104EA2000801080042000601070108011000430042
:104EB200060107010801200044000601070108015C
:104EC20040004500060107010801800000002C0097
:104ED2002D002E00010001002C002D002E000200EA
:104EE20002002C002D002E00100003002C002D00CB
:104EF2002E002000040032003300340020000500A0
:104F02002C002D002E000800060000010101020104
:104F12000800070000010101020110000800000161
:104F2200010102012000090000010101020140000B
:104F32000A0023002400250010000B002300240097
:104F4200250020000C0023002400250040000D0055
:104F520023002400250080000E0003010401050146
:104F620002000F000301040105010100100000010D
:104F72000101020102001100000101010201010010
:104F8200120029002A002B000800130029002A0021
:104F92002B000400140029002A002B000200150037
:104FA20029002A002B000100160020002100220007
:104FB200010017002000210022000200180020003A
:104FC2002100220004001900200021002200080014
:104FD2001A0020002100220010001B0020002100E6
:104FE200220020001C0020002100220040001D00A1
:104FF20020002100220080001E0026002700280039
:1050020080001F0026002700280040002000260004
:105012002700280020002100260027002800100079
:10502200220026002700280008002300260027006F
:105032002800040024002600270028000200250082
:105042002600270028000100260029002A002B0044
:1050520080002700320033003400040028003200B0
:105062003300340002002900320033003400010012
:105072002A0009010A010B0180002B0009010A0123
:105082000B0140002C0009010A010B0120002D0038
:1050920009010A010B0110002E0009010A010B018E
:1050A20008002F0009010A010B0104003000090168
:1050B2000A010B010200310009010A010B01010082
:1050C20032002300240025000800330023002400BE
:1050D20025000400340023002400250002003500CE
:1050E200230024002500010036002F00300031008B
:1050F200010037002F0030003100020038002F007D
:1051020030003100040039002F0030003100080067
:105112003A002F003000310010003B002F00300019
:10512200310020003C002F003000310040003D00E3
:105132002F003000310080003E0006010701080107
:1051420001003F00060107010801020040000601BC
:1051520007010801040041000601070108010800D7
:105162004200060107010801100043000601070181
:105172000801200044000601070108014000450023
:10518200060107010801800000002C002D002E00FE
:10519200010001002C002D002E00020002002C0054
:1051A2002D002E00100003002C002D002E002000E8
:1051B2000400320033003400200005002C002D00D2
:1051C2002E0008000600000101010201080007008C
:1051D20000010101020110000800000101010201A9
:1051E2002000090000010101020140000A00230021
:1051F2002400250010000B002300240025002000BD
:105202000C0023002400250040000D002300240090
:10521200250080000E0003010401050102000F00B9
:105222000301040105010100100000010101020156
:105232000200110000010101020101001200290017
:105242002A002B000800130029002A002B0004006A
:10525200140029002A002B000200150029002A0050
:105262002B0001001600200021002200010017007F
:10527200200021002200020018002000210022004C
:105282000400190020002100220008001A0020005A
:105292002100220010001B0020002100220020001B
:1052A2001C0020002100220040001D0020002100DF
:1052B200220080001E0026002700280080001F0018
:1052C2002600270028004000200026002700280092
:1052D20020002100260027002800100022002600BE
:1052E20027002800080023002600270028000400C9
:1052F200240026002700280002002500260027009F
:1053020028000100260029002A002B008000270027
:10531200320033003400040028003200330034002D
:105322000200290032003300340001002A00090182
:105332000A010B0180002B0009010A010B01400048
:105342002C0009010A010B0120002D0009010A01AC
:105352000B0110002E0009010A010B0108002F00A9
:1053620009010A010B010400300009010A010B01C5
:105372000200310009010A010B0101003200230081
:105382002400250008003300230024002500040027
:1053920034002300240025000200350023002400ED
:1053A2002500010036002F003000310001003700D7
:1053B2002F0030003100020038002F003000310091
:1053C200040039002F003000310008003A002F009D
:1053D2003000310010003B002F003000310020006F
:1053E2003C002F003000310040003D002F00300013
:1053F200310080003E0006010701080101003F0064
:105402000601070108010200400006010701080128
:1054120004004100060107010801080042000601DC
:1054220007010801100043000601070108012000DE
:10543200440006010701080140004500060107017A
:105442000801800000002C002D002E000100010048
:105452002C002D002E00020002002C002D002E0038
:10546200100003002C002D002E002000040032004A
:1054720033003400200005002C002D002E0008000F
:1054820006000001010102010800070000010101FC
:1054920002011000080000010101020120000900C0
:1054A20000010101020140000A002300240025003E
:1054B20010000B0023002400250020000C00230014
:1054C2002400250040000D00230024002500800058
:1054D2000E0003010401050102000F000301040193
:1054E200050101001000000101010201020011008A
:1054F2000001010102010100120029002A002B0013
:105502000800130029002A002B00040014002900BF
:105512002A002B000200150029002A002B0001009E
:1055220016002000210022000100170020002100A7
:1055320022000200180020002100220004001900AD
:1055420020002100220008001A0020002100220071
:1055520010001B0020002100220020001C0020005F
:105562002100220040001D002000210022008000B6
:105572001E0026002700280080001F0026002700AA
:1055820028004000200026002700280020002100DB
:1055920026002700280010002200260027002800ED
:1055A200080023002600270028000400240026000B
:1055B20027002800020025002600270028000100FD
:1055C200260029002A002B00800027003200330029
:1055D20034000400280032003300340002002900A5
:1055E20032003300340001002A0009010A010B01D4
:1055F20080002B0009010A010B0140002C00090167
:105602000A010B0120002D0009010A010B01100003
:105612002E0009010A010B0108002F0009010A01ED
:105622000B010400300009010A010B0102003100E4
:1056320009010A010B0101003200230024002500A8
:105642000800330023002400250004003400230056
:10565200240025000200350023002400250001005B
:1056620036002F0030003100010037002F003000DB
:105672003100020038002F003000310004003900F0
:105682002F003000310008003A002F0030003100B6
:1056920010003B002F003000310020003C002F00A2
:1056A2003000310040003D002F003000310080000A
:1056B2003E0006010701080101003F000601070143
:1056C2000801020040000601070108010400410030
:1056D200060107010801080042000601070108014E
:1056E20010004300060107010801200044000601E2
:1056F200070108014000450006010701080180007A
:1057020000002C002D002E00010001002C002D00B5
:105712002E00020002002C002D002E0010000300BB
:105722002C002D002E002000040032003300340033
:10573200200005002C002D002E00080006000001AC
:10574200010102010800070000010101020110002D
:10575200080000010101020120000900000101010D
:10576200020140000A0023002400250010000B0063
:1057720023002400250020000C0023002400250023
:1057820040000D0023002400250080000E000301CC
:105792000401050102000F000301040105010100DB
:1057A20010000001010102010200110000010101CB
:1057B20002010100120029002A002B000800130038
:1057C20029002A002B000400140029002A002B00C3
:1057D2000200150029002A002B00010016002000FB
:1057E20021002200010017002000210022000200F7
:1057F20018002000210022000400190020002100CE
:10580200220008001A0020002100220010001B00C4
:1058120020002100220020001C0020002100220084
:1058220040001D0020002100220080001E002600F2
:105832002700280080001F002600270028004000C3
:105842002000260027002800200021002600270033
:10585200280010002200260027002800080023004C
:105862002600270028000400240026002700280024
:10587200020025002600270028000100260029003A
:105882002A002B008000270032003300340004007D
:1058920028003200330034000200290032003300B5
:1058A200340001002A0009010A010B0180002B00CB
:1058B20009010A010B0140002C0009010A010B0138
:1058C20020002D0009010A010B0110002E00090120
:1058D2000A010B0108002F0009010A010B01040053
:1058E200300009010A010B010200310009010A011D
:1058F2000B010100320023002400250008003300C0
:105902002300240025000400340023002400250085
:1059120002003500230024002500010036002F007C
:1059220030003100010037002F003000310002004A
:1059320038002F0030003100040039002F00300001
:10594200310008003A002F003000310010003B0007
:105952002F003000310020003C002F0030003100C9
:1059620040003D002F003000310080003E00060163
:105972000701080101003F000601070108010200BA
:105982004000060107010801040041000601070169
:105992000801080042000601070108011000430047
:1059A2000601070108012000440006010701080161
:1059B20040004500060107010801800000002C009C
:1059C2002D002E00010001002C002D002E000200EF
:1059D20002002C002D002E00100003002C002D00D0
:1059E2002E002000040032003300340020000500A5
:1059F2002C002D002E00080006000001010102010A
:105A02000800070000010101020110000800000166
:105A12000101020120000900000101010201400010
:105A22000A0023002400250010000B00230024009C
:105A3200250020000C0023002400250040000D005A
:105A420023002400250080000E000301040105014B
:105A520002000F0003010401050101001000000112
:105A62000101020102001100000101010201010015
:105A7200120029002A002B000800130029002A0026
:105A82002B000400140029002A002B00020015003C
:105A920029002A002B00010016002000210022000C
:105AA200010017002000210022000200180020003F
:105AB2002100220004001900200021002200080019
:105AC2001A0020002100220010001B0020002100EB
:105AD200220020001C0020002100220040001D00A6
