:100000000C94AA000C94CB000C94CB000C94CB0065
:100010000C94CB000C94CB000C94CB000C94CB0034
:100020000C94CB000C94CB000C94CB000C94CB0024
:100030000C94CB000C94CB000C94CB000C94CB0014
:100040000C94CB000C94CB000C94CB000C94CB0004
:100050000C94CB000C94CB000C94CB000C94CB00F4
:100060000C94CB000C94CB000C94CB000C94CB00E4
:100070000C94CB000C94CB000C94CB000C94CB00D4
:100080000C94CB000C94CB000C94CB000C94CB00C4
:100090000C94CB000C94CB000C94CB000C94CB00B4
:1000A0000C94CB000C94CB000C94CB000C94CB00A4
:1000B0000C94CB000C94CB000C94CB000C94CB0094
:1000C0000C94CB000C94CB000C94CB000C94CB0084
:1000D0000C94CB000C94CB000C94CB000C94CB0074
:1000E0000C94CB00EF03038002CF0300C130ED047A
:1000F00064031281E803850078CB05392C003402B3
:10010000F70120EA020000C00123C10110C5023E30
:1001100028C701863601483701003A0155B102006F
:1001200018B603088227F20100260101E00F0F3103
:100130002B0C0E084EF1370710030E0900E10F00DB
:100140000E1403110731C148080F0C31360F11800E
:100150002980000011241FBECFEFD1E2DEBFCDBF4A
:1001600000E00CBF1CE0A0E0B2E0E4EAFCE000E04C
:100170000BBF02C007900D92A03FB107D9F72CE04A
:10018000A0EFBCE001C01D92A23FB207E1F70E94C0
:1001900035010C9450060C940000CF93DF9300D0EF
:1001A0000F92CDB7DEB769837A838B839C830BC0B4
:1001B00089819A81AB81BC810397A109B1098983A7
:1001C0009A83AB83BC8389819A81AB81BC811816E9
:1001D00019061A061B0664F3000000000F900F902A
:1001E0000F900F90DF91CF910895CF93DF93CDB70C
:1001F000DEB72C970FB6F894DEBF0FBECDBF698374
:100200007A838B839C8349815A816B817C8180EDC9
:1002100097E0DC019A01AB010E94360669877A8774
:100220008B879C8789859A85AB85BC8589839A83D2
:10023000AB83BC8389819A81AB81BC810597A1097D
:10024000B1098D839E83AF83B8876D817E818F8155
:1002500098850E94CD0000002C960FB6F894DEBF62
:100260000FBECDBFDF91CF9108950F931F93CF9312
:10027000DF93CDB7DEB70E944D0300E010E020E42D
:1002800031E040EF50E060E070E080E090E00E94FC
:100290003C05FFCFCF93DF9300D000D0CDB7DEB7C2
:1002A0009C838B837E836D832B813C81C901880F66
:1002B000991F880F991F820F931F880F991F8054D1
:1002C0009B4FFC01808191819A8389838D819E81DE
:1002D0000197E1F489819A81FC018081482F2B816B
:1002E0003C81C901880F991F880F991F820F931FA6
:1002F000880F991F8C539B4FFC0180819181842B27
:10030000282F89819A81FC01208320C08D819E81C4
:10031000892BE1F489819A81FC018081482F2B810E
:100320003C81C901880F991F880F991F820F931F65
:10033000880F991F8C539B4FFC0180819181809580
:100340008423282F89819A81FC012083000026962E
:100350000FB6F894DEBF0FBECDBFDF91CF910895E9
:10036000CF93DF9300D000D0CDB7DEB79C838B83D3
:100370007E836D832B813C81C901880F991F880F73
:10038000991F820F931F880F991F8E539B4FFC015B
:10039000808191819A8389838D819E810197E1F487
:1003A00089819A81FC018081482F2B813C81C90180
:1003B000880F991F880F991F820F931F880F991F0D
:1003C0008C539B4FFC0180819181842B282F898144
:1003D0009A81FC01208320C08D819E81892BE1F4CC
:1003E00089819A81FC018081482F2B813C81C90140
:1003F000880F991F880F991F820F931F880F991FCD
:100400008C539B4FFC018081918180958423282F00
:1004100089819A81FC012083000026960FB6F8940A
:10042000DEBF0FBECDBFDF91CF910895CF93DF9395
:1004300000D00F92CDB7DEB79C838B832B813C819C
:10044000C901880F991F880F991F820F931F880F6A
:10045000991F82549B4FFC01808191819A838983EB
:1004600089819A81FC018081482F50E02B813C8159
:10047000C901880F991F880F991F820F931F880F3A
:10048000991F8C539B4FFC0180819181842395237C
:1004900021E0892B09F420E0822F90E00F900F904B
:1004A0000F900F90DF91CF910895CF93DF930F922C
:1004B0000F92CDB7DEB78A83198222C08A81882342
:1004C0003CF461E070E083E390E00E94B00106C07C
:1004D00060E070E083E390E00E94B00161E070E0D2
:1004E00084E390E00E94B0018A81880F8A8360E0F3
:1004F00070E084E390E00E94B00189818F5F89837E
:1005000089818830D8F2000000000F900F90DF91B1
:10051000CF910895CF93DF9300D000D000D0CDB716
:10052000DEB78E8378876F83498760E070E085E36C
:1005300090E00E94B00160E070E08EE290E00E94E6
:10054000B0018E810E94550261E070E08EE290E081
:100550000E94B0011A82198216C08F8198859C0171
:100560002F5F3F4F38872F839C838B838B819C81A8
:10057000FC0184918D838D810E94550289819A812D
:1005800001969A8389838985882F90E029813A8111
:100590002817390714F361E070E085E390E00E94CA
:1005A000B001000029960FB6F894DEBF0FBECDBF94
:1005B000DF91CF910895CF93DF9300D00F92CDB705
:1005C000DEB769837A838B839C8361E070E085E387
:1005D00090E00E944A0161E070E085E390E00E94B3
:1005E000B00161E070E08EE290E00E944A0161E0BB
:1005F00070E08EE290E00E94B00161E070E083E381
:1006000090E00E944A0160E070E083E390E00E9485
:10061000B00161E070E084E390E00E944A0160E094
:1006200070E084E390E00E94B00160E070E082E35B
:1006300090E00E944A0161E070E080E390E00E9457
:100640004A0161E070E080E390E00E94B00164E65E
:1006500070E080E090E00E94F50060E070E080E3F0
:1006600090E00E94B00164E670E080E090E00E94BB
:10067000F50061E070E080E390E00E94B00168EC7A
:1006800070E080E090E00E94F50000000F900F9075
:100690000F900F90DF91CF910895CF93DF93CDB757
:1006A000DEB763970FB6F894DEBF0FBECDBF81E013
:1006B00090E0A0E0B0E08B839C83AD83BE838B8110
:1006C0009C81AD81BE81888B998BAA8BBB8B6889FD
:1006D00079898A899B890E94DB0285E290E0909368
:1006E000F10C8093F00C84EE90E09A8389832CC007
:1006F00089819A819C012F5F3F4F3A8329839C8790
:100700008B878B859C85FC0184918D878D858E8759
:100710008E858F778F8789819A814F85BC018A85E5
:100720000E948A028F85882F90E029813A81820F6A
:10073000931F9A8389838E85882334F466E970E059
:1007400080E090E00E94F50089819A819C012F5FF2
:100750003F4F3A83298398878F838F819885FC0147
:100760008491898789858A878A85882309F0C0CF03
:100770000000000063960FB6F894DEBF0FBECDBF39
:10078000DF91CF910895CF93DF930F92CDB7DEB76E
:10079000898360E070E08EE290E00E94B001898180
:1007A0000E94550261E070E08EE290E00E94B0018C
:1007B00000000F90DF91CF910895CF93DF9300D089
:1007C000CDB7DEB79B838A83198226C08A819B813D
:1007D00099233CF461E070E083E390E00E94B00173
:1007E00006C060E070E083E390E00E94B00161E049
:1007F00070E084E390E00E94B00160E070E084E388
:1008000090E00E94B0018A819B81880F991F9B8391
:100810008A8389818F5F898389818031B8F2000062
:1008200000000F900F900F90DF91CF910895CF931C
:10083000DF93CDB7DEB72C970FB6F894DEBF0FBEAF
:10084000CDBF98878F8349875A876B877C878F8135
:100850009885892F99278D838F818E83A8C01982CF
:100860008D818A834CC08A8188238CF48091F00C1E
:100870009091F10CFC018081282F84E090E0282BDE
:100880008091F00C9091F10CFC01208311C08091BB
:10089000F00C9091F10CFC018081282F84E090E015
:1008A000809528238091F00C9091F10CFC0120831D
:1008B0008091F00C9091F10CFC018081282F82E056
:1008C00090E0282B8091F00C9091F10CFC0120839A
:1008D0008091F00C9091F10CFC018081282F82E036
:1008E00090E0809528238091F00C9091F10CFC0110
:1008F00020838A81880F8A8389818F5F8983898198
:10090000883008F4B0CF1B828E818C834CC08C81E0
:1009100088238CF48091F00C9091F10CFC01808183
:10092000282F84E090E0282B8091F00C9091F10C1E
:10093000FC01208311C08091F00C9091F10CFC011E
:100940008081282F84E090E0809528238091F00C0E
:100950009091F10CFC0120838091F00C9091F10CAE
:10096000FC018081282F82E090E0282B8091F00C00
:100970009091F10CFC0120838091F00C9091F10C8E
:10098000FC018081282F82E090E0809528238091CF
:10099000F00C9091F10CFC0120838C81880F8C83EA
:1009A0008B818F5F8B838B81883008F4B0CF8985F2
:1009B0009A85AB85BC85AC01BD01415051096109E7
:1009C000710949875A876B877C87892B8A2B8B2BE8
:1009D00009F045CF000000002C960FB6F894DEBF5A
:1009E0000FBECDBFDF91CF910895CF93DF93CDB7E9
:1009F000DEB72C970FB6F894DEBF0FBECDBF9E8337
:100A00008D8378876F835A8749873C872B872D8111
:100A10003E8189859A85820F931F01979A838983E6
:100A20002F8138858B859C85820F931F01979C832E
:100A30008B838BE20E94C3038D819E810E94DD0324
:100A400089819A810E94DD038BE20E94C3038F811A
:100A500098850E94DD038B819C810E94DD038CE2DE
:100A60000E94C30300002C960FB6F894DEBF0FBEA1
:100A7000CDBFDF91CF9108950F931F93CF93DF9355
:100A8000CDB7DEB766970FB6F894DEBF0FBECDBF09
:100A90009E838D8378876F835A8749873C872B870E
:100AA0001E870D8789859A85892B09F4C3C08B859C
:100AB0009C85892B09F4BEC089859A85992384F485
:100AC00089859A8501962D813E81820F931F9E8391
:100AD0008D8389859A859195819591099A878987D2
:100AE0008D819E81803F91050CF0A4C08B859C85F3
:100AF000992384F48B859C8501962F813885820FFC
:100B0000931F98878F838B859C85919581959109FB
:100B10009C878B878F819885803491400CF08AC0A8
:100B20002D813E8189859A85820F931F01979A8333
:100B3000898389819A8199230CF47CC02F8138851F
:100B40008B859C85820F931F01979C838B838B8160
:100B50009C8199230CF46EC08D819E8199233CF475
:100B60001E821D8289819A8101969A8789878F8149
:100B7000988599233CF418861F828B819C8101966D
:100B80009C878B8789819A81803F910554F020EF63
:100B900030E08D819E81A901481B590BCA019A87BB
:100BA00089878B819C818034914054F020E431E02E
:100BB0008F819885B901681B790BCB019C878B8746
:100BC00060E070E085E390E00E94B0012B853C85F9
:100BD00049855A856F8178858D819E810E94F504B3
:100BE00089859A85092E000CAA0BBB0B2B853C85A9
:100BF000A901330F660B770B4F87588B698B7A8B64
:100C00009C01AD016F85788989899A890E942606A1
:100C10006B8B7C8B8D8B9E8B8D859E854B895C89A8
:100C20006D897E890E94170461E070E085E390E0A1
:100C30000E94B001000066960FB6F894DEBF0FBEAA
:100C4000CDBFDF91CF911F910F910895DB018F935D
:100C50009F930E943606BF91AF91A29F800D911D78
:100C6000A39F900DB29F900D112408950E944106FC
:100C7000A59F900DB49F900DA49F800D911D1124F0
:100C80000895A29FB001B39FC001A39F700D811D65
:100C90001124911DB29F700D811D1124911D089585
:040CA000F894FFCFF6
:100CA40000002C002D002E00010001002C002D005E
:100CB4002E00020002002C002D002E001000030064
:100CC4002C002D002E0020000400320033003400DC
:100CD400200005002C002D002E0008000600000155
:100CE40001010201080007000001010102011000D6
:100CF40008000001010102012000090000010101B6
:100D0400020140000A0023002400250010000B000B
:100D140023002400250020000C00230024002500CB
:100D240040000D0023002400250080000E00030174
:100D34000401050102000F00030104010501010083
:100D44001000000101010201020011000001010173
:100D540002010100120029002A002B0008001300E0
:100D640029002A002B000400140029002A002B006B
:100D74000200150029002A002B00010016002000A3
:100D8400210022000100170020002100220002009F
:100D94001800200021002200040019002000210076
:100DA400220008001A0020002100220010001B006D
:100DB40020002100220020001C002000210022002D
:100DC40040001D0020002100220080001E0026009B
:100DD4002700280080001F0026002700280040006C
:100DE40020002600270028002000210026002700DC
:100DF40028001000220026002700280008002300F5
:100E040026002700280004002400260027002800CC
:100E140002002500260027002800010026002900E2
:100E24002A002B0080002700320033003400040025
:100E3400280032003300340002002900320033005D
:100E4400340001002A0009010A010B0180002B0073
:100E540009010A010B0140002C0009010A010B01E0
:100E640020002D0009010A010B0110002E000901C8
:100E74000A010B0108002F0009010A010B010400FB
:100E8400300009010A010B010200310009010A01C5
:100E94000B01010032002300240025000800330068
:100EA400230024002500040034002300240025002E
:100EB40002003500230024002500010036002F0025
:100EC40030003100010037002F00300031000200F3
:100ED40038002F0030003100040039002F003000AA
:100EE400310008003A002F003000310010003B00B0
:100EF4002F003000310020003C002F003000310072
:100F040040003D002F003000310080003E0006010B
:100F14000701080101003F00060107010801020062
:100F24004000060107010801040041000601070111
:100F340008010800420006010701080110004300EF
:100F44000601070108012000440006010701080109
:100F540040004500060107010801800000002C0044
:100F64002D002E00010001002C002D002E00020097
:100F740002002C002D002E00100003002C002D0078
:100F84002E0020000400320033003400200005004D
:100F94002C002D002E0008000600000101010201B2
:100FA400080007000001010102011000080000010F
:100FB40001010201200009000001010102014000B9
:100FC4000A0023002400250010000B002300240045
:100FD400250020000C0023002400250040000D0003
:100FE40023002400250080000E00030104010501F4
:100FF40002000F00030104010501010010000001BB
:1010040001010201020011000001010102010100BD
:10101400120029002A002B000800130029002A00CE
:101024002B000400140029002A002B0002001500E4
:1010340029002A002B0001001600200021002200B4
:1010440001001700200021002200020018002000E7
:1010540021002200040019002000210022000800C1
:101064001A0020002100220010001B002000210093
:10107400220020001C0020002100220040001D004E
:1010840020002100220080001E00260027002800E6
:1010940080001F00260027002800400020002600B2
:1010A4002700280020002100260027002800100027
:1010B400220026002700280008002300260027001D
:1010C4002800040024002600270028000200250030
:1010D4002600270028000100260029002A002B00F2
:1010E400800027003200330034000400280032005E
:1010F40033003400020029003200330034000100C0
:101104002A0009010A010B0180002B0009010A01D0
:101114000B0140002C0009010A010B0120002D00E5
:1011240009010A010B0110002E0009010A010B013B
:1011340008002F0009010A010B0104003000090115
:101144000A010B010200310009010A010B0101002F
:10115400320023002400250008003300230024006B
:10116400250004003400230024002500020035007B
:10117400230024002500010036002F003000310038
:10118400010037002F0030003100020038002F002A
:1011940030003100040039002F0030003100080015
:1011A4003A002F003000310010003B002F003000C7
:1011B400310020003C002F003000310040003D0091
:1011C4002F003000310080003E00060107010801B5
:1011D40001003F000601070108010200400006016A
:1011E4000701080104004100060107010801080085
:1011F400420006010701080110004300060107012F
:1012040008012000440006010701080140004500D0
:10121400060107010801800000002C002D002E00AB
:10122400010001002C002D002E00020002002C0001
:101234002D002E00100003002C002D002E00200095
:101244000400320033003400200005002C002D007F
:101254002E00080006000001010102010800070039
:101264000001010102011000080000010101020156
:101274002000090000010101020140000A002300CE
:101284002400250010000B0023002400250020006A
:101294000C0023002400250040000D00230024003E
:1012A400250080000E0003010401050102000F0067
:1012B4000301040105010100100000010101020104
:1012C40002001100000101010201010012002900C5
:1012D4002A002B000800130029002A002B00040018
:1012E400140029002A002B000200150029002A00FE
:1012F4002B0001001600200021002200010017002D
:1013040020002100220002001800200021002200F9
:101314000400190020002100220008001A00200007
:101324002100220010001B002000210022002000C8
:101334001C0020002100220040001D00200021008C
:10134400220080001E0026002700280080001F00C5
:10135400260027002800400020002600270028003F
:10136400200021002600270028001000220026006B
:101374002700280008002300260027002800040076
:10138400240026002700280002002500260027004C
:1013940028000100260029002A002B0080002700D5
:1013A40032003300340004002800320033003400DB
:1013B4000200290032003300340001002A00090130
:1013C4000A010B0180002B0009010A010B014000F6
:1013D4002C0009010A010B0120002D0009010A015A
:1013E4000B0110002E0009010A010B0108002F0057
:1013F40009010A010B010400300009010A010B0173
:101404000200310009010A010B010100320023002E
:1014140024002500080033002300240025000400D4
:10142400340023002400250002003500230024009A
:101434002500010036002F00300031000100370084
:101444002F0030003100020038002F00300031003E
:10145400040039002F003000310008003A002F004A
:101464003000310010003B002F003000310020001C
:101474003C002F003000310040003D002F003000C0
:10148400310080003E0006010701080101003F0011
:1014940006010701080102004000060107010801D6
:1014A400040041000601070108010800420006018A
:1014B400070108011000430006010701080120008C
:1014C4004400060107010801400045000601070128
:1014D4000801800000002C002D002E0001000100F6
:1014E4002C002D002E00020002002C002D002E00E6
:1014F400100003002C002D002E00200004003200F8
:1015040033003400200005002C002D002E000800BC
:1015140006000001010102010800070000010101A9
:10152400020110000800000101010201200009006D
:1015340000010101020140000A00230024002500EB
:1015440010000B0023002400250020000C002300C1
:101554002400250040000D00230024002500800005
:101564000E0003010401050102000F000301040140
:101574000501010010000001010102010200110037
:101584000001010102010100120029002A002B00C0
:101594000800130029002A002B000400140029006D
:1015A4002A002B000200150029002A002B0001004C
:1015B4001600200021002200010017002000210055
:1015C400220002001800200021002200040019005B
:1015D40020002100220008001A002000210022001F
:1015E40010001B0020002100220020001C0020000D
:1015F4002100220040001D00200021002200800064
:101604001E0026002700280080001F002600270057
:101614002800400020002600270028002000210088
:10162400260027002800100022002600270028009A
:1016340008002300260027002800040024002600B8
:1016440027002800020025002600270028000100AA
:10165400260029002A002B008000270032003300D6
:101664003400040028003200330034000200290052
:1016740032003300340001002A0009010A010B0181
:1016840080002B0009010A010B0140002C00090114
:101694000A010B0120002D0009010A010B011000B1
:1016A4002E0009010A010B0108002F0009010A019B
:1016B4000B010400300009010A010B010200310092
:1016C40009010A010B010100320023002400250056
:1016D4000800330023002400250004003400230004
:1016E4002400250002003500230024002500010009
:1016F40036002F0030003100010037002F00300089
:101704003100020038002F0030003100040039009D
:101714002F003000310008003A002F003000310063
:1017240010003B002F003000310020003C002F004F
:101734003000310040003D002F00300031008000B7
:101744003E0006010701080101003F0006010701F0
:1017540008010200400006010701080104004100DD
:1017640006010701080108004200060107010801FB
:10177400100043000601070108012000440006018F
:101784000701080140004500060107010801800027
:00000001FF
