:100000000C94AA0F0C94CB0F0C94CB0F0C94CB0F29
:100010000C94CB0F0C94CB0F0C94CB0F0C94CB0FF8
:100020000C94CB0F0C94CB0F0C94CB0F0C94CB0FE8
:100030000C94CB0F0C94CB0F0C94CB0F0C94CB0FD8
:100040000C94CB0F0C94CB0F0C94CB0F0C94CB0FC8
:100050000C94CB0F0C94CB0F0C94CB0F0C94CB0FB8
:100060000C94CB0F0C94CB0F0C94CB0F0C94CB0FA8
:100070000C94CB0F0C94CB0F0C94CB0F0C94CB0F98
:100080000C94CB0F0C94CB0F0C94CB0F0C94CB0F88
:100090000C94CB0F0C94CB0F0C94CB0F0C94CB0F78
:1000A0000C94CB0F0C94CB0F0C94CB0F0C94CB0F68
:1000B0000C94CB0F0C94CB0F0C94CB0F0C94CB0F58
:1000C0000C94CB0F0C94CB0F0C94CB0F0C94CB0F48
:1000D0000C94CB0F0C94CB0F0C94CB0F0C94CB0F38
:1000E0000C94CB0F00000000003E5B4F5B3E3E6B6C
:1000F0004F6B3E1C3E7C3E1C183C7E3C181C577DC2
:10010000571C1C5E7F5E1C00183C1800FFE7C3E70D
:10011000FF0018241800FFE7DBE7FF30483A060E1F
:100120002629792926407F050507407F05253F5A66
:100130003CE73C5A7F3E1C1C08081C1C3E7F1422D6
:100140007F22145F5F005F5F06097F017F00668981
:10015000956A606060606094A2FFA29408047E04C7
:100160000810207E201008082A1C08081C2A0808ED
:100170001E101010100C1E0C1E0C30383E383006AD
:100180000E3E0E06000000000000005F00000007A9
:10019000000700147F147F14242A7F2A12231308D7
:1001A000646236495620500008070300001C2241B3
:1001B000000041221C002A1C7F1C2A08083E080857
:1001C0000080703000080808080800006060002007
:1001D000100804023E5149453E00427F40007249EA
:1001E0004949462141494D331814127F102745458E
:1001F00045393C4A494931412111090736494949A4
:1002000036464949291E0000140000004034000011
:10021000000814224114141414140041221408027A
:10022000015909063E415D594E7C1211127C7F49ED
:100230004949363E414141227F4141413E7F494942
:1002400049417F090909013E414151737F0808086E
:100250007F00417F41002040413F017F081422413F
:100260007F404040407F021C027F7F0408107F3E99
:100270004141413E7F090909063E4151215E7F0906
:10028000192946264949493203017F01033F40406D
:10029000403F1F2040201F3F4038403F6314081458
:1002A0006303047804036159494D43007F41414190
:1002B0000204081020004141417F04020102044071
:1002C00040404040000307080020545478407F28F5
:1002D0004444383844444428384444287F385454EB
:1002E000541800087E090218A4A49C787F0804040E
:1002F0007800447D40002040403D007F10284400AD
:1003000000417F40007C047804787C08040478383D
:1003100044444438FC1824241818242418FC7C086D
:10032000040408485454542404043F44243C4040EA
:10033000207C1C2040201C3C4030403C442810289D
:10034000444C9090907C4464544C440008364100E6
:100350000000770000004136080002010204023C60
:100360002623263C1EA1A161123A4040207A38542F
:1003700054555921555579412254547842215554A8
:10038000784020545579400C1E52721239555555FB
:1003900059395454545939555454580000457C41E6
:1003A0000002457D420001457C407D1211127DF026
:1003B000282528F07C545545002054547C547C0A50
:1003C000097F4932494949323A4444443A324A4819
:1003D00048303A4141217A3A42402078009DA0A01D
:1003E0007D3D4242423D3D4040403D3C24FF24246F
:1003F000487E4943662B2FFC2F2BFF0929F620C08E
:10040000887E090320545479410000447D413048DE
:10041000484A32384040227A007A0A0A727D0D1921
:10042000317D2629292F28262929292630484D4083
:1004300020380808080808080808382F10C8ACBA7F
:100440002F102834FA00007B000008142A142222FE
:10045000142A14085500550055AA55AA55AAFF5547
:10046000FF55FF000000FF00101010FF00141414CF
:10047000FF001010FF00FF1010F010F0141414FC17
:10048000001414F700FF0000FF00FF1414F404FC34
:10049000141417101F10101F101F1414141F001015
:1004A0001010F0000000001F101010101F1010108E
:1004B00010F010000000FF1010101010101010109D
:1004C000FF10000000FF140000FF00FF00001F10DD
:1004D000170000FC04F414141710171414F404F497
:1004E0000000FF00F714141414141414F700F71488
:1004F0001414171410101F101F141414F4141010D7
:10050000F010F000001F101F0000001F140000007A
:10051000FC140000F010F01010FF10FF141414FF72
:10052000141010101F00000000F010FFFFFFFFFF6D
:10053000F0F0F0F0F0FFFFFF0000000000FFFF0F01
:100540000F0F0F0F3844443844FC4A4A4A347E02A5
:10055000020606027E027E02635549416338444426
:100560003C04407E201E2006027E020299A5E7A5DB
:10057000991C2A492A1C4C7201724C304A4D4D304C
:100580003048784830BC625A463D3E494949007E71
:100590000101017E2A2A2A2A2A44445F4444405108
:1005A0004A444040444A51400000FF0103E080FFBC
:1005B000000008086B6B083612362436060F090F48
:1005C00006000018180000001010003040FF010164
:1005D000001F01011E00191D1712003C3C3C3C008D
:1005E0000000000000000000003E5B4F5B3E3E6BE1
:1005F0004F6B3E1C3E7C3E1C183C7E3C181C577DBD
:10060000571C1C5E7F5E1C00183C1800FFE7C3E708
:10061000FF0018241800FFE7DBE7FF30483A060E1A
:100620002629792926407F050507407F05253F5A61
:100630003CE73C5A7F3E1C1C08081C1C3E7F1422D1
:100640007F22145F5F005F5F06097F017F0066897C
:10065000956A606060606094A2FFA29408047E04C2
:100660000810207E201008082A1C08081C2A0808E8
:100670001E101010100C1E0C1E0C30383E383006A8
:100680000E3E0E06000000000000005F00000007A4
:10069000000700147F147F14242A7F2A12231308D2
:1006A000646236495620500008070300001C2241AE
:1006B000000041221C002A1C7F1C2A08083E080852
:1006C0000080703000080808080800006060002002
:1006D000100804023E5149453E00427F40007249E5
:1006E0004949462141494D331814127F1027454589
:1006F00045393C4A4949314121110907364949499F
:1007000036464949291E000014000000403400000C
:100710000008142241141414141400412214080275
:10072000015909063E415D594E7C1211127C7F49E8
:100730004949363E414141227F4141413E7F49493D
:1007400049417F090909013E414151737F08080869
:100750007F00417F41002040413F017F081422413A
:100760007F404040407F021C027F7F0408107F3E94
:100770004141413E7F090909063E4151215E7F0901
:10078000192946264949493203017F01033F404068
:10079000403F1F2040201F3F4038403F6314081453
:1007A0006303047804036159494D43007F4141418B
:1007B0000204081020004141417F0402010204406C
:1007C00040404040000307080020545478407F28F0
:1007D0004444383844444428384444287F385454E6
:1007E000541800087E090218A4A49C787F08040409
:1007F0007800447D40002040403D007F10284400A8
:1008000000417F40007C047804787C080404783838
:1008100044444438FC1824241818242418FC7C0868
:10082000040408485454542404043F44243C4040E5
:10083000207C1C2040201C3C4030403C4428102898
:10084000444C9090907C4464544C440008364100E1
:100850000000770000004136080002010204023C5B
:100860002623263C1EA1A161123A4040207A38542A
:1008700054555921555579412254547842215554A3
:10088000784020545579400C1E52721239555555F6
:1008900059395454545939555454580000457C41E1
:1008A0000002457D420001457C407D1211127DF021
:1008B000282528F07C545545002054547C547C0A4B
:1008C000097F4932494949323A4444443A324A4814
:1008D00048303A4141217A3A42402078009DA0A018
:1008E0007D3D4242423D3D4040403D3C24FF24246A
:1008F000487E4943662B2FFC2F2BFF0929F620C089
:10090000887E090320545479410000447D413048D9
:10091000484A32384040227A007A0A0A727D0D191C
:10092000317D2629292F28262929292630484D407E
:1009300020380808080808080808382F10C8ACBA7A
:100940002F102834FA00007B000008142A142222F9
:10095000142A14085500550055AA55AA55AAFF5542
:10096000FF55FF000000FF00101010FF00141414CA
:10097000FF001010FF00FF1010F010F0141414FC12
:10098000001414F700FF0000FF00FF1414F404FC2F
:10099000141417101F10101F101F1414141F001010
:1009A0001010F0000000001F101010101F10101089
:1009B00010F010000000FF10101010101010101098
:1009C000FF10000000FF140000FF00FF00001F10D8
:1009D000170000FC04F414141710171414F404F492
:1009E0000000FF00F714141414141414F700F71483
:1009F0001414171410101F101F141414F4141010D2
:100A0000F010F000001F101F0000001F1400000075
:100A1000FC140000F010F01010FF10FF141414FF6D
:100A2000141010101F00000000F010FFFFFFFFFF68
:100A3000F0F0F0F0F0FFFFFF0000000000FFFF0FFC
:100A40000F0F0F0F3844443844FC4A4A4A347E02A0
:100A5000020606027E027E02635549416338444421
:100A60003C04407E201E2006027E020299A5E7A5D6
:100A7000991C2A492A1C4C7201724C304A4D4D3047
:100A80003048784830BC625A463D3E494949007E6C
:100A90000101017E2A2A2A2A2A44445F4444405103
:100AA0004A444040444A51400000FF0103E080FFB7
:100AB000000008086B6B083612362436060F090F43
:100AC00006000018180000001010003040FF01015F
:100AD000001F01011E00191D1712003C3C3C3C0088
:100AE0000000000000000000003E5B4F5B3E3E6BDC
:100AF0004F6B3E1C3E7C3E1C183C7E3C181C577DB8
:100B0000571C1C5E7F5E1C00183C1800FFE7C3E703
:100B1000FF0018241800FFE7DBE7FF30483A060E15
:100B20002629792926407F050507407F05253F5A5C
:100B30003CE73C5A7F3E1C1C08081C1C3E7F1422CC
:100B40007F22145F5F005F5F06097F017F00668977
:100B5000956A606060606094A2FFA29408047E04BD
:100B60000810207E201008082A1C08081C2A0808E3
:100B70001E101010100C1E0C1E0C30383E383006A3
:100B80000E3E0E06000000000000005F000000079F
:100B9000000700147F147F14242A7F2A12231308CD
:100BA000646236495620500008070300001C2241A9
:100BB000000041221C002A1C7F1C2A08083E08084D
:100BC00000807030000808080808000060600020FD
:100BD000100804023E5149453E00427F40007249E0
:100BE0004949462141494D331814127F1027454584
:100BF00045393C4A4949314121110907364949499A
:100C000036464949291E0000140000004034000007
:100C10000008142241141414141400412214080270
:100C2000015909063E415D594E7C1211127C7F49E3
:100C30004949363E414141227F4141413E7F494938
:100C400049417F090909013E414151737F08080864
:100C50007F00417F41002040413F017F0814224135
:100C60007F404040407F021C027F7F0408107F3E8F
:100C70004141413E7F090909063E4151215E7F09FC
:100C8000192946264949493203017F01033F404063
:100C9000403F1F2040201F3F4038403F631408144E
:100CA0006303047804036159494D43007F41414186
:100CB0000204081020004141417F04020102044067
:100CC00040404040000307080020545478407F28EB
:100CD0004444383844444428384444287F385454E1
:100CE000541800087E090218A4A49C787F08040404
:100CF0007800447D40002040403D007F10284400A3
:100D000000417F40007C047804787C080404783833
:100D100044444438FC1824241818242418FC7C0863
:100D2000040408485454542404043F44243C4040E0
:100D3000207C1C2040201C3C4030403C4428102893
:100D4000444C9090907C4464544C440008364100DC
:100D50000000770000004136080002010204023C56
:100D60002623263C1EA1A161123A4040207A385425
:100D7000545559215555794122545478422155549E
:100D8000784020545579400C1E52721239555555F1
:100D900059395454545939555454580000457C41DC
:100DA0000002457D420001457C407D1211127DF01C
:100DB000282528F07C545545002054547C547C0A46
:100DC000097F4932494949323A4444443A324A480F
:100DD00048303A4141217A3A42402078009DA0A013
:100DE0007D3D4242423D3D4040403D3C24FF242465
:100DF000487E4943662B2FFC2F2BFF0929F620C084
:100E0000887E090320545479410000447D413048D4
:100E1000484A32384040227A007A0A0A727D0D1917
:100E2000317D2629292F28262929292630484D4079
:100E300020380808080808080808382F10C8ACBA75
:100E40002F102834FA00007B000008142A142222F4
:100E5000142A14085500550055AA55AA55AAFF553D
:100E6000FF55FF000000FF00101010FF00141414C5
:100E7000FF001010FF00FF1010F010F0141414FC0D
:100E8000001414F700FF0000FF00FF1414F404FC2A
:100E9000141417101F10101F101F1414141F00100B
:100EA0001010F0000000001F101010101F10101084
:100EB00010F010000000FF10101010101010101093
:100EC000FF10000000FF140000FF00FF00001F10D3
:100ED000170000FC04F414141710171414F404F48D
:100EE0000000FF00F714141414141414F700F7147E
:100EF0001414171410101F101F141414F4141010CD
:100F0000F010F000001F101F0000001F1400000070
:100F1000FC140000F010F01010FF10FF141414FF68
:100F2000141010101F00000000F010FFFFFFFFFF63
:100F3000F0F0F0F0F0FFFFFF0000000000FFFF0FF7
:100F40000F0F0F0F3844443844FC4A4A4A347E029B
:100F5000020606027E027E0263554941633844441C
:100F60003C04407E201E2006027E020299A5E7A5D1
:100F7000991C2A492A1C4C7201724C304A4D4D3042
:100F80003048784830BC625A463D3E494949007E67
:100F90000101017E2A2A2A2A2A44445F44444051FE
:100FA0004A444040444A51400000FF0103E080FFB2
:100FB000000008086B6B083612362436060F090F3E
:100FC00006000018180000001010003040FF01015A
:100FD000001F01011E00191D1712003C3C3C3C0083
:100FE00000000000EF03038002CF0300C130ED04D6
:100FF00064031281E803850078CB05392C003402A4
:10100000F70120EA020000C00123C10110C5023E21
:1010100028C701863601483701003A0155B1020060
:1010200018B603088227F20100260101E00F0F31F4
:101030002B0C0E084EF1370710030E0900E10F00CC
:101040000E1403110731C148080F0C31360F1180FF
:1010500029800000000000003E5B4F5B3E3E6B4F6E
:101060006B3E1C3E7C3E1C183C7E3C181C577D573A
:101070001C1C5E7F5E1C00183C1800FFE7C3E7FFE6
:101080000018241800FFE7DBE7FF30483A060E2679
:1010900029792926407F050507407F05253F5A3CD1
:1010A000E73C5A7F3E1C1C08081C1C3E7F14227F14
:1010B00022145F5F005F5F06097F017F00668995EC
:1010C0006A606060606094A2FFA29408047E0408D5
:1010D00010207E201008082A1C08081C2A08081E58
:1010E000101010100C1E0C1E0C30383E3830060E3E
:1010F0003E0E06000000000000005F000000070038
:101100000700147F147F14242A7F2A1223130864F3
:101110006236495620500008070300001C22410097
:101120000041221C002A1C7F1C2A08083E080800D7
:101130008070300008080808080000606000201077
:101140000804023E5149453E00427F400072494931
:1011500049462141494D331814127F102745454512
:10116000393C4A4949314121110907364949493633
:10117000464949291E0000140000004034000000C8
:1011800008142241141414141400412214080201FA
:101190005909063E415D594E7C1211127C7F494926
:1011A00049363E414141227F4141413E7F494949C3
:1011B000417F090909013E414151737F0808087FB9
:1011C00000417F41002040413F017F081422417FC0
:1011D000404040407F021C027F7F0408107F3E4158
:1011E00041413E7F090909063E4151215E7F0919AF
:1011F0002946264949493203017F01033F404040C7
:101200003F1F2040201F3F4038403F6314081463B5
:1012100003047804036159494D43007F4141410271
:1012200004081020004141417F04020102044040B3
:10123000404040000307080020545478407F284471
:1012400044383844444428384444287F385454545B
:101250001800087E090218A4A49C787F080404786A
:1012600000447D40002040403D007F1028440000A5
:10127000417F40007C047804787C0804047838447A
:10128000444438FC1824241818242418FC7C08042E
:101290000408485454542404043F44243C4040204F
:1012A0007C1C2040201C3C4030403C4428102844FA
:1012B0004C9090907C4464544C44000836410000AB
:1012C00000770000004136080002010204023C26BB
:1012D00023263C1EA1A161123A4040207A38545482
:1012E0005559215555794122545478422155547805
:1012F0004020545579400C1E52721239555555599B
:10130000395454545939555454580000457C4100BF
:1013100002457D420001457C407D1211127DF0287E
:101320002528F07C545545002054547C547C0A09EF
:101330007F4932494949323A4444443A324A48485A
:10134000303A4141217A3A42402078009DA0A07D68
:101350003D4242423D3D4040403D3C24FF24244824
:101360007E4943662B2FFC2F2BFF0929F620C088CE
:101370007E090320545479410000447D413048489F
:101380004A32384040227A007A0A0A727D0D1931B9
:101390007D2629292F28262929292630484D402015
:1013A000380808080808080808382F10C8ACBA2FF1
:1013B000102834FA00007B000008142A142222149A
:1013C0002A14085500550055AA55AA55AAFF55FFDD
:1013D00055FF000000FF00101010FF00141414FF50
:1013E000001010FF00FF1010F010F0141414FC0097
:1013F0001414F700FF0000FF00FF1414F404FC14A1
:101400001417101F10101F101F1414141F00101099
:1014100010F0000000001F101010101F101010100E
:10142000F010000000FF101010101010101010FF2E
:1014300010000000FF140000FF00FF00001F101745
:101440000000FC04F414141710171414F404F4002E
:1014500000FF00F714141414141414F700F71414F4
:1014600014171410101F101F141414F4141010F07B
:1014700010F000001F101F0000001F14000000FCEF
:10148000140000F010F01010FF10FF141414FF14DB
:101490001010101F00000000F010FFFFFFFFFFF012
:1014A000F0F0F0F0FFFFFF0000000000FFFF0F0F63
:1014B0000F0F0F3844443844FC4A4A4A347E020233
:1014C0000606027E027E0263554941633844443C6D
:1014D00004407E201E2006027E020299A5E7A599FF
:1014E0001C2A492A1C4C7201724C304A4D4D303036
:1014F00048784830BC625A463D3E494949007E0121
:1015000001017E2A2A2A2A2A44445F444440514A3F
:10151000444040444A51400000FF0103E080FF0086
:101520000008086B6B083612362436060F090F06C2
:10153000000018180000001010003040FF010100EA
:101540001F01011E00191D1712003C3C3C3C00000D
:1015500000000000000000003E5B4F5B3E3E6B4F12
:101560006B3E1C3E7C3E1C183C7E3C181C577D5735
:101570001C1C5E7F5E1C00183C1800FFE7C3E7FFE1
:101580000018241800FFE7DBE7FF30483A060E2674
:1015900029792926407F050507407F05253F5A3CCC
:1015A000E73C5A7F3E1C1C08081C1C3E7F14227F0F
:1015B00022145F5F005F5F06097F017F00668995E7
:1015C0006A606060606094A2FFA29408047E0408D0
:1015D00010207E201008082A1C08081C2A08081E53
:1015E000101010100C1E0C1E0C30383E3830060E39
:1015F0003E0E06000000000000005F000000070033
:101600000700147F147F14242A7F2A1223130864EE
:101610006236495620500008070300001C22410092
:101620000041221C002A1C7F1C2A08083E080800D2
:101630008070300008080808080000606000201072
:101640000804023E5149453E00427F40007249492C
:1016500049462141494D331814127F10274545450D
:10166000393C4A494931412111090736494949362E
:10167000464949291E0000140000004034000000C3
:1016800008142241141414141400412214080201F5
:101690005909063E415D594E7C1211127C7F494921
:1016A00049363E414141227F4141413E7F494949BE
:1016B000417F090909013E414151737F0808087FB4
:1016C00000417F41002040413F017F081422417FBB
:1016D000404040407F021C027F7F0408107F3E4153
:1016E00041413E7F090909063E4151215E7F0919AA
:1016F0002946264949493203017F01033F404040C2
:101700003F1F2040201F3F4038403F6314081463B0
:1017100003047804036159494D43007F414141026C
:1017200004081020004141417F04020102044040AE
:10173000404040000307080020545478407F28446C
:1017400044383844444428384444287F3854545456
:101750001800087E090218A4A49C787F0804047865
:1017600000447D40002040403D007F1028440000A0
:10177000417F40007C047804787C08040478384475
:10178000444438FC1824241818242418FC7C080429
:101790000408485454542404043F44243C4040204A
:1017A0007C1C2040201C3C4030403C4428102844F5
:1017B0004C9090907C4464544C44000836410000A6
:1017C00000770000004136080002010204023C26B6
:1017D00023263C1EA1A161123A4040207A3854547D
:1017E0005559215555794122545478422155547800
:1017F0004020545579400C1E527212395555555996
:10180000395454545939555454580000457C4100BA
:1018100002457D420001457C407D1211127DF02879
:101820002528F07C545545002054547C547C0A09EA
:101830007F4932494949323A4444443A324A484855
:10184000303A4141217A3A42402078009DA0A07D63
:101850003D4242423D3D4040403D3C24FF2424481F
:101860007E4943662B2FFC2F2BFF0929F620C088C9
:101870007E090320545479410000447D413048489A
:101880004A32384040227A007A0A0A727D0D1931B4
:101890007D2629292F28262929292630484D402010
:1018A000380808080808080808382F10C8ACBA2FEC
:1018B000102834FA00007B000008142A1422221495
:1018C0002A14085500550055AA55AA55AAFF55FFD8
:1018D00055FF000000FF00101010FF00141414FF4B
:1018E000001010FF00FF1010F010F0141414FC0092
:1018F0001414F700FF0000FF00FF1414F404FC149C
:101900001417101F10101F101F1414141F00101094
:1019100010F0000000001F101010101F1010101009
:10192000F010000000FF101010101010101010FF29
:1019300010000000FF140000FF00FF00001F101740
:101940000000FC04F414141710171414F404F40029
:1019500000FF00F714141414141414F700F71414EF
:1019600014171410101F101F141414F4141010F076
:1019700010F000001F101F0000001F14000000FCEA
:10198000140000F010F01010FF10FF141414FF14D6
:101990001010101F00000000F010FFFFFFFFFFF00D
:1019A000F0F0F0F0FFFFFF0000000000FFFF0F0F5E
:1019B0000F0F0F3844443844FC4A4A4A347E02022E
:1019C0000606027E027E0263554941633844443C68
:1019D00004407E201E2006027E020299A5E7A599FA
:1019E0001C2A492A1C4C7201724C304A4D4D303031
:1019F00048784830BC625A463D3E494949007E011C
:101A000001017E2A2A2A2A2A44445F444440514A3A
:101A1000444040444A51400000FF0103E080FF0081
:101A20000008086B6B083612362436060F090F06BD
:101A3000000018180000001010003040FF010100E5
:101A40001F01011E00191D1712003C3C3C3C000008
:101A500000000000000000003E5B4F5B3E3E6B4F0D
:101A60006B3E1C3E7C3E1C183C7E3C181C577D5730
:101A70001C1C5E7F5E1C00183C1800FFE7C3E7FFDC
:101A80000018241800FFE7DBE7FF30483A060E266F
:101A900029792926407F050507407F05253F5A3CC7
:101AA000E73C5A7F3E1C1C08081C1C3E7F14227F0A
:101AB00022145F5F005F5F06097F017F00668995E2
:101AC0006A606060606094A2FFA29408047E0408CB
:101AD00010207E201008082A1C08081C2A08081E4E
:101AE000101010100C1E0C1E0C30383E3830060E34
:101AF0003E0E06000000000000005F00000007002E
:101B00000700147F147F14242A7F2A1223130864E9
:101B10006236495620500008070300001C2241008D
:101B20000041221C002A1C7F1C2A08083E080800CD
:101B3000807030000808080808000060600020106D
:101B40000804023E5149453E00427F400072494927
:101B500049462141494D331814127F102745454508
:101B6000393C4A4949314121110907364949493629
:101B7000464949291E0000140000004034000000BE
:101B800008142241141414141400412214080201F0
:101B90005909063E415D594E7C1211127C7F49491C
:101BA00049363E414141227F4141413E7F494949B9
:101BB000417F090909013E414151737F0808087FAF
:101BC00000417F41002040413F017F081422417FB6
:101BD000404040407F021C027F7F0408107F3E414E
:101BE00041413E7F090909063E4151215E7F0919A5
:101BF0002946264949493203017F01033F404040BD
:101C00003F1F2040201F3F4038403F6314081463AB
:101C100003047804036159494D43007F4141410267
:101C200004081020004141417F04020102044040A9
:101C3000404040000307080020545478407F284467
:101C400044383844444428384444287F3854545451
:101C50001800087E090218A4A49C787F0804047860
:101C600000447D40002040403D007F10284400009B
:101C7000417F40007C047804787C08040478384470
:101C8000444438FC1824241818242418FC7C080424
:101C90000408485454542404043F44243C40402045
:101CA0007C1C2040201C3C4030403C4428102844F0
:101CB0004C9090907C4464544C44000836410000A1
:101CC00000770000004136080002010204023C26B1
:101CD00023263C1EA1A161123A4040207A38545478
:101CE00055592155557941225454784221555478FB
:101CF0004020545579400C1E527212395555555991
:101D0000395454545939555454580000457C4100B5
:101D100002457D420001457C407D1211127DF02874
:101D20002528F07C545545002054547C547C0A09E5
:101D30007F4932494949323A4444443A324A484850
:101D4000303A4141217A3A42402078009DA0A07D5E
:101D50003D4242423D3D4040403D3C24FF2424481A
:101D60007E4943662B2FFC2F2BFF0929F620C088C4
:101D70007E090320545479410000447D4130484895
:101D80004A32384040227A007A0A0A727D0D1931AF
:101D90007D2629292F28262929292630484D40200B
:101DA000380808080808080808382F10C8ACBA2FE7
:101DB000102834FA00007B000008142A1422221490
:101DC0002A14085500550055AA55AA55AAFF55FFD3
:101DD00055FF000000FF00101010FF00141414FF46
:101DE000001010FF00FF1010F010F0141414FC008D
:101DF0001414F700FF0000FF00FF1414F404FC1497
:101E00001417101F10101F101F1414141F0010108F
:101E100010F0000000001F101010101F1010101004
:101E2000F010000000FF101010101010101010FF24
:101E300010000000FF140000FF00FF00001F10173B
:101E40000000FC04F414141710171414F404F40024
:101E500000FF00F714141414141414F700F71414EA
:101E600014171410101F101F141414F4141010F071
:101E700010F000001F101F0000001F14000000FCE5
:101E8000140000F010F01010FF10FF141414FF14D1
:101E90001010101F00000000F010FFFFFFFFFFF008
:101EA000F0F0F0F0FFFFFF0000000000FFFF0F0F59
:101EB0000F0F0F3844443844FC4A4A4A347E020229
:101EC0000606027E027E0263554941633844443C63
:101ED00004407E201E2006027E020299A5E7A599F5
:101EE0001C2A492A1C4C7201724C304A4D4D30302C
:101EF00048784830BC625A463D3E494949007E0117
:101F000001017E2A2A2A2A2A44445F444440514A35
:101F1000444040444A51400000FF0103E080FF007C
:101F20000008086B6B083612362436060F090F06B8
:101F3000000018180000001010003040FF010100E0
:101F40001F01011E00191D1712003C3C3C3C000003
:101F50000000000011241FBECFEFD1E2DEBFCDBFD5
:101F600000E00CBF12E1A0E0B2E0E6E6F6E300E03C
:101F70000BBF02C007900D92AE3BB107D9F722E12B
:101F8000AEEBB2E101C01D92A33DB207E1F70E94A2
:101F900035100C94311B0C940000CF93DF9300D0CC
:101FA0000F92CDB7DEB769837A838B839C830BC096
:101FB00089819A81AB81BC810397A109B109898389
:101FC0009A83AB83BC8389819A81AB81BC811816CB
:101FD00019061A061B0664F3000000000F900F900C
:101FE0000F900F90DF91CF910895CF93DF93CDB7EE
:101FF000DEB72C970FB6F894DEBF0FBECDBF698356
:102000007A838B839C8349815A816B817C8180EDAB
:1020100097E0DC019A01AB010E94F51A69877A8783
:102020008B879C8789859A85AB85BC8589839A83B4
:10203000AB83BC8389819A81AB81BC810597A1095F
:10204000B1098D839E83AF83B8876D817E818F8137
:1020500098850E94CD0F00002C960FB6F894DEBF35
:102060000FBECDBFDF91CF910895CF93DF9300D006
:1020700000D0CDB7DEB78FEF9FEF9A8389831C82A4
:102080001B821E821D820E94B2130E94A01A83E04E
:102090000E94341380E090E00E94C51660E070E07A
:1020A00080E090E00E949B1145E06FEF7FEF8CEBAA
:1020B00094E00E94141945E060E078EF8BEC94E026
:1020C0000E94141945E06FEF7FEF84ED94E00E94C9
:1020D00014198091C7129091C8129C838B838091B0
:1020E000BE129091BF129E838D832D813E818B8184
:1020F0009C81B9010E949B1189819A81809619F473
:102100008FEF9FEF02C080EE9FEF9A8389838981D2
:102110009A8143E0BC0180EE94E00E941419E5CF5F
:10212000CF93DF9300D000D0CDB7DEB79C838B83F5
:102130007E836D832B813C81C901880F991F880F95
:10214000991F820F931F880F991F8E509B4FFC0180
:10215000808191819A8389838D819E810197E1F4A9
:1021600089819A81FC018081482F2B813C81C901A2
:10217000880F991F880F991F820F931F880F991F2F
:102180008A509B4FFC0180819181842B282F89816B
:102190009A81FC01208320C08D819E81892BE1F4EE
:1021A00089819A81FC018081482F2B813C81C90162
:1021B000880F991F880F991F820F931F880F991FEF
:1021C0008A509B4FFC018081918180958423282F28
:1021D00089819A81FC012083000026960FB6F8942D
:1021E000DEBF0FBECDBFDF91CF910895CF93DF93B8
:1021F00000D000D0CDB7DEB79C838B837E836D8308
:102200002B813C81C901880F991F880F991F820F6C
:10221000931F880F991F8C509B4FFC0180819181E7
:102220009A8389838D819E810197E1F489819A81C6
:10223000FC018081482F2B813C81C901880F991FA7
:10224000880F991F820F931F880F991F8A509B4FE9
:10225000FC0180819181842B282F89819A81FC0146
:10226000208320C08D819E81892BE1F489819A8110
:10227000FC018081482F2B813C81C901880F991F67
:10228000880F991F820F931F880F991F8A509B4FA9
:10229000FC018081918180958423282F89819A81F6
:1022A000FC012083000026960FB6F894DEBF0FBE17
:1022B000CDBFDF91CF910895CF93DF9300D00F92E0
:1022C000CDB7DEB79C838B832B813C81C901880FFE
:1022D000991F880F991F820F931F880F991F805194
:1022E0009B4FFC01808191819A83898389819A81A6
:1022F000FC018081482F50E02B813C81C901880F6F
:10230000991F880F991F820F931F880F991F8A505A
:102310009B4FFC01808191818423952321E0892BAF
:1023200009F420E0822F90E00F900F900F900F9013
:10233000DF91CF910895CF93DF9300D00F92CDB767
:10234000DEB79A8389837C836B8389819A8190939A
:10235000C8128093C7128B819C819093BF12809387
:10236000BE1200000F900F900F900F90DF91CF9151
:102370000895CF93DF930F920F92CDB7DEB79A8374
:10238000898389819A819093CB128093CA1280911C
:10239000CA129091CB129093D0128093CF1200006A
:1023A0000F900F90DF91CF910895CF93DF930F920D
:1023B000CDB7DEB789838981882311F0898101C077
:1023C00081E08093C0128981882311F0898101C046
:1023D00081E08093CE1200000F90DF91CF9108959D
:1023E000CF93DF930F920F92CDB7DEB78A83198216
:1023F00022C08A8188233CF461E070E083E390E0AE
:102400000E94F61006C060E070E083E390E00E9456
:10241000F61061E070E084E390E00E94F6108A819B
:10242000880F8A8360E070E084E390E00E94F610F9
:1024300089818F5F898389818830D8F2000000000C
:102440000F900F90DF91CF910895CF93DF9300D03D
:1024500000D0CDB7DEB78B837D836C834E8360E085
:1024600070E085E390E00E94F61060E070E08EE29C
:1024700090E00E94F6108B810E94F01161E070E004
:102480008EE290E00E94F6101A82198212C08C81AE
:102490009D81FC01208131E0320F8C819D81FC0106
:1024A0003083822F0E94F01189819A8101969A834C
:1024B00089838E81882F90E029813A8128173907F6
:1024C00034F361E070E085E390E00E94F6100000D4
:1024D00026960FB6F894DEBF0FBECDBFDF91CF9129
:1024E0000895CF93DF9300D000D000D0CDB7DEB7F2
:1024F0008E8378876F83498760E070E085E390E0A2
:102500000E94F61060E070E08EE290E00E94F6100B
:102510008E810E94F01161E070E08EE290E00E94F6
:10252000F6101A82198216C08F8198859C012F5F40
:102530003F4F38872F839C838B838B819C81FC0149
:1025400084918D838D810E94F01189819A810196F9
:102550009A8389838985882F90E029813A81281779
:10256000390714F361E070E085E390E00E94F61013
:10257000000029960FB6F894DEBF0FBECDBFDF91E5
:10258000CF910895CF93DF9300D00F92CDB7DEB7F0
:1025900069837A838B839C8361E070E085E390E0BC
:1025A0000E94901061E070E085E390E00E94F610D8
:1025B00061E070E08EE290E00E94901061E070E0D7
:1025C0008EE290E00E94F61061E070E083E390E01C
:1025D0000E94901060E070E083E390E00E94F610AB
:1025E00061E070E084E390E00E94901060E070E0B1
:1025F00084E390E00E94F61060E070E082E390E0F7
:102600000E94901061E070E080E390E00E949010E2
:1026100061E070E080E390E00E94F61064E670E014
:1026200080E090E00E94F50F60E070E080E390E0D1
:102630000E94F61064E670E080E090E00E94F50FE2
:1026400061E070E080E390E00E94F61068EC70E0DA
:1026500080E090E00E94F50F00000F900F900F9027
:102660000F90DF91CF910895CF93DF9300D00F9219
:102670000F92CDB7DEB78983898183708093C412AE
:102680008091C412882F90E083309105E9F1843065
:1026900091050CF048C08230910539F183309105E5
:1026A0000CF041C0009719F0019781F03CC088E41C
:1026B000898380EF90E09093D2128093D11280E4CE
:1026C00091E09093CD128093CC122DC088E2898343
:1026D00080E491E09093D2128093D11280EF90E049
:1026E0009093CD128093CC121EC088E8898380EF2E
:1026F00090E09093D2128093D11280E491E0909375
:10270000CD128093CC120FC088EE898380E491E0D3
:102710009093D2128093D11280EF90E09093CD12DB
:102720008093CC1200008981282F30E040E050E0F7
:102730002A833B834C835D836A817B818C819D816D
:102740000E94151A41E0CE010196BC0186E30E9469
:10275000251200000F900F900F900F900F90DF91B7
:10276000CF910895CF93DF93CDB7DEB763970FB6C0
:10277000F894DEBF0FBECDBF81E090E0A0E0B0E0F6
:102780008B839C83AD83BE8381E08093C9121092BA
:10279000C1128B819C81AD81BE81888B998BAA8B64
:1027A000BB8B688979898A899B890E94C21280EFD4
:1027B00090E09093D2128093D11280E491E09093B4
:1027C000CD128093CC1285E290E09093C312809357
:1027D000C2128BE091E09093C6128093C51284EEF2
:1027E0009FE09A8389832CC089819A819C012F5F05
:1027F0003F4F3A8329839C878B878B859C85FC017F
:1028000084918D878D858E878E858F778F8789813F
:102810009A814F85BC018A850E9471128F85882F0D
:1028200090E029813A81820F931F9A8389838E8554
:10283000882334F466E970E080E090E00E94F50FB0
:1028400089819A819C012F5F3F4F3A832983988722
:102850008F838F819885FC018491898789858A87F8
:102860008A85882309F0C0CF0000000063960FB668
:10287000F894DEBF0FBECDBFDF91CF910895CF9307
:10288000DF930F92CDB7DEB7898360E070E08EE210
:1028900090E00E94F61089810E94F01161E070E0E2
:1028A0008EE290E00E94F61000000F90DF91CF9131
:1028B0000895CF93DF9300D0CDB7DEB79B838A8393
:1028C000198242C08A819B81992374F48091C2123B
:1028D0009091C312FC0120818091C2129091C31289
:1028E0002460FC0120830DC08091C2129091C3121C
:1028F000FC0120818091C2129091C3122B7FFC01B8
:1029000020838091C2129091C312FC01208180919A
:10291000C2129091C3122260FC0120838091C212E6
:102920009091C312FC0120818091C2129091C31238
:102930002D7FFC0120838A819B81880F991F9B83B7
:102940008A8389818F5F89838981803108F4BACF36
:10295000000000000F900F900F90DF91CF9108952D
:10296000CF93DF93CDB7DEB72C970FB6F894DEBFC9
:102970000FBECDBF98878F8349875A876B877C8727
:102980008F819885892F99278D838F818E838CC025
:1029900019828D818A833EC08A81882374F4809154
:1029A000C2129091C312FC0120818091C2129091B9
:1029B000C3122460FC0120830DC08091C21290914B
:1029C000C312FC0120818091C2129091C3122B7F0F
:1029D000FC0120838091C2129091C312FC012081DE
:1029E0008091C2129091C3122260FC0120838091D9
:1029F000C2129091C312FC0120818091C212909169
:102A0000C3122D7FFC0120838A81880F8A838981EC
:102A10008F5F89838981883008F4BECF1B828E81C5
:102A20008C833EC08C81882374F48091C212909173
:102A3000C312FC0120818091C2129091C3122460C4
:102A4000FC0120830DC08091C2129091C312FC0141
:102A500020818091C2129091C3122B7FFC012083B0
:102A60008091C2129091C312FC0120818091C21208
:102A70009091C3122260FC0120838091C212909138
:102A8000C312FC0120818091C2129091C3122D7F4C
:102A9000FC0120838C81880F8C838B818F5F8B83DB
:102AA0008B81883008F4BECF89859A85AB85BC853B
:102AB000AC01BD01415051096109710949875A872B
:102AC0006B877C87892B8A2B8B2B09F061CF0000C9
:102AD00000002C960FB6F894DEBF0FBECDBFDF917D
:102AE000CF910895CF93DF93CDB7DEB72C970FB674
:102AF000F894DEBF0FBECDBF9E838D8378876F8332
:102B00005A8749873C872B872D813E8189859A8505
:102B1000820F931F01979A8389832F8138858B8534
:102B20009C85820F931F01979C838B838AE20E946E
:102B30003F148D819E810E94591489819A810E943F
:102B400059148BE20E943F148F8198850E9459147A
:102B50008B819C810E9459148CE20E943F140000DA
:102B60002C960FB6F894DEBF0FBECDBFDF91CF918C
:102B700008950F931F93CF93DF93CDB7DEB766977A
:102B80000FB6F894DEBF0FBECDBF9E838D837887CE
:102B90006F835A8749873C872B871E870D878985D6
:102BA0009A85892B09F4E5C08B859C85892B09F4CE
:102BB000E0C089859A85992384F489859A85019650
:102BC0002D813E81820F931F9E838D8389859A85F7
:102BD0009195819591099A8789878091D1129091D9
:102BE000D2122D813E81281739070CF0C2C08B8587
:102BF0009C85992384F48B859C8501962F8138854B
:102C0000820F931F98878F838B859C8591958195E3
:102C100091099C878B878091CC129091CD122F8146
:102C20003885281739070CF0A4C02D813E8189858D
:102C30009A85820F931F01979A83898389819A814C
:102C400099230CF496C02F8138858B859C85820F43
:102C5000931F01979C838B838B819C8199230CF418
:102C600088C08D819E8199233CF41E821D828981BA
:102C70009A8101969A8789878F81988599233CF458
:102C800018861F828B819C8101969C878B878091FF
:102C9000D1129091D21229813A812817390764F014
:102CA0002091D1123091D2128D819E81A901481BB1
:102CB000590BCA019A8789878091CC129091CD12C5
:102CC0002B813C812817390764F02091CC12309178
:102CD000CD128F819885B901681B790BCB019C8738
:102CE0008B878091C2129091C312FC012081809148
:102CF000C2129091C3122E7FFC0120832B853C854C
:102D000049855A856F8178858D819E810E947215D3
:102D100089859A85092E000CAA0BBB0B2B853C8557
:102D2000A901330F660B770B4F87588B698B7A8B12
:102D30009C01AD016F85788989899A890E94C61A9C
:102D40006B8B7C8B8D8B9E8B8D859E854B895C8957
:102D50006D897E890E94B0148091C2129091C31235
:102D6000FC0120818091C2129091C3122160FC016C
:102D70002083000066960FB6F894DEBF0FBECDBF6D
:102D8000DF91CF911F910F9108950F931F93CF93D0
:102D9000DF930F920F92CDB7DEB79A83898320918C
:102DA000CC123091CD128091D1129091D2124981E2
:102DB0005A818A01AC0160E070E080E090E00E94FE
:102DC000B91500000F900F90DF91CF911F910F91D7
:102DD0000895CF93DF9300D000D0CDB7DEB79A83AC
:102DE00089837C836B835E834D8389819A81992358
:102DF00024F18091D1129091D21229813A81281721
:102E00003907DCF48B819C819923BCF08091CC1232
:102E10009091CD122B813C812817390774F46B8176
:102E20007C8189819A8121E030E041E050E00E947C
:102E300072158D819E810E945914000026960FB64E
:102E4000F894DEBF0FBECDBFDF91CF910895CF9232
:102E5000EF920F931F93CF93DF93CDB7DEB76197B8
:102E60000FB6F894DEBF0FBECDBF98878F837A87E9
:102E700069874B873D872C871F870E87E88AC98A19
:102E80008091D1129091D2122F813885281739075D
:102E90000CF025C18091CC129091CD1229853A85F4
:102EA000281739070CF01BC18889282F30E0C90189
:102EB000880F991F820F931F880F991F9C018F8184
:102EC0009885820F931F181619060CF008C189897E
:102ED000882F90E09C01220F331F220F331F220FF7
:102EE000331F89859A85820F931F181619060CF0D7
:102EF000F6C08091C112882331F48B85803B18F095
:102F00008B858F5F8B8760E070E085E390E00E94A7
:102F1000F6101982D9C08B85282F30E0C901880F9F
:102F2000991F880F991F280F391F8981082E000CBF
:102F3000990B820F931F8D5A9A4E9D838C838C819F
:102F40009D81FC0184918E838E818A831B82B5C012
:102F50008A81882F90E081709927892B09F450C0CD
:102F600088898130D1F489898130B9F48B81282F07
:102F7000880F330B89859A85B901680F791F89817C
:102F8000282F880F330B8F819885820F931F2C85F4
:102F90003D85A9010E94E9168AC08989A82FB0E061
:102FA0008889E82FF0E08B81482F880F550B89899D
:102FB000882F90E0489F9001499F300D589F300D19
:102FC000112489859A85B901680F791F8981482F55
:102FD000880F550B8889882F90E0489F9001499F62
:102FE000300D589F300D11248F819885820F931FCB
:102FF0002C853D8589019D01AF010E94B91557C0FF
:103000002E853F858C859D852817390709F44FC08B
:1030100088898130D1F489898130B9F48B81282F56
:10302000880F330B89859A85B901680F791F8981CB
:10303000282F880F330B8F819885820F931F2E8541
:103040003F85A9010E94E91632C08989A82FB0E006
:103050008889E82FF0E08B81482F880F550B8989EC
:10306000882F90E0489F9001499F300D589F300D68
:10307000112489859A85B901680F791F8981482FA4
:10308000880F550B8889882F90E0489F9001499FB1
:10309000300D589F300D11248F819885820F931F1A
:1030A0002E853F8589019D01AF010E94B9158B8155
:1030B0008F5F8B838A8186958A838B8188300CF41D
:1030C00047CF89818F5F8983898185300CF423CF35
:1030D00061E070E085E390E00E94F61001C000001E
:1030E00061960FB6F894DEBF0FBECDBFDF91CF91D2
:1030F0001F910F91EF90CF900895CF92EF920F9381
:103100001F93CF93DF9300D00F92CDB7DEB78983A3
:103110007B836A834C8389818A30C9F41092C812F8
:103120001092C7128C81882F90E09C01220F331FD0
:10313000220F331F220F331F8091BE129091BF12B6
:10314000820F931F9093BF128093BE1261C089813A
:103150008D3009F45DC08091C912882381F18C8182
:10316000282F30E0C901880F991F820F931F880F05
:10317000991F9C018091C7129091C812280F391F86
:103180008091D1129091D21282179307C4F41092B9
:10319000C8121092C7128C81882F90E09C01220FD8
:1031A000331F220F331F220F331F8091BE129091C5
:1031B000BF12820F931F9093BF128093BE12409153
:1031C000CA125091CB122A813B816091BE1270913C
:1031D000BF128091C7129091C812CC80EC808A01F6
:1031E00049810E9427178C81282F30E0C901880F60
:1031F000991F820F931F880F991F9C018091C712FE
:103200009091C812820F931F9093C8128093C71297
:1032100000000F900F900F900F90DF91CF911F91B2
:103220000F91EF90CF900895CF93DF9300D000D00F
:103230000F92CDB7DEB79C838B837E836D834F83E4
:103240001A82198215C089819A812B813C81820F53
:10325000931FFC018081282F8D819E814F81BC01AD
:10326000822F0E947D1889819A8101969A83898391
:1032700089819A812B813C81820F931FFC0180817F
:10328000882309F70000000027960FB6F894DEBFE8
:103290000FBECDBFDF91CF910895CF93DF9300D0C4
:1032A0000F920F92CDB7DEB769837A838B839C83AD
:1032B0004D8381EC90E0FC01208181EC90E028625C
:1032C000FC01208382EC90E0FC01208182EC90E004
:1032D0002660FC01208384EC90E027E630E0FC01CE
:1032E0003183208300000F900F900F900F900F906C
:1032F000DF91CF910895CF93DF930F92CDB7DEB7D3
:103300008983000080EC90E0FC018081882F90E0B0
:1033100080729927892BB1F386EC90E02981FC011A
:10332000208300000F90DF91CF910895CF93DF931A
:103330000F920F92CDB7DEB79A8389830BC0898134
:103340009A819C012F5F3F4F3A832983FC01808142
:103350000E947B1989819A81FC018081882379F7F9
:103360008AE992E10E94BA1900000F900F90DF9154
:10337000CF910895CF93DF930F920F92CDB7DEB721
:103380009A8389830BC089819A819C012F5F3F4F6B
:103390003A832983FC0180810E947B1989819A816B
:1033A000FC018081882379F7000000000F900F90C6
:1033B000DF91CF910895CF93DF93CDB7DEB70000B3
:1033C00080EC90E0FC0180818823D4F786EC90E0CB
:1033D000FC018081DF91CF910895CF93DF9300D0DE
:1033E00000D00F920F92CDB7DEB769837A838B83BB
:1033F0009C8389819A81AB81BC818D839E83AF83BD
:10340000B8876D817E818F8198850E94151A8EE91B
:1034100092E10E94BA19000028960FB6F894DEBF18
:103420000FBECDBFDF91CF9108950F931F93CF9320
:10343000DF93CDB7DEB764970FB6F894DEBF0FBE4B
:10344000CDBF69837A838B839C8389819A81AB8189
:10345000BC810097A105B04829F481EA92E10E945D
:10346000BA1962C089819A81AB81BC81BB2394F473
:103470008DE20E947B1989819A81AB81BC81B095D4
:10348000A095909581959F4FAF4FBF4F89839A83A9
:10349000AB83BC8389819A81AB81BC810996A11DD4
:1034A000B11D4397A105B10500F189819A81AB81D6
:1034B000BC8189879A87AB87BC870AE010E020E04F
:1034C00030E069857A858B859C85A90198010E94E9
:1034D000D61ADA01C9018D839E83AF83B8876D81C7
:1034E0007E818F8198850E94151A89819A81AB818E
:1034F000BC818D879E87AF87B88B0AE010E020E003
:1035000030E06D857E858F859889A90198010E949C
:10351000D61A698B7A8B8B8B9C8B89899A89AB891C
:10352000BC89805D0E947B19000064960FB6F894F8
:10353000DEBF0FBECDBFDF91CF911F910F910895D8
:10354000CF93DF93CDB7DEB746E060E875E280E069
:1035500090E00E944D190000DF91CF910895CF9324
:10356000DF93CDB7DEB70E94A01A6AE270E080E078
:1035700090E00E94151A8DEA92E10E94BA1964E661
:1035800070E080E090E00E94F50FEFCFDB018F93B9
:103590009F930E94F51ABF91AF91A29F800D911D3C
:1035A000A39F900DB29F900D11240895052E97FBB7
:1035B0001EF400940E94ED1A57FD07D00E94001BD4
:1035C00007FC03D04EF40C94ED1A509540953095BD
:1035D00021953F4F4F4F5F4F08959095809570957F
:1035E00061957F4F8F4F9F4F08950E94221BA59F8B
:1035F000900DB49F900DA49F800D911D11240895EE
:10360000A1E21A2EAA1BBB1BFD010DC0AA1FBB1FE6
:10361000EE1FFF1FA217B307E407F50720F0A21B58
:10362000B30BE40BF50B661F771F881F991F1A94C5
:1036300069F760957095809590959B01AC01BD01EF
:10364000CF010895A29FB001B39FC001A39F700D49
:10365000811D1124911DB29F700D811D1124911D9A
:063660000895F894FFCF6D
:1036660000002C002D002E00010001002C002D0072
:103676002E00020002002C002D002E001000030078
:103686002C002D002E0020000400320033003400F0
:10369600200005002C002D002E0008000600000169
:1036A60001010201080007000001010102011000EA
:1036B60008000001010102012000090000010101CA
:1036C600020140000A0023002400250010000B0020
:1036D60023002400250020000C00230024002500E0
:1036E60040000D0023002400250080000E00030189
:1036F6000401050102000F00030104010501010098
:103706001000000101010201020011000001010187
:1037160002010100120029002A002B0008001300F4
:1037260029002A002B000400140029002A002B007F
:103736000200150029002A002B00010016002000B7
:1037460021002200010017002000210022000200B3
:10375600180020002100220004001900200021008A
:10376600220008001A0020002100220010001B0081
:1037760020002100220020001C0020002100220041
:1037860040001D0020002100220080001E002600AF
:103796002700280080001F00260027002800400080
:1037A60020002600270028002000210026002700F0
:1037B6002800100022002600270028000800230009
:1037C60026002700280004002400260027002800E1
:1037D60002002500260027002800010026002900F7
:1037E6002A002B008000270032003300340004003A
:1037F6002800320033003400020029003200330072
:10380600340001002A0009010A010B0180002B0087
:1038160009010A010B0140002C0009010A010B01F4
:1038260020002D0009010A010B0110002E000901DC
:103836000A010B0108002F0009010A010B0104000F
:10384600300009010A010B010200310009010A01D9
:103856000B0101003200230024002500080033007C
:103866002300240025000400340023002400250042
:1038760002003500230024002500010036002F0039
:1038860030003100010037002F0030003100020007
:1038960038002F0030003100040039002F003000BE
:1038A600310008003A002F003000310010003B00C4
:1038B6002F003000310020003C002F003000310086
:1038C60040003D002F003000310080003E00060120
:1038D6000701080101003F00060107010801020077
:1038E6004000060107010801040041000601070126
:1038F6000801080042000601070108011000430004
:10390600060107010801200044000601070108011D
:103916004000450006010701080180004D4547416A
:103926000A4452494E4B494E470A004D41434849C5
:103936004E410A00414456454E545552450A0A0026
:10394600202020202D205374617274202D00000049
:103956002C002D002E00010001002C002D002E0051
:10396600020002002C002D002E00100003002C0087
:103976002D002E0020000400320033003400200009
:1039860005002C002D002E00080006000001010194
:1039960002010800070000010101020110000800F1
:1039A60000010101020120000900000101010201DC
:1039B60040000A0023002400250010000B0023000D
:1039C6002400250020000C002300240025004000D0
:1039D6000D0023002400250080000E0003010401D1
:1039E600050102000F00030104010501010010009A
:1039F60000010101020102001100000101010201A2
:103A06000100120029002A002B00080013002900DB
:103A16002A002B000400140029002A002B000200B3
:103A2600150029002A002B000100160020002100A5
:103A360022000100170020002100220002001800C9
:103A4600200021002200040019002000210022008D
:103A560008001A0020002100220010001B00200090
:103A66002100220020001C0020002100220040002E
:103A76001D0020002100220080001E0026002700D5
:103A8600280080001F002600270028004000200094
:103A960026002700280020002100260027002800F5
:103AA6001000220026002700280008002300260018
:103AB6002700280004002400260027002800020012
:103AC60025002600270028000100260029002A00DC
:103AD6002B00800027003200330034000400280049
:103AE6003200330034000200290032003300340073
:103AF60001002A0009010A010B0180002B000901BF
:103B06000A010B0140002C0009010A010B012000EB
:103B16002D0009010A010B0110002E0009010A01FE
:103B26000B0108002F0009010A010B0104003000F7
:103B360009010A010B010200310009010A010B010A
:103B46000100320023002400250008003300230072
:103B56002400250004003400230024002500020070
:103B66003500230024002500010036002F00300018
:103B76003100010037002F0030003100020038000C
:103B86002F0030003100040039002F0030003100D2
:103B960008003A002F003000310010003B002F00D3
:103BA6003000310020003C002F0030003100400082
:103BB6003D002F003000310080003E000601070165
:103BC600080101003F00060107010801020040004C
:103BD600060107010801040041000601070108016A
:103BE6000800420006010701080110004300060113
:103BF60007010801200044000601070108014000F2
:103C06004500060107010801800000002C002D0078
:103C16002E00010001002C002D002E0002000200E3
:103C26002C002D002E00100003002C002D002E006D
:103C360020000400320033003400200005002C0070
:103C46002D002E00080006000001010102010800F7
:103C56000700000101010201100008000001010136
:103C660002012000090000010101020140000A00D2
:103C760023002400250010000B002300240025004B
:103C860020000C0023002400250040000D00230026
:103C96002400250080000E00030104010501020036
:103CA6000F000301040105010100100000010101DC
:103CB60002010200110000010101020101001200CF
:103CC60029002A002B000800130029002A002B00D7
:103CD6000400140029002A002B0002001500290008
:103CE6002A002B00010016002000210022000100FE
:103CF60017002000210022000200180020002100E9
:103D060022000400190020002100220008001A00E9
:103D160020002100220010001B00200021002200AC
:103D260020001C0020002100220040001D00200071
:103D36002100220080001E002600270028008000A7
:103D46001F0026002700280040002000260027002C
:103D5600280020002100260027002800100022004D
:103D66002600270028000800230026002700280038
:103D76000400240026002700280002002500260053
:103D8600270028000100260029002A002B008000B9
:103D960027003200330034000400280032003300CC
:103DA60034000200290032003300340001002A00EA
:103DB60009010A010B0180002B0009010A010B0110
:103DC60040002C0009010A010B0120002D00090109
:103DD6000A010B0110002E0009010A010B0108005F
:103DE6002F0009010A010B010400300009010A0134
:103DF6000B010200310009010A010B01010032002A
:103E06002300240025000800330023002400250099
:103E1600040034002300240025000200350023009E
:103E260024002500010036002F003000310001007B
:103E360037002F0030003100020038002F0030001C
:103E46003100040039002F003000310008003A002C
:103E56002F003000310010003B002F0030003100F1
:103E660020003C002F003000310040003D002F00B4
:103E76003000310080003E00060107010801010004
:103E86003F00060107010801020040000601070184
:103E9600080104004100060107010801080042006C
:103EA6000601070108011000430006010701080189
:103EB60020004400060107010801400045000601F4
:103EC60007010801800000002C002D002E000100D3
:103ED60001002C002D002E00020002002C002D00F7
:103EE6002E00100003002C002D002E0020000400E0
:103EF600320033003400200005002C002D002E0077
:103F06000800060000010101020108000700000187
:103F16000101020110000800000101010201200058
:103F2600090000010101020140000A0023002400EB
:103F3600250010000B0023002400250020000C00A3
:103F460023002400250040000D0023002400250046
:103F560080000E0003010401050102000F000301A9
:103F66000401050101001000000101010201020027
:103F760011000001010102010100120029002A00BE
:103F86002B000800130029002A002B00040014004F
:103F960029002A002B000200150029002A002B0008
:103FA6000100160020002100220001001700200059
:103FB6002100220002001800200021002200040037
:103FC600190020002100220008001A00200021000C
:103FD600220010001B0020002100220020001C00EF
:103FE60020002100220040001D00200021002200A8
:103FF60080001E0026002700280080001F002600E3
:104006002700280040002000260027002800200066
:104016002100260027002800100022002600270085
:10402600280008002300260027002800040024009A
:104036002600270028000200250026002700280069
:104046000100260029002A002B00800027003200EC
:10405600330034000400280032003300340002002C
:10406600290032003300340001002A0009010A0148
:104076000B0180002B0009010A010B0140002C00F6
:1040860009010A010B0120002D0009010A010B019B
:1040960010002E0009010A010B0108002F0009017A
:1040A6000A010B010400300009010A010B0102009C
:1040B600310009010A010B0101003200230024002E
:1040C60025000800330023002400250004003400E6
:1040D60023002400250002003500230024002500CB
:1040E600010036002F0030003100010037002F009C
:1040F60030003100020038002F003000310004008B
:1041060039002F003000310008003A002F0030003F
:10411600310010003B002F003000310020003C0031
:104126002F003000310040003D002F0030003100EC
:1041360080003E0006010701080101003F0006015C
:1041460007010801020040000601070108010400FA
:1041560041000601070108010800420006010701A7
:104166000801100043000601070108012000440071
:104176000601070108014000450006010701080184
:10418600800000002C002D002E00010001002C00F4
:104196002D002E00020002002C002D002E00100023
:1041A60003002C002D002E002000040032003300F6
:1041B6003400200005002C002D002E00080006000B
:1041C60000010101020108000700000101010201CE
:1041D6001000080000010101020120000900000191
:1041E6000101020140000A002300240025001000FE
:1041F6000B0023002400250020000C0023002400CF
:10420600250040000D0023002400250080000E003C
:1042160003010401050102000F0003010401050169
:10422600010010000001010102010200110000015D
:10423600010102010100120029002A002B000800DA
:10424600130029002A002B000400140029002A006C
:104256002B000200150029002A002B000100160081
:10426600200021002200010017002000210022006A
:10427600020018002000210022000400190020007E
:104286002100220008001A00200021002200100050
:104296001B0020002100220020001C00200021001D
:1042A600220040001D0020002100220080001E0088
:1042B60026002700280080001F002600270028006F
:1042C60040002000260027002800200021002600AC
:1042D60027002800100022002600270028000800DA
:1042E60023002600270028000400240026002700BB
:1042F60028000200250026002700280001002600CD
:1043060029002A002B0080002700320033003400E9
:104316000400280032003300340002002900320075
:104326003300340001002A0009010A010B01800054
:104336002B0009010A010B0140002C0009010A01AA
:104346000B0120002D0009010A010B0110002E00AF
:1043560009010A010B0108002F0009010A010B01DE
:104366000400300009010A010B01020031000901B5
:104376000A010B0101003200230024002500080079
:104386003300230024002500040034002300240009
:104396002500020035002300240025000100360018
:1043A6002F0030003100010037002F0030003100AF
:1043B600020038002F0030003100040039002F00C1
:1043C6003000310008003A002F00300031001000A4
:1043D6003B002F003000310020003C002F00300051
:1043E600310040003D002F003000310080003E00CB
:1043F60006010701080101003F0006010701080147
:104406000200400006010701080104004100060100
:104416000701080108004200060107010801100013
:1044260043000601070108012000440006010701B8
:104436000801400045000601070108018000000050
:104446002C002D002E00010001002C002D002E0056
:10445600020002002C002D002E00100003002C008C
:104466002D002E002000040032003300340020000E
:1044760005002C002D002E00080006000001010199
:1044860002010800070000010101020110000800F6
:1044960000010101020120000900000101010201E1
:1044A60040000A0023002400250010000B00230012
:1044B6002400250020000C002300240025004000D5
:1044C6000D0023002400250080000E0003010401D6
:1044D600050102000F00030104010501010010009F
:1044E60000010101020102001100000101010201A7
:1044F6000100120029002A002B00080013002900E1
:104506002A002B000400140029002A002B000200B8
:10451600150029002A002B000100160020002100AA
:1045260022000100170020002100220002001800CE
:104536002000210022000400190020002100220092
:1045460008001A0020002100220010001B00200095
:104556002100220020001C00200021002200400033
:104566001D0020002100220080001E0026002700DA
:10457600280080001F002600270028004000200099
:1045860026002700280020002100260027002800FA
:10459600100022002600270028000800230026001D
:1045A6002700280004002400260027002800020017
:1045B60025002600270028000100260029002A00E1
:1045C6002B0080002700320033003400040028004E
:1045D6003200330034000200290032003300340078
:1045E60001002A0009010A010B0180002B000901C4
:1045F6000A010B0140002C0009010A010B012000F1
:104606002D0009010A010B0110002E0009010A0103
:104616000B0108002F0009010A010B0104003000FC
:1046260009010A010B010200310009010A010B010F
:104636000100320023002400250008003300230077
:104646002400250004003400230024002500020075
:104656003500230024002500010036002F0030001D
:104666003100010037002F00300031000200380011
:104676002F0030003100040039002F0030003100D7
:1046860008003A002F003000310010003B002F00D8
:104696003000310020003C002F0030003100400087
:1046A6003D002F003000310080003E00060107016A
:1046B600080101003F000601070108010200400051
:1046C600060107010801040041000601070108016F
:1046D6000800420006010701080110004300060118
:1046E60007010801200044000601070108014000F7
:1046F600450006010701080180000D0A27000D0A82
:10470600002D3231343734383336343800203A20ED
:0E47160068656C6C6F20776F72640D0A00008E
:00000001FF
