:100000000C947A510C949B510C949B510C949B51E1
:100010000C949B510C949B510C949B510C949B51B0
:100020000C949B510C94987B0C949B510C943D7BAD
:100030000C949B510C949B510C949B510C949B5190
:100040000C949B510C947B790C949B510C949B5178
:100050000C949B510C949B510C949B510C949B5170
:100060000C949B510C949B510C949B510C949B5160
:100070000C949B510C949B510C949B510C949B5150
:100080000C94D87B0C949B510C949B510C949B51D9
:100090000C949B510C949B510C949B510C949B5130
:1000A0000C949B510C949B510C9458790C949B513B
:1000B0000C949B510C949B510C949B510C94FC7A86
:1000C0000C949B510C949B510C949B510C949B5100
:1000D0000C949B510C949B510C949B510C949B51F0
:1000E0000C949B510C94EC610C94E3670C9481701C
:1000F0000C94DA6A0C94335C0C94485A0C94716337
:100100000C943E770C949A740C9445590C94DC6CC6
:1001100000000000000000000001122300000000A9
:100120001100000433554345555555555555555502
:10013000555555523355555500000000000000003C
:1001400000201530000000015500005555401015E5
:100150005555555555555555555555505445555565
:10016000000000000000000000000000001331004B
:10017000000035555523165555555555555555556A
:100180005551333225155555000000000000000080
:1001900000000000000550000005510522255555BE
:1001A000525555555555555555363242323555559A
:1001B000000000000000000000000000000100132B
:1001C0003011155500045555505555555555555533
:1001D00051432535642555550000000000000000FE
:1001E000000000000054003000005555555555558D
:1001F00055555555555555555052554554255555F8
:100200000000000000000000000000035530000066
:100210000000111455411611515555555555555558
:1002200053365525542555550000000000000000A8
:1002300000000000000000000000004440001655CF
:1002400050255005555555555335262622255555CB
:10025000000000000000000000000000000000306E
:10026000000141000004555504655440655555553D
:1002700053255666532555550000001351000000C4
:100280000000000100035510136555555520001559
:1002900011055551653455555365555553555555AB
:1002A00000000000000000000000222500121510D0
:1002B00000010005550000050035555100000555A9
:1002C0005525555556555550000000000000111198
:1002D00000000236000001000000000001110000D3
:1002E00051133335531155542643222224343551AA
:1002F000000000000000015300000000500000005A
:1003000000000000000000005555500005555552F2
:1003100033553333462465550000000000000100CA
:100320000000000000000011000133000133331110
:100330005553335555677231423422442662233572
:100340000004100000000000000000000000052074
:100350000000210000226550052255520089A96342
:1003600036633326236662B70000000030000000C9
:100370000000000040000100000000000000151017
:100380000100111001A9AAAA2433334444626BBAB4
:10039000000000056410000087000000000000005D
:1003A0000400000000000000000000004CCAAAAADF
:1003B000BB62226BB2BBBBBA010000014344000028
:1003C0007D000000000000000000000000000000B0
:1003D0000011340009A9AAAABBBBBBBBBBBBBBBCF9
:1003E0000000811117EE7800E1100000000000000D
:1003F00003653000000000000013310069A9AAAABB
:10040000BBBFBBBBBBBBBBBA000CF4F43EEEC9A088
:10041000EE9000000014430033250000000014405B
:1004200000000000A9CACAAABBBBBBBBBBBBBBBA0E
:100430008999A4343E1E7A99EE9C00000343100073
:100440000331000000000030000000079AACABCB85
:10045000BBBBBBBBBBBBBBBBE99A90801EEE7F792D
:10046000CDA9000000000000000000000000000016
:100470000000000BCAAAABABBBBBBBBBBBBB55AC44
:10048000D9D9AC7003EE0FAADAFA00000000000020
:1004900000000000000000000000000FACACACAB9E
:1004A000BBBBBBBBBBBB55ACDDA9BB8077417C9A5A
:1004B000CDF100000000000000000000000000007E
:1004C00000000000FBACBBBBBBBFBBBBB5BBBBBB39
:1004D000A9AACCEA7070F6C6CDF8000000000000B2
:1004E0000000000000011000000000000FBBBBBBBB
:1004F000BBBFBBBBBBB5B5FB6BCAC07CC89877267E
:10050000CD0000000000000000000000000000001E
:10051000000000007FBBBBBBBBBBBBBBB5555B7B5F
:10052000FF667BA0CC9F87F9AD00000000000000B3
:100530000000000000000000000000006FBBBBBB1B
:10054000BBBBBBBBBBBBB77F7F6B6B9AA9CAF79921
:10055000AD000000000000000000000000000000EE
:10056000000000017FBBBBBBBBBBBBBBBBBB00BFB9
:10057000F6666B979AA67FDDAD00000000000000D4
:1005800000000000000000000000000F7BBBBBBBB0
:10059000BBBBBBB5B5B400BF66466BA99ACC769918
:1005A000AD0000000000000000000000000000009E
:1005B0000000081F7BBBFBFBBBBBBBB6B554000FE9
:1005C000661BB6BA9CCF7BAD9D000000000000000A
:1005D00000000000000000000000079CBBBFF4BB4F
:1005E000BBBFBBBBBB54000F606B6BBBACFFBBA9FD
:1005F0009D0000000000000000000000000000005E
:100600000000079AABBFF4BBBBBBBBB55554000F92
:1006100056B666BBB6BB66AAAD000000000000007F
:100620000000000000000000000007ABABBF04BBEF
:10063000BBBBBB555554000366666B6666FBF6A9EB
:100640009D000001110000000000000000000000FB
:10065000000007AAABBF0BBBBBBBBBB5BB540007BD
:10066000699C6666B6F70656CD206116001000003C
:100670000000000000000000000007AAABBF8BBB19
:10068000FBBBBBB5555B80074CCAA5B62223325FC6
:10069000CDF00253410110110000000000000000E5
:1006A000000009AABB7FCBBBBBBBB5555555000F9E
:1006B0005555555525622655555530330000602057
:1006C0004000000000000000000009AABFB47BBB8E
:1006D000BBBFBBBBBB5BB00F4231353131133115F2
:1006E000532430000005201000000000000000002E
:1006F000000009CABFCCCBBBBBBFBBBB5B55F00B7B
:1007000000100000000001314352160000004000BC
:10071000000000000000000000000ACCBF7CCBBB42
:10072000BBBBBBBB555BF00B000000000000000032
:1007300000000000000000000000000000000000B9
:10074000007FF9ABBECCBBBBBBBBB555BB55B0FB4B
:100750000000000000000001000000000000000098
:100760000000000000000000007DCACCECCFBBBB45
:10077000BBBBBBBBBBB5B4B500000010003343002E
:100780000000000000000000000000000000000069
:10079000007EA9AEEC07BBBBBBBBBBB5BB55BBBBAF
:1007A000014000101510300153000000000000004F
:1007B000000000000000000000F7C9AEC107FBBB4D
:1007C0005BBBBB5555BB5B5B150010355403055334
:1007D0000000010000000000000000035550000070
:1007E00007D999A910077FB55BB5BB55BB5BBB5556
:1007F00053001551002015100001010000010000F8
:100800000365111000000000FDDA9AAC0007FFB587
:1008100055555555555BBB554000550005115300C6
:100820000003300000100035220000000000000727
:10083000DDAA9AA70087FFB5555BB555555B5556A0
:10084000410255301145103001310000110335319E
:1008500000000000000000FDD99DDC700067FF551E
:1008600056BB65555BB55551555555015153010062
:10087000015100003054400000000000000007DD7E
:10088000AADD7C100067F655BBB55555BB555B819D
:100890005555552555104502105440062110044069
:1008A0000000000000007DDAADD77DC1527F555BAE
:1008B000BBB55555BB555B21555555555515535130
:1008C0000055415400332300000000000007DD996B
:1008D000DD70F7C55F7555BBBB5555B5B55B5B5353
:1008E0005555555555555500045555524400100061
:1008F0000000000000FDDAAA9700FC5501555BFFDF
:10090000B5556B5BBB5B5B555555555555555555A9
:100910005555555551151010101000000FDDAA9DAA
:10092000711115530F555BF255BBBB6B555BB5553C
:1009300055555555555555555555555555303403FF
:1009400001000103ADA5ADD52511550007F555F200
:100950005BBB5B5555BB555555555555555555556F
:100960005555555555015041140015555AAADDA548
:100970005305510077F5BB65BBBB5555B5555B5B62
:1009800055555555555555555555555555155011A0
:1009900055550555DAADDB5000040000F756BBF79E
:1009A000FBB5555555565B555555555555555555EA
:1009B00055555555555555555555555555555555E7
:1009C00055555555555555555555555555555555D7
:1009D00055555555555555555555555555555555C7
:1009E00055555555555555555555555555555555B7
:1009F00055555555555555555555555555555555A7
:100A00005555555555555555555555555555555596
:100A10005555555555555555555555555555555586
:100A20005555555555555555555555555555555576
:100A30005555555555555555555555555555555566
:100A40005555555555555555555555555555555556
:100A50005555555555555555555555555555555546
:100A60005555555555555555555555555555555536
:100A70000000000000001111111110000000000022
:100A80000000000000000101000101000000000062
:100A90000000000000000000000001111100000132
:100AA00011111111111111110000000000000000BE
:100AB0000000000000000000000000000000000036
:100AC0001111111111111111111111111111111116
:100AD00011111111110000000000000000000000C1
:100AE0000000000000000000111111111110001190
:100AF00011111111111111122222222211111111A1
:100B0000111111110000000010000011111111113C
:100B100011111111111111111111111101111333B1
:100B20003222222222111111111111111111111150
:100B300011111111111111111110000101111111D7
:100B400011000011111333333332222222221111EA
:100B50001111111111111111111111111111111185
:100B600011111111111111111111111111334434FD
:100B700022222222222224211111100111111111ED
:100B80001111111111111111111111111111111155
:100B90001111111133333333333322222222242211
:100BA000211111111011110001110000101001018B
:100BB00010001111111111110000000333333333F0
:100BC0003333222222222422222211111111111147
:100BD000111111111111111100000111111000005A
:100BE000001133333333333333332222222224228E
:100BF00022222211111111111111111111111111B2
:100C0000111111111110000000333333333333331A
:100C100033332222222244222222222111110001D6
:100C200011000111111111111000111111155000B5
:100C300003333333333333333333222222224422F8
:100C40002222222221111100111111111111111151
:100C500011111111111555553333333333333333E8
:100C60003332222222224422222222222221111144
:100C70001111111111111111111111110001113363
:100C80003333333333333333333222222222442279
:100C900022222222222221111111111100001011F1
:100CA0001111111111111333333333333333333300
:100CB0003322222222244222222222222222220003
:100CC00000001111111111111111111111133333F0
:100CD0003333333333333333332222222224422239
:100CE00022222222222222225555011111111111F4
:100CF00011111100000333333333333333333333C0
:100D00003222222222442222222222222222222291
:100D1000255551000111111100000000113333332A
:100D200033333333333333332222222224422222F9
:100D300022222222222222222245511100111110A8
:100D40000000000033333333333333333333222261
:100D50002222222244222222222222222222222251
:100D60002242511111111111555000033333333305
:100D700033344334222233222222222422222222EA
:100D80002222242222222222224222211111111166
:100D900055555533333333333333333333333222CF
:100DA0002222222222222222222224222222222221
:100DB0002422222200000011111133333333333344
:100DC000333333333333222222222222222222229D
:100DD000222242222222222224222222225555008D
:100DE0001113333333333333333333333332222238
:100DF00022222222222222222222422222222222B3
:100E000024222222222555550333333333333333FF
:100E1000333333333322222222222222222222225D
:100E2000222442222222222242222222222245550A
:100E300033333333333333333333333322222222C6
:100E4000222222222222222222442222222222245E
:100E50004222222222224255333333333333333377
:100E6000333333322222222222222222222222221F
:100E700022442222222222244222222222224222EE
:100E80003333333333333333333332222222222288
:100E900022222222222222222442222222222244EE
:100EA0002222222222242222333333333443333387
:100EB000333222222222224222222266666666667D
:100EC00044222222222222422222222222242222BE
:100ED0003333333333333333332222222222442237
:100EE000222222222447777666822222222224226C
:100EF000222242222224222233333333333222224B
:100F00002222222222242222222222222246666712
:100F100076682222222224222224222222422222F3
:100F200033333333333333322222222222442222F8
:100F3000222222224444666667682222222222223A
:100F400022442222244222223333333333333222C7
:100F500022222222444222222222244464468666FD
:100F60006668222222222222224222222442222295
:100F70003333333333322222222222444222224488
:100F800044444446668866667666222222222222ED
:100F900022222222442222223333333333322222AA
:100FA0002222444422222222466688888866666677
:100FB0006689222222222222222222224222222246
:100FC0003333333333322222222444222244444412
:100FD00066666666666666688699222224222222F2
:100FE000222222242222224233333333322222226B
:100FF000244422222236666666666666666688999C
:1010000066932222442222222222222422222422E5
:10101000333333332222224444222222222377777D
:101020007666888888899999693222244222222406
:1010300042222222222244224222222222224444EA
:10104000422222222222337777744444444999432E
:1010500033222244222222442222222222224222FB
:1010600033333222222444422222222222222233D9
:1010700037744444444733333222244222222442E8
:10108000222222222222222233322222222222221F
:1010900022222222222222223333333333333322B9
:1010A00022244422222244222222222222222222DA
:1010B0003222222222222222222222222222222200
:1010C0002233333333332222244442222224422245
:1010D00022222222222222222222222222422222D0
:1010E00022222222222222222222222222222244BE
:1010F000442222222224422222222222222222228C
:10110000222222222442222222222222222422229B
:101110002222222222224444222222222244222249
:101120002222222224422222222222244422222259
:10113000222222222242222222222222222442224D
:10114000222222222222222222222222442222225D
:101150002222444422222222222222224422222209
:10116000222222222244222222222222222222223D
:1011700022222224422222222244444222222222C9
:1011800022222224422222222222222224422222FB
:10119000222222222222222222222244222222220D
:1011A0004444422222222222222222442222222299
:1011B00022222222442222222222222222222222ED
:1011C00022222442222222224222222222222222BD
:1011D00022222442222222222222222442222222AB
:1011E000442222222222222222222442222222229B
:1011F00022222222222222222222442222222222AD
:10120000222222222222224442222222222222227C
:10121000224424222222222222222222222222228A
:10122000222442222222222222222222222224425A
:10123000222222222222222224422222222222226C
:10124000222222222222222222442222222222225C
:10125000222222222222442222222222222222224C
:10126000442222222222222222222222222222223C
:10127000244222222222222222222222222442220A
:10128000222222222222222442222222222222221C
:10129000222222222222222224222222222222222C
:1012A000222222222224222222222222222222241A
:1012B000222222222222222222222222222222220E
:1012C00042222222222222222222222224222222DC
:1012D00022222222222222222222222222222222EE
:1012E00022222222222222222222222222222222DE
:1012F00022222222442222222222222222222422AA
:101300002222222222224422222222222224422279
:10131000222222222222222222222224422222228B
:101320002222222222224422222222222224422259
:10133000222222222244222222222222222222226B
:10134000222222444222222222222222222242221B
:101350002222222222442222222222222442222229
:10136000222222222222222222222244222222223B
:101370002222222222244222222222222442222209
:10138000222222224422222222222222222222221B
:101390002222244222222222222222222224222209
:1013A00022222222242222222222222442222222F9
:1013B00022222222222222222222442222222222EB
:1013C00022222222224222222222222222222222DD
:1013D000000000000000000000000000000000000D
:1013E00000000000000000000000000000000000FD
:1013F00000000000000000000000000000000000ED
:1014000000000000000000000000000000000000DC
:1014100000000000000000000000000000000000CC
:1014200000000000000000000000000000000000BC
:1014300000000000000000000000000000000000AC
:10144000000000000000000000000000000000009C
:10145000000000000000000000000000000000008C
:10146000000000000000000000000000000000007C
:101470000000000000000000000111111111111204
:1014800022222220000000000000000000000000D6
:10149000000000000000000000000000000000004C
:1014A0000011111111111111111111110000000081
:1014B00000000000111111111100000000000000D7
:1014C0000000000000000000001123345552226685
:1014D0006666661100000000000000011111111184
:1014E00011111111120000000000000000000000A6
:1014F00000117888888888888838461100000000A4
:1015000000000001116666666111111111000000F2
:10151000000000000000000000117888888888889A
:10152000888836110000000000000001118888330F
:101530009933345511000000000000000000000045
:101540000011788888888888888836110000000013
:1015500000000001118888888888888511000000B3
:10156000000000000000000000117888888888884A
:10157000888836110000000000000001118888886A
:10158000888888851100000000000000000000002D
:1015900000117888888888888888361100000000C3
:1015A0000AAAAAA11188888888888885110BCC701E
:1015B00000000000000000000011788888888888FA
:1015C0008700000AAAAAAAAAAAAAAA01118888883A
:1015D0008888888517CBBBCB000000000000000086
:1015E0000011783883888839D9AAAAAAAAAAAAAAEF
:1015F000AAAAAA0111888888888888851BB7007CD8
:10160000000000000000000000117888888887EF43
:10161000DAAAAAAAAAAAAAAAAAAAAA0111848838F6
:1016200088838845EB70000E000000000000000079
:10163000001114843859DFFDAAAAAAAAAAAAAAAA44
:10164000AAAAA0011148438433483485BB00000096
:1016500000000000000000000011138380EFFFDA9B
:10166000AAAAAAAAAAAAAAAAAAAAA0011138388430
:1016700088488385BC0000000000000000000000D6
:10168000001178480DFFFDAAAAAAAAAAAAAAAAAA86
:10169000AAAA90011184834833843845BC00000015
:1016A0000000000000000000001178480AFFDAAADC
:1016B000AAAAAAAAAAAAAAAAAAAA00011184883830
:1016C00088838845BC000000000000000000000086
:1016D000001174430AADAAAAAAAAAAAAAAAAAAAAE7
:1016E000AAAA0BB71133443344344435BC00000B71
:1016F000000000000000000000111485AAAAAAAA98
:10170000AAAAAAAAAAAAAAAAAAAAABCBB144444442
:1017100044444445BC7007BB0000000000000000CA
:1017200000117339AAAAAAAAAAAAAAAAAAAAAAAA04
:10173000AAAA000ECCE3334344333335BCCCCBBE32
:10174000000000000000000000111997AAAAAAAA30
:10175000AAAAAAAAAAAAAAAAAAAA00017CC59955B5
:1017600061111112BB77770000000000000000003B
:1017700000111112AAAAAAAAAAAAAAAAAAAAAAAA3D
:10178000AAAA000110CC711111111112BB000000A6
:10179000000000000000000000011110AAAAAAAA7F
:1017A000AAAAAAAAAAAAAAAAAAAA0000117CC11136
:1017B00011000002BB00000000000000000000005B
:1017C00000000009AAAAAAAAAAAAAAAAAAAAAAAA18
:1017D000AAE90000000BCC7000000002BB00000072
:1017E000000000055EEE555000000009AAAAAAAA52
:1017F000AAAE9ADD9AEEDDEDDEEE0000007BBCC7FE
:1018000000000002BB000000000004EEEEEEEEEE71
:1018100047000009AAAD9EE9DEDAEED9EE9EEEEEB3
:10182000EEEEA00000BB50CC00000002BB000000A8
:101830000027EEEEEEEDDDEEEEE55007DDEDDEEE3F
:10184000EEEEEEEDEEDEEDDDDDDD7BBCCBBB117C47
:10185000C7111112BB1111110207EEEEEEEEEEFEF2
:10186000EFEEE510EEEEEEEEEFDEDFEEFFEEFDFF6B
:10187000FFFF77BBBE211110CC111112BB1111114A
:101880001050EEEEEEEDEFFDEEDEEE5EEDDDDDDDB9
:10189000DDFFFDFFFFFFFFFFFFFFD622221166667F
:1018A0007CC76662BB66666600EEEEEEEEEEEFFEAD
:1018B000EFFEEEEEFDEFFFFFFFFFFFFFFFFFFFFF7D
:1018C000FFFFF1161161611610CC1612BB61616148
:1018D00000EEEEEEEEEEEEFDDFEDFEEEEFFFFFFFD3
:1018E000FFFFFFFFFFFFFFFFFFFFFD161161611606
:1018F000117CC717E56161610005EEEEEEEEEEDFEB
:10190000FEEEFEEEEDFFFFFFFFFFFFFFFFFFFFFF1D
:10191000FFFFFF06116161161167CCCCB7616161F1
:101920000077EEE7EEEEEEEFFFEFFFFEEEFFFFFFDC
:10193000FFFFFFFFFFFFFFFFFFFFFFD611616116F3
:1019400011610BBBBB21616107E5EEE7EEEEDEEE58
:10195000FEEFFDEEEEEFFFFFFFFFFFFFFFFFFFFFDC
:10196000FFFFFFF611616116116117BBCBB1616119
:1019700005EEEEEEEEEEEFEEEEEEEEEEEEEFFFFF4C
:10198000FFFFFFFFFFFFFFFFFFFFFFF21161611687
:101990001161160BDBCB116107EEEEEEEEEEEEEE13
:1019A000EDFEEEEFFEEEFFFFFFFFFFFFFFFFFFFF8D
:1019B000FFFFFFFA116161CCCCD66207DDBCB161DB
:1019C000000EEE0EEEEEEEEEEEFEEEEEEEEEFFFFB3
:1019D000FFFFFFFFFFFFFFCCCCFFFFFF11616CA9F2
:1019E00017777C72ADEECB11005EE007EEEEEEED08
:1019F000EEEEEEEEEEEEEFFFFFFFFFFFFFFFFFDF8D
:101A0000FFCCCCFF01616DD77BBCCCCB25EEECB11C
:101A100005EEEE0EEEEEEEEEEEEEEEEEEEEEEFFF9D
:101A2000FFFFFFFFFFFFCCAFFFFCCBCF01616FA932
:101A3000112CCCFC70EEEECB000EEEEEEEEEEEEEE8
:101A4000EEEEEEEEEEEEEFFFFFFFFFFFFFFFCFDF6C
:101A5000FFFCCFCF71616FA9112CCCECE765EEECE8
:101A6000000007EEEECCCCDEEEEEEEEEEEEEEEFF9C
:101A7000FFFFFFFFFFFFCCFFFFFCCFCFD1616FA9BE
:101A8000112CCCECE561EEEE000060EEECDEEBBB81
:101A9000BCEEEEEEEEEEEEFFFFFFFFFFFFFFCCCC65
:101AA000CCCCCCCFD1616CFFFFFCCCECE56165EE1A
:101AB000000011EECF3EEEECCCEE700EEEEEEDFF40
:101AC000FFFFFFFFFFFFCFDDDDDFCFBF71616FCC19
:101AD000CCCCCCECE56161EE0077005FFF3EEEEC34
:101AE000CCEE0007E00EEDFFFFFFFFFFFFFFCF880A
:101AF000888FCFCEE1616F88888CCCECE557575E3C
:101B000007EEE00FBF3EEEECCCEE00E700200DFF4D
:101B1000FEFFFEDFEEFFFF88888FCFBE71616F880A
:101B2000888CCCFD4444444410EEEE0FBF3EE00CE4
:101B3000CCE705EE06620FFEEFDEDFEEEEEEFF888D
:101B4000888FCFB444444F88888CCC444444444468
:101B5000620EE70FBF37700CCC2100770660EEEE07
:101B6000EDEEED4444555D88888FCFB444444F89F1
:101B7000999FFC44444444440000000FBF37777CE5
:101B8000CC6660775209A4444444444444444D859F
:101B9000297DFFB4444444D448FCCD4444444444E7
:101BA0000026610FDCFFFFFCCC55554444444444FF
:101BB00044444444444444D443EEBE444444444432
:101BC00044444444444444440212044EFFCCCCCC2C
:101BD000CC4444444444444444444444444444443D
:101BE00044444444444444444444444400000000C5
:101BF000444444444F88888CCC4444444444444442
:101C00004444444444444444444444445555555550
:101C10000000000000000000444444444F32222FE2
:101C2000FC444444444444444444444444444440C0
:101C30000000000000000000000000011166666660
:101C40004444444444E433DCBE44444444444455A2
:101C500055555570000000000000000000222226AB
:101C60006666666666666666444444444444444424
:101C700044444444700000000000000000000211D1
:101C8000166666666666666666666611161000000B
:101C90004444444444444444444444444577000058
:101CA00000000166666666666666666666222211E2
:101CB00011200000020000007444444444444444A1
:101CC00044444444444440666666666666666611FB
:101CD00010020000002000000020000002000000B0
:101CE00010544444444444444444444444444447D5
:101CF00055226111200200000002000000200000B7
:101D000000200000020000001112744444444444C6
:101D100044444444444444444455200000020000E8
:101D2000000200000020000000200000020000006F
:101D3000000122222222222333333333333333333D
:101D400033333333333333333333333345665473BD
:101D50003333333333856694000122222222222337
:101D60003333333333333333333333333333333343
:101D700033333337456651733333333333896669CD
:101D800000012222222222233333333333333333ED
:101D90003333333333333333333333337566513380
:101DA00033333333337496690001222222222223F3
:101DB00033333333333333333333333333333333F3
:101DC0003333377745665433333333333337966998
:101DD000000122222222222333333333333333339D
:101DE0003333333333333333333334999559547373
:101DF0003333333333375669000122222222222320
:101E000033333333333333333333333333333333A2
:101E100037744898444898444733333333375669C6
:101E2000000122222222222333333333333333334C
:101E3000333333333333333337855A973337BA55E4
:101E4000873333333337566900012222222222237B
:101E50003333333333333333333333333333333352
:101E600078BCD177333371DCB87333333337566989
:101E700000012222222222233333333333333333FC
:101E8000333333333333337715CD04733333370D73
:101E9000C517333333375669000122222222222309
:101EA00033333333333333333333333333333378BD
:101EB0005CD0733333333370DCA9733333375669F3
:101EC00000012222222222233333333333333333AC
:101ED0003333333333333378ADD1733333333370F8
:101EE000DDC973333337966900012222222222236F
:101EF000333333333333333333333333333333786D
:101F0000CEE0733333333371EEC9773333379669A9
:101F100000012229994222233333333333333333BD
:101F2000333333333333349ACEE073333333337054
:101F3000EEDC94333333719600014229AC842223C2
:101F40003333333333333744733333333333345CE2
:101F5000DEED17333333771DEEED51333333345623
:101F600000012229CDC9422373333337737374556B
:101F7000873333333333345EEEEED177373371DE6C
:101F8000EEED513333333456000142248ADDB988F3
:101F90008888888888888BDA873333333333345D95
:101FA000EEEEE001111110EEEEED51333333345605
:101FB000000142248ADD5AAAAA55AA5AAAB8880A58
:101FC000873333333333345DEE0000000000011EED
:101FD000EEDD51333333348600014249B0A5CDEEF6
:101FE000EECADDCEED177778873333333333345A87
:101FF000CE17777777737770EEDC513333333778DA
:1020000000014279CECAD114418AEDABCB84444958
:10201000873333333333345ACD8444444444441BEC
:10202000DEDC51333333333400014249CECC017707
:10203000778AED5999999999473333333333345A21
:10204000CEC5BBB55555BBB5CEDC51333333333775
:1020500000009995ACA5CBBBBB9AED9477777777C9
:10206000733333333333345ACECBFFFD555BFFFD2F
:10207000CEDC51333333333300005AB55A55AAAA54
:10208000AACCDC9733333333333333333333345ADB
:10209000CECBFFFB555BFFFBCEDC51333333333309
:1020A00000005B855555555555DD55973333333312
:1020B000333333333333345ACEC5555555555555CF
:1020C000CEDC51733333333300005B89555555559E
:1020D00055AB477733333333333333333333345AB6
:1020E000CCDDDDDA555ADDDDDCCCAB873333333381
:1020F00000009B89555559BBBBB847373333333341
:10210000333333333337715ACCDDEEEA555ADEEED2
:10211000DCCCCA573333333300B588855555581155
:1021200011115433333333333333333333379ACC9E
:10213000CCCCCDEA555ADDCCCCCCCA573333333373
:1021400000C58BBBB88881111111547333333333FD
:102150003333333333379ACCCCCCCDEA555AEDCC2C
:10216000CCCCCA573333333300B98B9811111111CA
:1021700011119473333333333333333333379ACCCE
:10218000CCCCCDEA555AEDCCCCCCCA573333333313
:10219000DAB8111111111111199877333333333320
:1021A0003333333333379ACCCCCCCDDA555AEDCCEC
:1021B000CCCCCA5733333333D581111111111111DE
:1021C00084443333333333333333333333379ACC79
:1021D000CCCCDDDA555AEDCCCCCCCA5733333333C3
:1021E000D5111111111111898773333333333333FF
:1021F0003333333333379ACCCCCCED55555ADDCC11
:10220000CCCCCA5733333333B111111111111181B1
:10221000187333333333333333333333333795AC8A
:10222000CCCCED55555AEDCCCCCCA557333333330C
:10223000B11111111111118115433333333333337C
:10224000333333333337888ACAACED55555ADDCA38
:10225000CAAA888733333333811111111111888150
:1022600015433333333333333333333333377778BF
:1022700055ACDD55555ADDC555597373333333337A
:102280001111111111111881854333333333333355
:102290003333774444444778555ACA555555CCA5ED
:1022A00055597373333333331111111111111188CF
:1022B0008543333333333333333371555555517885
:1022C0005555555555555555555973333337337302
:1022D000111111111111118115433333333333337C
:1022E00033378DEEDCCCAB98B55555555555555516
:1022F0009B8894733749999711111111111111810C
:1023000085433333333333333371CDDDDAAAAAB89F
:102310008955BB9999999959B8889844448AAAC112
:10232000811111111111888885433333333333738D
:10233000774ADDC555555B811895888888888B5804
:1023400088888B5555ACCDEA8811111111188B99DD
:10235000847333333748888888DDCC55ABBB111183
:1023600011119B8111889BB8811118B888BAACDD16
:102370008811111111888B9817333377778555554C
:1023800055DDCA55B888111111119B8111185B8850
:102390008111118888B99ACD55B888888895587761
:1023A0007333345555ACACC555DD5B8888111111BC
:1023B00011118B51111158188111111118888B5D51
:1023C000DDBBB9BBBB844423333748ACDDDDCCC5B2
:1023D00055DD5B888111111111118B588811B811CD
:1023E0001111111111888B5DEEC55AA5554222239A
:1023F00033379ACDEEEECCC555DD5B8881111111D6
:1024000011118B55551181111111111111188B5D7D
:10241000DE00000ED5422223374BDED1771DCCA53E
:1024200055CC5B888111111111111188881181110E
:102430001111111111188B5DCEE0000ED54222232F
:10244000748CEED7371ECCA555AA59B8811111113D
:102450001111118888118111111111111188BB5DA1
:10246000CEEEEEECA542222745DEEE07771DCCC569
:1024700055AA555555558888811111888888581155
:10248000188855555555555DDEEECCCA5542222467
:102490008ADEEEE0110ECCC55ACA5AA5558111113B
:1024A0001888BB9998B95BB81111185555AAAA5C40
:1024B000CEEDCCCAA5422279ACEEEEEEEEEECCC566
:1024C000ACAA5ACA5581111118889A559BB55598CE
:1024D0008111185AAAACAA5AACCCEEEDD5422249C9
:1024E000CEEEEEEEEECCCCCCCCA5AACCCCA5555500
:1024F000B111105555555B1115555ACDEEDC555A95
:10250000DDDDEEEDC542228BCEEEEEEDDDCCCCCCAA
:10251000CCA5AAACCDDDDCAAB8888B5555555B8817
:10252000BAAACDDDDCCA555AEEEEEEECA542245C2B
:10253000DEEEEEECCCCCCCCCCCA5555ACEEEEDCC30
:10254000A5555555555555555CCCEDDCA555555AF9
:10255000DEEEEEECA542245CCCCCCCCCCCDEEEECBA
:10256000A55555555ACCCDEEED1777777777777718
:102570001DEECAA55555555ACEEEEEEDC58448AAB6
:10258000CCCCCCDCDCDDDDDCA555A55555AAACDE1C
:10259000ED177777777777741DDDAA555AAAAAAA1F
:1025A000CEEEEEEED5555ACCCCCCDEEEEEDCCA55F6
:1025B0005A55CAA555555ACCCCAABBBBBBBBBBBA56
:1025C000ACA555555CCCCCC5CEEEEEEED5AAAACDC9
:1025D000DDDDCCCCCAAA555A9895CCCAAAACDDDDB3
:1025E000ED177444774774441DDEDCAAACCCCCA54F
:1025F000CEEEEEEED5ACCCCEEEDDCCA55555555994
:102600008495CCCCCCCCEEEEEE173333333333376A
:102610001EEEEDCCCCCCCCA5DEEEEEEED5AACCCC2D
:10262000CCA555555555559885ACCCCCCEEEEEEE97
:10263000EEE1733333333371DEEEEEEEECCCCA5A97
:10264000DEEEEEEEDAAAAAAAAA55555555598888A3
:102650009AACCCCDDEEEEEEEEEEE17333333371020
:10266000EEEEEEEEEDCCCA58CEEEEEEEDCA5555514
:102670005555555555A96469ACCCCCCDEEEEEEEE72
:10268000EEEED177777771DEEEEEEEEEEEDCCA5845
:102690000011112122223344564565434333473705
:1026A00077777777777211111111111111117771F5
:1026B00000111110110000000111112122223345D7
:1026C00066655654333334787777777777211111ED
:1026D0001111111121111777710011111010000142
:1026E000011112122222334666665664433334289F
:1026F00077777777772111111111111111277777DA
:10270000771107771110000111112122222333556F
:10271000666665664433334787777777772211217A
:1027200011111111111277771117777777777100DF
:1027300011112122223334566666665664433333C0
:10274000737777777722211211111111111122114C
:102750001111177777771110111212222334556651
:10276000666666656544333427277777777222116A
:1027700021111111111111111111112777777710F2
:10278000111212222233345666666665565443335C
:10279000377777777777772112111111111111118E
:1027A000111111122777777111112122222333453C
:1027B0006666666655644443337327777777777226
:1027C00012111111111111111111111111111111F8
:1027D000111112122222333566666666645643442E
:1027E0003332337777777777212111111111111156
:1027F0001111111111111111011111212222233472
:102800006666666665456433433333427777777728
:1028100072121211111111111111111111710111F5
:102820000111111212222334455666555434564371
:10283000343333343777777777222121111111110F
:102840001111111111111101011111112122234333
:1028500033456654443345643333333342777777B3
:1028600077222212111211111111111111111211CD
:10287000001111112122233333345433334334569E
:102880004333333334777777777222212111111153
:1028900011111111111111110001111121222333F4
:1028A0003333533333332345543343333337777719
:1028B0007777222212111211111111111111111118
:1028C00000011111212222222233433223333224E8
:1028D00055433433333477777777722222211121AD
:1028E00011111111111111110000111112122222D6
:1028F0002223332222223222455443433433327777
:10290000777272222222111221111111111111114B
:10291000000001111121122222223222222222221F
:10292000135544343343337777322722222222113E
:102930002211111111111127000001111112211181
:102940001222222222222222123554444342237789
:10295000772322222227722712211111111111111E
:102960000000001111111299ABBA99221111111125
:1029700021125544443427777332322222C99BBB3B
:1029800099C211111111111700000011111DC9BBBD
:10299000BBBBBBAACCD2222211112554444347779A
:1029A000274323CC9ABBBBBBBBBAC77111111277AB
:1029B000E0000000111AA9ABBBBBBABBBBAC111144
:1029C0001110015544444377787439AABBBABBBB94
:1029D000BBBBBC7711111121EE00000000CBAACACD
:1029E000ABBAACAAABBBC1111000001554444432C1
:1029F00077879AAAABAAAABBBBBBBAD17712777268
:102A0000EEE00000009AAA9AAAAAA9AAABBBBD0050
:102A10001100000045444443377CAAAAABA9AAAAE6
:102A2000BBBBBBC777777222EEEE00000CAAAB9A55
:102A3000AAAAA9AAAABBBC000010000004544344DF
:102A4000337AAAAAAAB9AAAAABBBBB97777777773A
:102A5000EEEEE0000CBAABBAAAAA9AAAAAABBB00E7
:102A6000000100000035543244CAAAAAAABB9AAA9F
:102A7000AABBBBA777777777EEEEEE000CAABAAACF
:102A8000AAA9AAFBAAAABB90000010000002554206
:102A900034AAAAAAA22BB9AAA9ABBBA77777777742
:102AA000EEEEEEEE0CAABBAAAA9A9FFF9AAABB90E2
:102AB00000E000000000135443AAAAAA2222CB9AE5
:102AC000ACAAABA777777777EEEEEEEEECAAAB9AEF
:102AD00099AFFFF9AAAABB90EEEEE0000000002536
:102AE00054AAAAAAA22226B9A9AAABA77777777770
:102AF000EEEEEEEEECAAABDC9CCFFFAAAAA9BBCE11
:102B0000EEEEEE0000000000459AA9BAAAB229CC68
:102B10009C9AABA777777777EEEEEEEEEDAAAA9ABE
:102B2000B9AAAAAAAA9ABBEEEEEEEEE00000000057
:102B300002CAAB9BABBAB9AAAA9AAB977777777759
:102B4000EEEEEEEEEE9AA9AAB9AAA9AAAB9BBBEE4D
:102B5000EEEEEEEEE000000000CABB9AABAAAA9A25
:102B6000AAA9BBC777777777EEEEEEEEEEE9CCAAAF
:102B7000AB9AAB9AABAABBEEEEEEEEEEEE00000027
:102B800000CAB9AAABCAAA9AABAC9C777777777719
:102B9000EEEEEEEEEEEEEECAAB9AAB9AABB9BBEE52
:102BA000EEEEEEEEEEE0000000CAB9AAB9AAA9AABC
:102BB000BA37777777777777EEEEEEEEEEEEEEECEC
:102BC000AAB9AA9AAAB9BBEEEEEEEEEEEEEEE000DE
:102BD000000C9CAAB9AAB9AAAD3377777777777733
:102BE000EEEEEEEEEEEEEEEEC9CAAA9AAABE99EEAF
:102BF000EEEEEEEEEEEEEE0000000CABB9ABB9C9B6
:102C0000D827777777777777EEEEEEEEEEEEEEEE8B
:102C1000EEEE9AECABAEEEEEEEEEEEEEEEEEEEEEAD
:102C20000000000A90CA9442883822777777277785
:102C3000EEEEEEEEEEEEEEEEEEEEEEEEDCDEEEEED6
:102C4000EEEEEEEEEEEEEEEEEE00000000000734EB
:102C50003282888277227777EEEEEEEEEEEEEEEEBF
:102C6000EEEEEEEEEEEEEEEEEEEEEEEEEEEEEEEE84
:102C7000EEE00000000000084388888882827777B1
:102C8000EEEEEEEEEEEEEEEEEEEEEEEEEEEE7EEED4
:102C9000EEEEEEEEEEEEEEEEEEEEE0000000000008
:102CA0000733888883882777EEEEEEEEEEEEEEEEC1
:102CB000EEEEEEEEEEEEEEEEEEEEEEEEEEEEEEEE34
:102CC000EEEEEE0000000000000788888888880784
:102CD000EEEEEEEEEEEEEEEEEEEEEEEEEEEEEEEE14
:102CE000EEEEEEEEEEEEEEEEEEEEEEEE00000000BC
:102CF0000000078888888888EEEEEEEEEEEEEEEEB5
:102D0000EEEEEEEEEEEEEEEEEEEEEEEEE0EEEEEEF1
:102D1000EEEEEEEEEE000000000000070888888866
:102D2000EEEEEEEEEEE0EEEEEEEEEEEEEEEEEEEED1
:102D3000EEEEEEEEEEEEEEEEEEEEEEEEEEEE00008F
:102D40000000000000708888EEEEEEEEEEEEEEEE93
:102D5000EEEEEEEEEEEEEEEEEEEEEEEEEEEEEEEE93
:102D6000EEEEEEEEEEEEEE000000000000000708D2
:102D7000EEEEEEEEEEEEEEEEEEEEEEEEEEEEEEEE73
:102D8000EEEEEEEEEEEEEEEEEEEEEEEEEEEEEEEE63
:102D90000000000000000000EEEEEEEEEEEEEEEEC3
:102DA000EEEEEEEEEEEEEEEEEEEEEEEEEEEEEEEE43
:102DB000EEEEEEEEEEEEEEEEEE00000000000000B5
:102DC000EEEEEEEEEEEEEEEEEEEEEEEEEEEEEEEE23
:102DD000EEEEEEEEEEEEEEEEEEEEEEEEEEEEEEEE13
:102DE000EEEEE00000000000EEEEEEEEEEEEEEEEB7
:102DF000EEEEEEEEEEEEEEEEEEEEEEEEEEEEEEEEF3
:102E0000EEEEEEEEEEEEEEEEEEEEEEE000000000A8
:102E1000EEEEEEEEEEEEEEEEEEEEEEEEEEEEEEEED2
:102E2000EEEEEEEEEEEEEEEE2EEEEEEEEEEEEEEE82
:102E3000EEEEEEEEEE000000EEEEEEEEEEEEEEEE7C
:102E4000EEEEEEEEEEEEEEEEEEEEEEEEEEEEEEEEA2
:102E5000EEEEEEEEEEEEEEEEEEEEEEEEEEEEE0008E
:102E6000EEEEEE1EEEEEEEEEEEEEEEEEEEEEEEEE52
:102E7000EEEEEEEEEEEEEEEEEEEEEEEEEEEEEEEE72
:102E8000EEEEEEEEEEEEEEEEEEEEEEEEEEEEEEEE62
:102E9000EEEEEEEEEEEE0EEEEEEEEEEEEEEEEEEE32
:102EA000EEEEEEEEEEEEEEEEEEEEEEEEEEEEEEEE42
:102EB000EEEEEEEEEEEEEEEEEEEEEEEEEEEEEEEE32
:102EC000EEEEEEEEEEEEEEEEEEEEEEEEEEEEEEEE22
:102ED000EEEEEEEEEEEEEEEE000000000000000082
:102EE00000000000000000000000000000000000E2
:102EF00000000000000000000000000000000000D2
:102F0000EEEEEEEEEEEEEEEEEEEEEEEEEEEEEEEEE1
:102F1000EEEEEEEEEEEEEEEEEEEEEEEEEEEEEEEED1
:102F2000EEEEEEEEEEEEEEEEEEEEEEEEEEEEEEEEC1
:102F3000EEEEEEEEEEEEEEEEEEEEEEEEEEEEEEEEB1
:102F4000EEEEEEEEEEEEEEEEEEEEEEEEEEEEEEEEA1
:102F5000EEEEEEEEEEEEEEEEEEEEEEEEEEEE0EEE71
:102F6000EEEEEEEEEEEEEEEEEEEEEEEEEEEEEEEE81
:102F7000EEEEEEEEEEEEEEEEEEEEEEEEEEEEEEEE71
:102F8000EEEEEEEEEEE030EEEEEEEEEE00EEEEEE1B
:102F9000EEEEEEEEEEEEEEEEEEE0EEEEEEEEEEEE5F
:102FA000EEEEEEEEEEEEEEEEEEEEEEEEEEEE0EEE21
:102FB000EEEEEEEEEEEEEEEEEEEEEEEEEEEEEEEE31
:102FC000EEEEEEEEEEEEEEEEEEEEEEEEEEEEEEEE21
:102FD000EEEEEEEEEEEEEEEEEEEEEEEEEEEEEEEE11
:102FE000EEEEEE7EEEEEEEEEEEEEEEEEEEEEEEEE71
:102FF000011223332010000011122333210000118D
:1030000000111011110111001111111111111111E3
:1030100014441100010100000112233220000001BC
:10302000121123332110011100111011100111018F
:103030001110111111111111144111001100000092
:10304000112233321000001101222333210000002D
:103050000011011111111111111111111111111181
:1030600044411100110000001223333221100111DC
:10307000002223332201110011001110011100114F
:103080000011110111111111444111010110000031
:10309000022333221110110102222333325556002C
:1030A00000755555561111111111111111111111F0
:1030B00044411001111000000223322200011102CC
:1030C00022287355557077755555555555558811A6
:1030D000111111111111111188411001111000006D
:1030E0001223332220122116555666665555555522
:1030F0005555555555555555611111111111111150
:103100008811101111000000222333322666555514
:103110009995AAAA55555555555555555555555531
:103120005551111111111111884110111100000098
:1031300022233335555555AA9999666665A5A55537
:1031400055555555555555555770111111111111AA
:103150008841401414000000222333555555A544DE
:1031600088666666655A555A5555555555555611D2
:1031700014444111111141118844101444400000BD
:103180000222335AAAAAA444488888665AA86AA088
:1031900006A55550001444444444884144444444E2
:1031A00088844014441000002222335AAAAAA5445D
:1031B00044448887AA966665595A50144444444842
:1031C0008888888411414414888440144440000055
:1031D0002212235AAAAAAAA59944447A5A88886630
:1031E0006A7A5514448888888888666661144444DD
:1031F0008884411444400000122222AAAAAAAAAA42
:10320000AAAA5155A94448888A7AA54888888886F8
:1032100066666666664444448884411444410000FE
:10322000012222AAAAAAAAAAAAAAAAA55144444447
:1032300088A5A56888686666666666666669677753
:10324000788777044440000011111A595AAAA999A5
:10325000AAAAAA5AAA9044444195A56666666666DB
:103260006666688888555577788677011114B000AE
:1032700011111095A55590007AAAAA5AAAAA55111B
:1032800000015A546666666666811866655555562D
:103290007788777144447000111120005AA0000013
:1032A00000AAAA5A59AAAAA500016A556666444806
:1032B000000555555555555557688771444440008C
:1032C0001111100007500010009AAA5AAA7A5AAA9F
:1032D000AAA555A566555555555555555555555598
:1032E00055568777444440004111110000000444C2
:1032F000000AAA5AAA17059AAAAAA5AA5555555569
:10330000555555555555555555555977014444B062
:1033100044111111000014844000555AAA79A5A542
:10332000555AA5AAAA55555555555555555555554E
:10333000555555506644444B444444441000148849
:1033400040005A597AAA95A959AAA5AAAAAA5555D8
:10335000555555555555555555555595AA44444BB4
:103360004444444441001888841000995AA99AAAF8
:1033700090AA5AAAAAAAA555555555555555555519
:103380005555591AAA1444444444444444401448EA
:103390004410000000055555AAA55AAAAAAAAAA534
:1033A00055555555555555555555561AAA714444B8
:1033B0004477444744471488440000000000079ABB
:1033C000A75AAAAAA7777AAAA5555554655555555F
:1033D0005555540640B744444444444114410444C0
:1033E0008041000000000000955555A5900005AAF9
:1033F000AA555A95AA5555556661111111101444D4
:103400007444474111110141011100000000000006
:1034100000005A700001009AAAAA504AAA55111039
:103420000011100BB1850144444444444410001081
:103430000111000000000000000000000010110A4F
:10344000AAAAA515A51111111100111BC2009044C3
:103450007477477777774100111000000000000073
:103460000000000001804400AA51111770110000F3
:103470008661000000049D744774777777777777CB
:103480007111111110B00000000000000144009AF9
:1034900050922200000111108800001CEC06677198
:1034A00077447744777777777774771111BB00008B
:1034B000000000000181441555555555722E00003D
:1034C0000110001EEC7666777474777777777777DC
:1034D0007777777741BBB01100000000014144408D
:1034E00000007777000000016666001CBB07666776
:1034F000774777777777777777777774744790110F
:1035000011100000014411100000000001EC000641
:103510006666000007777666444444474444744432
:10352000744477777777DDD1111110000181444021
:10353000000000000EEE0006666600011777776651
:1035400044444444444444447747777777777DD76D
:103550007771111101441110000000000CCC00081B
:103560008000147777777776444444444744447422
:1035700044774447747777DD7777741100144444B7
:1035800000000000000000014477777777999DD90B
:103590004444444447444474477774777777777D4D
:1035A000F977777700004444100000000001177796
:1035B0007777777779DDFFFF444444444447747755
:1035C0004777777777777779DCD7777777700000E9
:1035D000011100017477777777777999DDFFFCCC5B
:1035E0004474474774777777777777777777777704
:1035F0009FC97777777777771117777777777777A7
:103600009DDDDDDDDDFCCCCC44444444477477775C
:1036100077777777777777777DFCD777777777774F
:1036200077777777777799DDDDDDDDDDDDFCCCCC75
:1036300074447744477747777777777777777777E3
:10364000779FC977777777777777777777779DDF02
:10365000FCCCFFFDDDFCCCCC7444774777777777E3
:1036600077777777777777777779FCD77777777703
:10367000777777777779DDDFCCCCCCCCCCCCCCCC62
:1036800047777777777777777777777777777777FA
:103690007777DFCD77777777777777777779DDFF0C
:1036A000CCCCCCCCCCCCCCCC777777777777777702
:1036B0007777777777777777777779FCD7777777B3
:1036C0007777777997DDDDFFCCCCCCCCCCCCCCCC6C
:1036D000777477777777777777777777777777777D
:1036E000777777DFCC97777777777777799DDDFF77
:1036F000CCCCCCCCCCCCCCCC7747777777777777E2
:10370000777777777777777777777779FCE7777752
:103710007777777779DDDDFFCCCCCCCCCCCCCCCC3B
:103720007777777777777777777777777777777729
:10373000777777777FCE77777777797999DDDDFF40
:10374000CCCCCCCCCCCCCCCC777777777777777761
:1037500077777777777777777777777777FCEC77FF
:10376000777997D77DDDDFFFCCCCCCCCCCCCCCCC63
:1037700066777777777777777777777777777777EA
:10378000777777777779CCE7979999999DDDDFFF00
:10379000CCCCCCCCCCCCCCCC866777777777777712
:1037A00077777777777777777777777777779CCE2D
:1037B000B9779999DDDDDCCCCCCCCCCCCCCCCCCCE5
:1037C00068666777777777777777777777777777B9
:1037D00077777777777777FCEDDDDDDDDFFFFCCC82
:1037E000CCCCCCCCCCCCCCCC6886667777777777D2
:1037F00077777777777777777777999999DDDDDCC2
:10380000CEEDDFDDDFFFFCCCCCCCCCCCCCCCCCCC3B
:10381000666886677777777777777777777777DDF3
:10382000DDDDDDDDDDDDFDDDFCCECFFDFFFFFCCC34
:10383000CCCCCCCCCCCCCCCC6666886666777777A3
:1038400077999999D99DDD9DDDDDDDDDDDDDDDDD5E
:10385000DDFCECFFFFFFFCCCCCCCCCCCCCCCCCCC7E
:1038600076666688666799D999DD999D9D9DD9DDB3
:10387000DDDDDDDDDDDDDDFDDDDFCCEFFFFFFCCC03
:10388000CCCCCCCCCCCCCCCC77666666886699990F
:10389000999D99DDD9DDDDDDDDDDDDDDDDDDDDDD24
:1038A000DDDDDFEEEFFFFCCCCCCCCCCCCCCCCCCC7B
:1038B00099D666666886699DDDDDDDDDDDDDDDDDF1
:1038C000DDDFDDDFFDDDFDDDFFDDDFFCEECFFCCC90
:1038D000CCCCCCCCCCCCCCCC99D996666668666680
:1038E000DDDDDDDDDDDDDDDDDDDDDDDDDDDDFDDDE8
:1038F000DFDDDFFFFEEEFCCCCCCCCCCCCCCCCCCC1A
:10390000799999666666866669DD9D9DD9DDDDDDFE
:10391000DDDDDDDDDDFDDDDFDDDFDDDFFFCEEECC9E
:10392000CCCCCCCCCCCCCCCC6999DD976666668807
:10393000666DDDDDDDDCEDDDDDDDDDDDDFFDDDFF4B
:10394000DDDFDDDFFFFFEEECCCCCCCCCCCCCCCCCC7
:1039500000010000000000012000003400000344CA
:1039600044444444444444410000002420000000F6
:103970000230000000000100000100000000000112
:10398000200000340000034444444444444444417F
:1039900000000021000000000230000000000100D3
:1039A000000100000000000120000034000003348A
:1039B00044444444444444410000002420000000A6
:1039C00002300000000001000001000000000001C2
:1039D000200000340000033444444444444444433D
:1039E0000000002100000000023000000000010083
:1039F000000100000000000120000034000003442A
:103A00004444444444444442000000230000000075
:103A10000230000000000100000100000000000171
:103A200020000034000003444444444444444441DE
:103A30000000002100000000023000000000010032
:103A400000010000000000012000003100000334EC
:103A50004444444444444442000000242000000004
:103A6000023000000000010000030000000000031D
:103A700020000021000003444444444444444441A1
:103A80000000002100555500023000000000010038
:103A90000003000000000003200000340000023496
:103AA00044444444444444410000002367888879E6
:103AB0006230000000000100000100000000000171
:103AC000200000340000031444444444444444317E
:103AD0000000002358888888AB6C000000000100BB
:103AE0000001000000009777D0000034000003447C
:103AF000444444444444443300000023DA88888822
:103B000089B50000000001000003000000788888EB
:103B1000889A853400000014444444444444444199
:103B20000000C6230588888889BE000000000200C6
:103B3000000100000078888888887D34CD0000145A
:103B4000444444444444444100DD9521009888881D
:103B500089BE000000000100000100000098888874
:103B60008888003DAA00001444444444444444412D
:103B700006A88E2420588888A9BE000000000100F5
:103B80000003000000E888888888000DA8A7D344B7
:103B9000444444444444444D7888AE2420588888A2
:103BA0009BBE0000000001000001000000E78888C3
:103BB0008885000DA888A54444444444444444579F
:103BC0008888A5242058888889BE0000000001004C
:103BD0000001000000EBAA888885000D9A8888A75C
:103BE00056666D4446669A88888AB521006A888838
:103BF00089BD0000000000000001000000EBB98852
:103C00008885000DE7888888888AAA777AA88888B6
:103C1000889EF6230069888879BC000000000000B7
:103C200000010000005BB7888885000169A88888CA
:103C3000888888888888888A9BBE6623006A88A9C5
:103C4000EBEC00000000000000010000000BB88851
:103C5000888500346B78888888888888888888A7D1
:103C6000B9BEFF24206AA7B5DE50000000000300A3
:103C700000030000000B9BAA887600346F9A8888A6
:103C8000888888888888887AA79BEBD4206A8905E9
:103C90009B500000000001000003000000059BBBDA
:103CA00097BE00345B997A8A888888888888888853
:103CB00088ABBBD3006A8506DED00000000001009F
:103CC000000100000006B060DE9B00215B7A88885E
:103CD000888888888888888888979B53006A88FBAA
:103CE0006E00000000000100000100000006BCCDD5
:103CF000C5AB503459A88888888888888888888A7D
:103D000055EA9BE4206A88BBBEC0000000000100A9
:103D1000000100000000E5D9DEABF034EB7A8888C2
:103D20008888A888A888885000059BE10097A8BBD0
:103D3000BB50000000000100000100000000DBE5B6
:103D40006A87EC0DBBBE655978A79888A99AA559D2
:103D500050D99BE420BBB9BBBEC0000000000100ED
:103D6000000300000000CE995887B63DB99C057944
:103D7000DA9B9888AB9760E75D9BBBE3067BBBBB98
:103D8000BE000000000001000001000000000CE97E
:103D9000D9A9B60DBBA9C695099B9888AB7A6CCDFD
:103DA000C5ABBEF425AB6EBB6F0000000000010088
:103DB00000010000000000E955B7BE01EBA890002B
:103DC00005BB9A88AB98AEDDFA9BBFD4D97B006E59
:103DD000010000000000030000010000000000EBF3
:103DE000B6B7AB146BB889E97977BA88B79A88887F
:103DF0008BBBFFD467EBF0F6010000000000000071
:103E000000010000000000EBBEBB892106B78888D6
:103E10007999BA88BBBB78887BBE6624FBFEB6EC7A
:103E2000010000000000030000010000000000C5C8
:103E3000BBBBA9F4005B7AAABBBBB788BBB9ABB963
:103E400099BEF024EBFBBB60010000000000030002
:103E500000010000000000006B6E99F1006FBB785C
:103E60009BBB9B88B9B9ABBA79BB6024EBBBBB00E9
:103E7000010000000000000000030000000000003E
:103E800016E5EEF6006FEBBA9EBBA98898EEBBBBB9
:103E9000BBB5002FBBBBED0001000000000000001F
:103EA00000010000000000001CEEFFFE00C6EBBB9E
:103EB000FFFE9BA8B9FFFBBBBBB500CFBBBBD000CF
:103EC00001000000000002000003000000000000EC
:103ED000106EFFFE000DEBBEFFEBBE5EBBBFFFEB47
:103EE000EBB600DBBBB600000100000000000100E3
:103EF000000100000000000010C5BBBBD0005BBF8C
:103F00006FBBBBF6EBBBBFBBBBE000EBBBFC000079
:103F1000010000000000010000010000000000009E
:103F200030005BBB50000FBBFEBBB5F65FBBBEBB3A
:103F3000BB6006BBBE0000000100000000000100E5
:103F4000000100000000000010000EBB500006BB86
:103F5000EB555560D69EFEBBBF0006EE500000003C
:103F6000010000000000010000010000000000004E
:103F7000100006BB50000D6BBBBA889E7A88BBBB95
:103F8000F1000024200000000100000000000100FA
:103F900000030000000000001000006F6000044BF0
:103FA000BEBBBB7799BBBBBF410000242000000013
:103FB00001000000000001000003000000000000FC
:103FC000100000340000044FBBBBBBB7A9BBBBF45F
:103FD000410000230000000001000000000001007B
:103FE000000100000000000030000001000001445A
:103FF000FEBBBBBBBBBBE54443000023000000008D
:1040000001000000000001000001000000000000AD
:1040100010000034000003444D66EEEEEEE6D4449A
:10402000400000230000000001000000000001002B
:1040300000030000000000001000003400000344F2
:1040400044444444444444444000002300000000ED
:10405000010000000000010000010000000000005D
:1040600010000034000004444444444444444444A4
:10407000110000230000000001000000000001000A
:1040800000010000000000001000003400000444A3
:10409000444444444444444441000021000000009E
:1040A000010000000000010000010000000000000D
:1040B0001000003400000444444444444444444454
:1040C000400000210000000001000000000001008D
:1040D0000001000000000000100000340000031484
:1040E000444444444444444440000023000000004D
:1040F00001000000000001000003000000000000BB
:104100001000003400000344444444444444444404
:10411000400000210000000001000000000001003C
:104120000003000000000000100000210000034414
:1041300044444444444444444000002100000000FE
:10414000010000000000010000010000000000006C
:1041500010000001000004444444444444444444E6
:1041600041000023000000000100000000000100E9
:1041700000010000000000003000000100000444C5
:1041800044444444444444444300002300000000A9
:104190000100000000000200000300000000000019
:1041A00010000001000004144444444444444444C6
:1041B0004100002100000000010000000000030099
:1041C0000001000000000000100000340000043472
:1041D000444444444444444441000021000000005D
:1041E00001000000000001000001000000000000CC
:1041F0001000003400000434444444444444444423
:104200004100002300000000010000000000010048
:104210000001000000000000100000010000034445
:1042200044444444444444444100002420000000E9
:10423000010000000000010000010000000000007B
:1042400010000031000003444444444444444444C6
:1042500041000023000000000100000000000100F8
:1042600000010000000000001000003400000344C2
:1042700044444444444444444300002300000000B8
:10428000010000000000010000010000000000002B
:1042900010000034000000144444444444444444A6
:1042A0003000002420000000010000000000010098
:1042B00000000000000000000000000000000000FE
:1042C00000000000000110000000000000000233A8
:1042D0003333333333244440000000000000001126
:1042E00011100000000000000000000001444441E3
:1042F00000000000000002333333333333134440F3
:10430000000000000000144444110000000051119E
:104310001111000004444444400000000000002348
:10432000333333333313434100000000000144446E
:104330004441100000011111111110014444444482
:10434000440000000000002333333333331266414E
:10435000000000000001444444441005555111116F
:1043600044444411444444444441110000000002C8
:1043700033333333331266610000000000144444C9
:104380004444155555511114444444444444444450
:104390004444444111000002333333333311266265
:1043A0000000000000544444444441115555111488
:1043B000444444444444444444444444411000007C
:1043C0002333333333312662000000000054444469
:1043D00044444444155511444444444444444444EE
:1043E000444444444441000023333333333331667F
:1043F00000000000005444444444444441555144A6
:1044000044444444444444444444444444441100E3
:104410000233333333333266000000000004444477
:1044200044444444441555444444444444444111A0
:10443000144444444444411002333333333332167A
:10444000000000000004444444444444441555140E
:1044500044444444444111111144444444444411EB
:104460000023333333333332000000000555444416
:1044700044444444411555144444444441111111E9
:10448000111444444444444100233333333333321E
:1044900000000000055544444444411115522114C4
:1044A00044444444111111111114444444444441FE
:1044B00010023333333333330000000055144444C7
:1044C00044444155552255444444444111155555E1
:1044D00011144111111444111002333333333333A7
:1044E0000000000511144444444411552222214483
:1044F000444411111152226661111222221111112C
:104500001500233333333333000000511114444476
:104510004411555222665544444444111522222622
:10452000666226666221111111502333333333330F
:104530000000005111144444415552226662111486
:104540004444444115226662666666666622251109
:104550001150023333333333000005111111444439
:10456000155522666625111444444441115267666C
:104570002666777662222555125002333333333361
:1045800000000511111111115552266666251111F1
:104590004444444111152662226677762222222560
:1045A0006620003333333333000005111111111528
:1045B00055226666622511111444441111112222FC
:1045C0002266776622222226622000633333333349
:1045D0000000051111111155522666666225511110
:1045E00011111111111222222266776662220066D1
:1045F0006200006333333333000000511111115551
:10460000226666666625511111111111515222223E
:10461000266776666666666660000063333333330A
:10462000000006011111155226677766662255555E
:104630001112222222222222266776666676666080
:104640000000006333333333000006660555522201
:1046500066777777666222222226666222222222EB
:1046600026776677776660000000002333333333A4
:104670000000006666602206777777776666666672
:104680006666666666622226677666766660000003
:10469000000000233333333300000066666666662D
:1046A0007777777767777666667777766666666612
:1046B0007777666600000000000000233333333351
:1046C00000000000666666666777777677777766BC
:1046D0006777777666677777777666000000000001
:1046E0000000002333333333000000000006666609
:1046F000777777777777776667777777667777777C
:1047000077660000000000000000002333333333DD
:104710000000000000000666777777777777776686
:10472000677777776677777766600000000000002C
:104730000000002333333333000000000000000684
:104740006766777777776666667777666666776592
:104750005500000000000000000000233333333315
:1047600000000000000000006666666777766666F7
:1047700067776055511115155500000000000000C5
:10478000000000233330233300000000000000004D
:104790000000000000006626022225551144444115
:1047A000200000000000000000000023330023333D
:1047B00000000000000000000000000000000022D7
:1047C00022225551144444442000000000000000FF
:1047D000000000263300023300000000000000004B
:1047E000000000000000000255522551444444449A
:1047F00020000000000000000000000660000233FE
:1048000000000000000000000000000000000000A8
:1048100025555511444111410000000000000000E1
:104820000000000000000023000000000000000065
:104830000000000000000000025555114441111213
:104840000000000000000000000000000000002345
:104850000000000000000000000000000000000058
:104860000025551144411122000000000000000005
:104870000000000000000002000000000000000036
:104880000000000000300000000555514441112097
:104890000000000000000000000000000000000216
:1048A00000000000000000000000000303300000D2
:1048B00000005551144411200000000300000000C6
:1048C00000000000000000000000000000000000E8
:1048D0000000000303300000000025555144112062
:1048E0000000000330000000000000000000000095
:1048F000000000033300000000000003033000004C
:104900000000051151444100000000033000000088
:104910000000000000000000000000033300003031
:1049200000030003033003000003051111114100CF
:104930000000000330000300000030000000000011
:104940000000000333000030000303330330030092
:10495000000302111111110000001111555503003F
:104960000000330000000000000000055555103025
:10497000000303330330030000030011111522016B
:1049800011111111111155550003330000000000E1
:1049900055500111111111115553033355555555EA
:1049A0005111112111122211111111111111111195
:1049B00011553300000000001111111111111111D6
:1049C000111155551111111111110021112226003B
:1049D000000000011111111111111550000000000B
:1049E000111111555505511111111111111100001D
:1049F00000000022222266000000000000011111C8
:104A000011111155500300000000000000000111B9
:104A10001111100000000000000000262222660094
:104A20000000000000000000000001115003000021
:104A30000000000000000000111000000000000055
:104A4000000000266626660000000000000000004E
:104A500000000011153300000000000000000000FD
:104A60000000000000000005550000226666660098
:104A70000000000000000000000000001103000220
:104A80000000000000000000000000000000011114
:104A90001150022266666220000000000000000043
:104AA00000000000011002230000000000000000D0
:104AB00000000000000011444115022666666222D3
:104AC0000005551000000000000000000011033335
:104AD00051111111150000000000000000001444E5
:104AE000441512667777662215554411000005516A
:104AF00011150000000110001500055111100005EE
:104B000011150000000514444115226777777622BD
:104B100025544444000111111111100000011030FE
:104B200000000001111100111111100111051114E3
:104B3000411522677777776225544441005001116F
:104B4000155011100000111100000000511101104A
:104B50005511111111125514441522677777777684
:104B600065551151000000000000011100111103F2
:104B700000000000051111000011115011125551D3
:104B80004411526766677776222555500000000071
:104B90000000001101103030000000000000000093
:104BA0000001110000002551144116662226676697
:104BB0002225550000000011111150013303030399
:104BC0000011111000000000000051100000005101
:104BD0001441115555522662662000000000112232
:104BE00022222110303030301155550111000000C3
:104BF0000000011110000025144411111555222246
:104C000022000000000115200303030563030303D2
:104C1000000000000000123444434342333250008D
:104C2000000000000000000060677000000000004D
:104C3000080800000000000099999999999522228E
:104C40003331333131131A99999999999999777622
:104C50008877789999999999999999999999999918
:104C6000999999999A122333213311111131159978
:104C70009999999999997776877778999999966872
:104C80008999799999999999999999999B233243F5
:104C90003444422233311599999999999999888682
:104CA00098776999999998869999999999999999DB
:104CB00099999999523113344CCCCCCCC4431159A5
:104CC000999999999999998667669999987779990F
:104CD00098699999999999959999999A1211132482
:104CE0004CCCCCCC4C423159999999999999998647
:104CF0006799999998777669676999999999995572
:104D000099999995231133442CCCC4CCCC44315976
:104D100099999999999997776769999999777999CB
:104D2000999999999999955D9999999523113244F1
:104D30004444CC4C4C442159999999999999877636
:104D4000999999998866899999999999999955D92B
:104D500099999995211132243111322424422159F3
:104D6000999999999999777679999998777679997E
:104D70009999999999955D999999999521113223C4
:104D8000422311333111315999999999999978960A
:104D90007999999777777999999999999955D99A0C
:104DA00099999995211132222111114211BB135A5F
:104DB000999999999999669769999998777899990C
:104DC00099999999955D99AA999999952111324244
:104DD0001EFF44C42BEFF15A9999999999967789B6
:104DE00099999999687999999999999955D99AAA76
:104DF00099999995211132444222C44C4132335A37
:104E000099999999999778999999687779999999A8
:104E1000999999955D99AAAA999999952111244CE6
:104E2000CCCCC4444332235A99999999999776994D
:104E3000999677777999999999999955D99AAAAA2A
:104E4000999999952B1122444444C3333323225A10
:104E50009999999999997999899777779999999938
:104E60009999955D99AAAAA5999999AB311132247E
:104E7000424444211322335A9999999987879999E1
:104E80009997777789999999999955D99AAAAA550D
:104E90009999995323113332224244233332335A9E
:104EA000999999778869999996697777699999997C
:104EB00099955D99AAAAA55A9999995232113333B5
:104EC000324233444313315A9999687799999999A1
:104ED0006779877789999999995BD99AAAAA5AA5E6
:104EE0009999995233112333224232444213315952
:104EF00099998766999999999679867789999999CF
:104F00009A5AD9AAAA55AA55999999532311223385
:104F10002223124442113159999988769999999985
:104F20006777869999999999A5AD9AAAAA55A55591
:104F30009999995344312233222313331111315952
:104F40009968897699999999677769999999999AB8
:104F500055D9AAAAA5AA5555999999513211222332
:104F600032223324423111599967777699996679BB
:104F700099698699999999A5AD9AAAAA55A5555561
:104F80005555559511113333133332442423115998
:104F900099977776999979999968999999999A555C
:104FA000D9AAAAA55A555555FFFFF551332311111A
:104FB0001132222222231B59987896669999999743
:104FC000778779999999A5BD9AAAAA5AA555555A4C
:104FD000EEEEEEFF12223111111133331333159916
:104FE000968767769999989678777999999A5AD900
:104FF000AAAAA55A5555555ACCC55FEEE3222311EE
:10500000111B11111111BA99997777769999978790
:105010009978999999A55D9AAAAA5AA555555AA51C
:10502000CCCCC4BFEE3223111BBBBBBBBBB1BA9906
:105030009877777866666777999999999A5AD9AAED
:10504000AA55AA555555AA55CCC44C23FEE3333175
:1050500011BB11BB113159999877777789687776A9
:1050600099999999A5AD9AAAAA55A5555555A559A5
:10507000CCC424442EEF133111B1111B123BA9965D
:1050800087777776996977769999999A55D9AAAA5F
:10509000A5AA5B5555AA559ACCC422442BEEF333EE
:1050A000111131111215999777777777777777778D
:1050B000999999A5AD9AAAAA5AA5B15A5AA55AA5DD
:1050C000CCC2424442FFFB33111331B1331B797719
:1050D000777777777777777799999A55D9AAAAA525
:1050E0005A5B115A5A559A55CC44224442AEE53384
:1050F000111331B3311B77776987777777777777B4
:105100008999955D9AAAAA5AA5B1131B5559A55517
:1051100044442244421FEE5111111B13315777763C
:1051200099677777777777776999559DAAAAA55A6E
:105130005B111221BAA5555B444223222215EE557C
:1051400011111B13115777799977777777777899BA
:1051500099955D9AAAAA55A5BB3333241555555187
:10516000442222222315EEF55B11B13311E5777944
:10517000877777777777789999A5DDAAAA55AA5B7B
:1051800011324332211BB1112222332231B5FEEA02
:105190005B11B13115FE5776777777777777786639
:1051A0009559DAAAAA55A5B1113244333331111BEE
:1051B0002223323311B5FFEF55B1B111B55FEB7852
:1051C000777777777777777755D9AAAAA5AA5B11EA
:1051D00032332223311111B5222244422315FFFF1D
:1051E000FA5BB111B555FE57777777777777777197
:1051F0005DDAAAAD41ABB1133223323333113151F1
:105200002324CCC42235FFFFFF55BBB555555FE5C0
:10521000777777777777775599AAAAAC441B1132BD
:10522000332213333113B517324CCCCC4422BFFF99
:10523000FF55555555555FFF177777777777855D1C
:10524000DAAAADC42311133323333311111151776B
:10525000224CCCCC44221FFFFFF5555555555FF429
:1052600017777777777755AAAAAADCC431B13313B9
:10527000323333311315A688224CCCCC4C2235FF67
:10528000FFF55555555555F44187777777755D5539
:10529000AAACCC3231B13221333311111B5599995B
:1052A000224CCCCC44242B5FFFFFF555555555F4CB
:1052B000445777777855DD555A4C442331B1332321
:1052C0003133111315A996772444CCCC444441556D
:1052D0005FFEF555555555FF24317777755AAA6D00
:1052E000CC4223332BB133333311111B55999777AC
:1052F0004444CCCC444442555F55F555555555FF73
:105300003225777155ADA6CCC42333231511333123
:10531000331113B518999777444244C44224235556
:105320005F5555555555555B332387555ADA54C447
:1053300042333221BB13333311B13B5877999877FD
:105340002442244423222315555555555555555B64
:1053500013225555ADAA2C42233331BB5B13313197
:105360001B13B517779999992442222222222315DB
:10537000FF5FE5555555555B333255AA99A2C24298
:1053800033331BB5BB133311B13B51766789869913
:1053900042424444222333155555F5555555555B26
:1053A00011325ADD5AB4242233311555BB11111B69
:1053B00011BB5776677777994244444433333115AC
:1053C0005555F5555555555B1132AD999A343422E2
:1053D00033111555BBBBBBBB5122B87667777799A4
:1053E0002444CC44231111155555F5555555555B9D
:1053F000113599AAA3424222333311555BBBBBB589
:105400001244B87867777799224CCCC422311111B5
:1054100055555555555555AB11159AAB2C4442323F
:105420002333311BB555555B12C4B8777777777640
:10543000244CCCCC4222223333115555555555F1CD
:10544000223AAA22C44422322333311111111B11F2
:105450003244B87777777777244CCCCCCCCC4442A5
:1054600022233BB5555551B32233344CCC42233320
:1054700033333331222233333221577777777777BB
:105480002444CCCCCCCCC444422223333333322208
:10549000222CC4CC442333333333333223333333DA
:1054A0003321177777777777224444CCCCCCCCCC98
:1054B000CC44424C444CC44CCC444444223333335B
:1054C0003322233222333333323577777776777747
:1054D0003244444CCCCCCCCCCCC44444CC44CCCCD6
:1054E0004442224233333333333322244222333192
:1054F00011B8777768867777132222244444CCCC7E
:10550000C4C444244222442222222332433333336C
:105510003333322223311111558777779997777773
:10552000333222224424444CCC444444422222229A
:1055300033313333322223333311132231113325E4
:105540007786777799967777132332222224444CF3
:10555000CCC4422222232233333331133333333347
:10556000111111111113335778997778996677775C
:105570000000000000000000000000012222333380
:105580003333333333333333333333333323110050
:10559000000000000000000000000000000000000B
:1055A00000000001222333323233233333333333C9
:1055B00033333323332310000000000000000000C9
:1055C000000000000000000000000002222333332E
:1055D0003333333333333333333333333322110001
:1055E00000000000000000000000000000000000BB
:1055F0000000000322333333333232333333333357
:10560000333332322222210000000000000000006B
:1056100000000000000000000000000332333333BC
:1056200033332323333333333333222222223100E3
:10563000000000000000000000000000000000006A
:10564000000000133333333232222222222233333A
:105650003333222222222300000000000000000039
:10566000000000000011222323222333333232149E
:1056700044514445252333333333333333333310E9
:10568000000000000000000000022222222222224C
:1056900022211551223333332222121111111111FB
:1056A000111112122211231000000000000000004E
:1056B00022233223333333333333222466212233FC
:1056C000332555555551212333333233333333206A
:1056D0000000000000000000233333333333333342
:1056E00033333333216645511223333222222223AE
:1056F0002222323222232331000000000000000069
:105700003333333333333333333333333333322578
:10571000555511111223333333333232323333328E
:105720002221111122222000233333333333333328
:1057300033333333333333333333332221111121B2
:10574000222222222222121111122233333222204B
:105750002333333333333333333333333333333329
:105760003333333333333333333333333333333309
:10577000333333333333332002333333333333333D
:10578000323222223333333333333333333333330D
:1057900033333333333333333333333333333320EC
:1057A0000002333333333333333333233222222271
:1057B00022233233333333333333333333333333DB
:1057C0003333333333333330000002333333333343
:1057D0003333333333322233233211111111111188
:1057E00022222323333333333333333333333330CE
:1057F0000000000233333333333333333222132385
:10580000331111111111221511121111121223331A
:105810003333333333333300000000002333333367
:1058200033333332224133333211111551111121E7
:1058300051135111111122223233333333223000EC
:105840000000000000023333333333214423333369
:1058500035544551111111125212411111115513A4
:105860003333332333000000000000000000011236
:10587000333321123333323324451233214452124D
:1058800012134121555231533332223300000000AC
:1058900000000000000000000322233333331233E2
:1058A00014523333333251522353152233333323BB
:1058B0003223332000000000000000000000000040
:1058C0000133333333312324541116672333332206
:1058D000332333333321122333320000000000001E
:1058E0000000000000000000001333223233335464
:1058F0004671662333332333311233333335552323
:105900002000000000000000000000000000000077
:105910000003323334123344741143331364253398
:1059200026432313363175310000000000000000CB
:105930000000000000000000001333333243334402
:105940004567115755533242155353311153243083
:105950000000000000000000000000000000000047
:105960000033332423533354447517688677214515
:1059700025612221115444100000000000000000A5
:105980000000000000000000013332212322331503
:1059900015178476661154522464212157667410B9
:1059A00000000000000000000000000000000000F7
:1059B0000133321221523315515768867114771210
:1059C00014672556654477100000000000000000B1
:1059D00000000000000000000103321333523325A1
:1059E00051517666754441441577255666666710B1
:1059F00000000000000000000000000000000000A7
:105A000000003312237233255541476664444447EE
:105A1000454624576446674000000000000000002F
:105A20000000000000000000000233572372332200
:105A3000555444766744446455462475446664006E
:105A40000000000000000000000000000000000056
:105A5000000033377461333215454547674446715A
:105A60001514217744667400000000000000000057
:105A70000000000000000000000033327462323386
:105A80002554444767444755111413474466410061
:105A90000000000000000000000000000000000006
:105AA000000003222553332335554547645554469A
:105AB000516442554774410000000000000000009E
:105AC00000000000000000000000133322333223E6
:105AD0002154454774555244699442355544520007
