:100000000C942E670C944F670C944F670C944F67B9
:100010000C944F670C944F670C944F670C944F6788
:100020000C944F670C94F1AA0C944F670C9482AB1C
:100030000C944F670C942FAC0C944F670C944F6743
:100040000C944F670C94D0870C944F670C944F67B7
:100050000C944F670C9435850C944F670C944F6744
:100060000C944F670C944F670C944F670C944F6738
:100070000C944F670C944F670C944F670C944F6728
:100080000C944F670C944F670C944F670C944F6718
:100090000C944F670C944F670C944F670C944F6708
:1000A0000C944F670C944F670C944F670C944F67F8
:1000B0000C944F670C944F670C944F670C944F67E8
:1000C0000C944F670C944F670C944F670C944F67D8
:1000D0000C944F670C944F670C944F670C944F67C8
:1000E0000C944F670C94FE8800000000003E5B4FAC
:1000F0005B3E3E6B4F6B3E1C3E7C3E1C183C7E3C88
:10010000181C577D571C1C5E7F5E1C00183C180095
:10011000FFE7C3E7FF0018241800FFE7DBE7FF3025
:10012000483A060E2629792926407F050507407F93
:1001300005253F5A3CE73C5A7F3E1C1C08081C1C06
:100140003E7F14227F22145F5F005F5F06097F01FC
:100150007F006689956A606060606094A2FFA294E7
:1001600008047E040810207E201008082A1C0808B5
:100170001C2A08081E101010100C1E0C1E0C303803
:100180003E3830060E3E0E06000000000000005F04
:1001900000000007000700147F147F14242A7F2A20
:1001A00012231308646236495620500008070300E2
:1001B000001C2241000041221C002A1C7F1C2A082E
:1001C000083E080800807030000808080808000091
:1001D00060600020100804023E5149453E00427F05
:1001E000400072494949462141494D331814127F54
:1001F0001027454545393C4A4949314121110907F4
:100200003649494936464949291E00001400000074
:100210004034000000081422411414141414004146
:1002200022140802015909063E415D594E7C121103
:10023000127C7F494949363E414141227F4141413B
:100240003E7F494949417F090909013E41415173B6
:100250007F0808087F00417F41002040413F017F27
:10026000081422417F404040407F021C027F7F04EF
:1002700008107F3E4141413E7F090909063E415138
:10028000215E7F09192946264949493203017F0128
:10029000033F4040403F1F2040201F3F4038403F29
:1002A000631408146303047804036159494D43003F
:1002B0007F4141410204081020004141417F040276
:1002C000010204404040404000030708002054540D
:1002D00078407F28444438384444442838444428EB
:1002E0007F385454541800087E090218A4A49C783E
:1002F0007F0804047800447D40002040403D007F9A
:100300001028440000417F40007C047804787C0879
:100310000404783844444438FC182424181824244D
:1003200018FC7C08040408485454542404043F4432
:10033000243C4040207C1C2040201C3C4030403C61
:1003400044281028444C9090907C4464544C4400C1
:100350000836410000007700000041360800020125
:100360000204023C2623263C1EA1A161123A404011
:10037000207A38545455592155557941225454788E
:1003800042215554784020545579400C1E52721227
:1003900039555555593954545459395554545800B0
:1003A00000457C410002457D420001457C407D12B4
:1003B00011127DF0282528F07C5455450020545416
:1003C0007C547C0A097F4932494949323A444444C1
:1003D0003A324A4848303A4141217A3A42402078FC
:1003E000009DA0A07D3D4242423D3D4040403D3CFD
:1003F00024FF2424487E4943662B2FFC2F2BFF0922
:1004000029F620C0887E0903205454794100004415
:100410007D413048484A32384040227A007A0A0A00
:10042000727D0D19317D2629292F28262929292673
:1004300030484D4020380808080808080808382FB8
:1004400010C8ACBA2F102834FA00007B0000081442
:100450002A142222142A14085500550055AA55AA18
:1004600055AAFF55FF55FF000000FF00101010FFB8
:1004700000141414FF001010FF00FF1010F010F013
:10048000141414FC001414F700FF0000FF00FF1404
:1004900014F404FC141417101F10101F101F141450
:1004A000141F00101010F0000000001F101010109A
:1004B0001F10101010F010000000FF10101010108E
:1004C00010101010FF10000000FF140000FF00FFCC
:1004D00000001F10170000FC04F414141710171468
:1004E00014F404F40000FF00F7141414141414148A
:1004F000F700F7141414171410101F101F141414FD
:10050000F4141010F010F000001F101F0000001F66
:1005100014000000FC140000F010F01010FF10FF99
:10052000141414FF141010101F00000000F010FF2E
:10053000FFFFFFFFF0F0F0F0F0FFFFFF0000000012
:1005400000FFFF0F0F0F0F0F3844443844FC4A4A96
:100550004A347E02020606027E027E02635549414B
:10056000633844443C04407E201E2006027E020282
:1005700099A5E7A5991C2A492A1C4C7201724C3096
:100580004A4D4D303048784830BC625A463D3E496D
:100590004949007E0101017E2A2A2A2A2A44445F11
:1005A000444440514A444040444A51400000FF0105
:1005B00003E080FF000008086B6B08361236243613
:1005C000060F090F06000018180000001010003078
:1005D00040FF0101001F01011E00191D1712003C00
:1005E0003C3C3C0000000000000000000000000057
:1005F00000000000000000000000000000000000FB
:1006000000000000000000000011110000000000C8
:100610000000000000111100012222111000000052
:1006200000000001112222100122222221000000DC
:1006300000000012222222100122220022110000BA
:1006400000001122002222100122200002221000AC
:1006500000012220000222100122200002221000AC
:10066000000122200002221001222000022221008B
:100670000012222000022210012222002222210048
:100680000012222200222210001112222222210016
:10069000001222222221110000000111111110006C
:1006A0000001111111100000000000000000000006
:1006B0000000000000000000011000000000000029
:1006C0000000000000000110100000000000000009
:1006D00000000000000000010011100000000000F8
:1006E00000000000000111000010011100000000D6
:1006F0000000000011100100000101011111111191
:100700001111111110101000000011001001001043
:100710000100100100110000000001001001001094
:100720000100100100100000000000110110110173
:100730001011011011000000000000010010010163
:100740001010010010000000000000001010010156
:100750001010010100000000000000000111111143
:100760001111111000000000000000000000000046
:100770000000000000000000011000000000000068
:100780000000000000000110101110000000000027
:100790000000000000011101001001110000000024
:1007A00000000000111001000001010111111111E0
:1007B0001111111110101000000011001001001093
:1007C00001001001001100000000011101101101D1
:1007D00010110110111000000000010000000000C5
:1007E00000000000001000000000001000000000E9
:1007F00000000000010000000000000111011010C5
:100800000101101010000000000000001010010194
:100810001010010100000000000000000111111182
:1008200011111110000000000122324434404455DF
:100830005544044344236110781133121264664412
:1008400044644621213311870777111113221126A1
:100850006211223111117771111777001111116393
:1008600036111111007981111111099778087080E2
:100870000007808779901111101118899A9997773C
:10088000877A79A9988111031131180779A9999963
:1008900099999A97808111117780200808AABBBB8B
:1008A000BBBBAA0080020877107877797799BBBB29
:1008B000BBBAA9779777870331711077079ABBBBCB
:1008C000BBBBA970770018131311110110ABABBBA0
:1008D000BBBABA001011111311131101077A9BBB97
:1008E000BBBB99783011211133131078979AABBBA9
:1008F000BBBB99798801213327700701889BBBBB5B
:10090000BBBBA988107007727903201087ABBBAA04
:10091000AABBBA880102209701211008799ABA99D6
:1009200099ABA9970001121003102087797A977765
:100930007779A797780201301311177777A78788FF
:1009400088787A9777711131113107979B88888C55
:10095000C88888B97A90131107177799A8CCCCCC9E
:10096000CCCCCC7A99777171799777AACDCDDDDD32
:10097000DDDDDCDCAA777997777889A8DDEDDEED1F
:10098000DEEEDEDD8A98877877779ADDEEDEEDDDC4
:10099000DDDEEDEEDCB977777879ACDDEEEDDEED1E
:1009A000DEEEDEEEDDCA97870000000000001000DA
:1009B0000001000000000000000000000000010035
:1009C00000100000000000000000111100000000F5
:1009D00000000000111100000001111111000010B1
:1009E000010000111111100000112222111000103D
:1009F0000100011122221100001120022211001019
:100A0000010011222002110000112000022110100B
:100A10000101122000021100001122000022111019
:100A200001112200002211000001122000221100F9
:100A3000001122000221100030001122222110009A
:100A400000011222221100013100011111110000D8
:100A50000000111111100011010000000000000041
:100A60000000000000000010011100000000000064
:100A700000000000000011100010111111111111DF
:100A800011111111111101000010100100010001DC
:100A90001000100010010100001010010001000101
:100AA00010001000100101000010100100010001F1
:100AB000100010001001010000110113401110116D
:100AC000110111011110110000010010111011107D
:100AD00001110111010010000001001001000100CE
:100AE00000100010010010000001001001000100C2
:100AF000001000100100100000005510010001005E
:100B0000001000100151000000000011111111111E
:100B10001111111111000000000000000000000080
:100B20000000000000000000000000000000122390
:100B3000322100000000000000000000004300051A
:100B40005000340000000000000000001300000509
:100B500005000031000000000000000430000060CB
:100B600005000003400000000000001300000060CA
:100B7000005000003100000000000030000005605F
:100B80000050000003000000000004000000060008
:100B900000000000004000000056665666506606E1
:100BA00066666666666665000006560000005000D0
:100BB00000000000006660000000755000050000A5
:100BC0000000500005560000000070050000000005
:100BD0000000000050070000000070005660000098
:100BE00000000065000700000000700000550000D4
:100BF0000000565000070000000070000000550083
:100C000000560000000700000000860005000000FC
:100C10006600000500680000000093006000000509
:100C20005000000600390000000007005000065682
:100C3000005000006070000000000A3500005600FF
:100C40000005000053A000000000003650560000D0
:100C50000000650035000000000000526500000043
:100C60000000005525000000000000664300000061
:100C700000000034566000000000060091B3000040
:100C800000003B19066000000000000000AC7B2360
:100C900032B7CA00000000000000000000009D1CE8
:100CA000C1D9000000000000000111100111001165
:100CB0000220001110101111001111011134111036
:100CC00000000511110100010111106122201150D5
:100CD0000111005070000010111001122222250095
:100CE0001221100002222201100100012222200103
:100CF0001122110012222222550100281222201155
:100D000011111100011222221511000012200111EF
:100D10001111111000212222011100000001110007
:100D200011111001000122001111101111111000F8
:100D3000001110001100001111100111110100002B
:100D40000011000001011111110011121101000028
:100D50000111000001011111000111211100100009
:100D600010101100110112220001122110110111A5
:100D70000151011110001122001112211011100057
:100D80001000100011001112001112111011222177
:100D90001112211221001112001111110112100063
:100DA0000001100122101112001111110121202245
:100DB00002202000111011115011101111022022D7
:100DC000022022000120111150011010110000100A
:100DD0000100102001100111550110100100111126
:100DE0001111122011101110550110000100000006
:100DF0000001100011101110550110010110000226
:100E00002201102011101110555011011110222231
:100E1000222222001100110055501101111111114F
:100E2000111111110101110000000000000000006B
:100E30000000000000000000000000000011100091
:100E4000000111000000000000000000011111006D
:100E5000001111100000000000000000011111003D
:100E6000001111100000000000000000011101003D
:100E7000001011100000000000000000011110001F
:100E8000000111100000000000000000001111001E
:100E900000111100000000000000001011011111EC
:100EA0001111101101000000000000111211113188
:100EB000141111511100000000000001651277119A
:100EC00011778159100000000000000011177721F0
:100ED0001477411100000000000000000A141147BF
:100EE000751B41A000000000000000000143111428
:100EF0003111751000000000000000000147317141
:100F000013137510000000000000000001CD5441D3
:100F1000133D8E1000000000000000000013421777
:100F20007142410000000000000000000015772D14
:100F3000D477F10000000000000000000001151847
:100F4000518110000000000000000000000111317C
:100F5000141110000000000000000000000011311A
:100F60001411000000000000000000000000012833
:100F70005C100000000000000000000000000011F4
:100F80001100000000000000000000000000000A46
:100F90000000000000000000000000000000000051
:100FA000000000000000000000000000000111121D
:100FB0001134434444444413444444444444444466
:100FC0004444444444443112111100000000000024
:100FD0000000000000111111134444444444443102
:100FE00044444444544444444444434444444312E5
:100FF000111110000000000000000000011112217A
:1010000013444444444444413444444464444444C4
:10101000444444444444443122111100000000007F
:10102000000000000111122134444444444444446B
:101030003444444466444444444444443444443181
:1010400022211110000000000000000011112213E5
:10105000444444444444444413444445664444554D
:1010600054444444454444431221111000000000FC
:1010700000000000111222134444444444444444F8
:1010800033444445654445555544444555444444DA
:101090001222111100000000000000011122213471
:1010A00044444444444444444134444566555655BC
:1010B0005544455555544444312211110000000057
:1010C0000000001111222134444444444444444467
:1010D0004314444556676655554444555554444455
:1010E00043222111100000000000001211221144BF
:1010F000445444344434444444134444556566558C
:1011000055555555555544444312211210000000C1
:101110000000001211111344444444443433444445
:1011200044314444555555555555555555554444E8
:10113000431121121000000000000011122113447D
:10114000444444444444444444413444554465453F
:101150005555555555555554431112112100000050
:1011600000000111122134444444444444444444A2
:101170004443345544445556665555555555555474
:1011800044312211110000101000012222213444A8
:10119000444444444433444444441355444445671C
:1011A00066555555555555544431222211000110AC
:1011B0000000012222213444444444444443134463
:1011C0004444314444444565676555555555555526
:1011D0004431222221000000101001222211344447
:1011E00044444444444131344444413444444555E6
:1011F000566555555555555554412222210001112A
:101200000000022222114444444444444434431420
:101210004444431334444555556555555555555526
:1012200054411222220001111110022222214444B1
:101230004444444443344414444431111134455526
:1012400055555555555555555441122222000010FB
:101250001110012222214444444444444344441490
:10126000444431111134444555555555555555553E
:101270005541222222000110101001222221444453
:1012800043311111113444134444311111144444B5
:101290005555555555555555554122222110011189
:1012A00010100122222244444422211144334413C9
:1012B00044443111111344555555555555555555FF
:1012C00055412222211101111011022222224445EE
:1012D000444892224444443144431111113333555C
:1012E0005555555555555555554222222210111127
:1012F000111002222222445555555882444443334A
:1013000013333441144431345555544555555555CE
:10131000554222222210001111110222222244558C
:10132000555555545554443443144443344444337C
:1013300034555554555555555542222222111131D7
:101340001000012222223445555555555555443338
:1013500044444443345555543135555355555555EA
:101360005432222221000001101101222222345580
:1013700055555555555555543344444114555555B7
:101380005433455415555555543222222211111308
:1013900010000122222234555555555555555555A5
:1013A00044444443145555555554334314555555E9
:1013B0004432222222100113311103299222245592
:1013C00055555555555555555555555824555555FB
:1013D000555553311355555544322222211113339B
:1013E00031110022992224455555555555555555CD
:1013F0005555555435555555555555431345555522
:1014000044222299201113333310001299222245CD
:101410005555555566555555555555584555555578
:1014200055555543113555554322299220013333E3
:1014300031111012999222455555555556655555FD
:1014400055555555555555555554443334454554C2
:10145000422229921111138331311112299222341F
:1014600055555555567655556655555555555555F9
:10147000555554555555555442229992111113837F
:10148000111111012992222455555555556666664C
:1014900066555555555555555555555555555554EC
:1014A00022229992111111333311111129992223FA
:1014B00045555555556667765555555555555555A8
:1014C00055555555555555432222992111113383B0
:1014D00031111100129992224555555555556666A0
:1014E00055555555555555555555555555554442D0
:1014F0002229921011111333313333101299922291
:1015000014555555555555565555555555555555CB
:101510005555555555554432222992113333338848
:1015200031333110012992222355555555555555C2
:1015300055455555555554555555555555554312C1
:101540002299220113331338333113110022999257
:1015500022355555555555555544444444444455F4
:10156000555555555555322229992111313313833B
:101570008333333110122992222355555555555531
:101580005555555455555555555555555543122294
:101590002992201333333888833113111001222903
:1015A0009222355555555555555555545555555502
:1015B00055555555543222222222101133133888A2
:1015C00081833331110112299922234455555555F0
:1015D00055555554555555555555555444222299F0
:1015E0002221013333333888333333111110012270
:1015F0002222223445555555555555545555555566
:101600005555554431222992221011133333338812
:10161000881133111110001222222222344555550F
:10162000555555544555555555554433122222228A
:101630002100111333138888333333331100001121
:10164000222222222344555555555553455555556B
:10165000554443122222222210001333833333884D
:101660003131333133111101122222222213445518
:1016700055555554445544444443222222222211B4
:101680001111111333333388318313813332211114
:1016900011112222222123444555555554444444D6
:1016A00033322222222221111112211333381388BE
:1016B0003188238833322223111111222222222140
:1016C0001334444444443331122222222221111182
:1016D00032322313338833883338888833322233C5
:1016E0003111111112222222221111111111122273
:1016F0002222222111111113332331313333338844
:1017000088888888883231111113331111112222EF
:101710002211111111222222222222111133311100
:101720001112313333333888388888888832311140
:101730001113222211111112121111111112222151
:101740001111111323223111111231111133338868
:10175000998888888833231111111282221111115E
:101760001111111111011111111113222231111135
:101770001132131333883888899988888833231164
:1017800001111112222131111111132231101111E5
:101790001111322231111110113211133388338893
:1017A00099999888883333110000111113132292EC
:1017B0003111122231111113222233311111000083
:1017C00011221133338888889999988888848211E6
:1017D00000000111111332223311111111111133B3
:1017E000222311111110000011221133833333838E
:1017F000999999888854823111111111111111117F
:1018000011101111111111111111111110000111EB
:1018100013221113333333889999998844439921BA
:1018200011111111001111111110011111000111EB
:1018300011111100010111111298331333883888E6
:1018400099999988443129311111111111001111FF
:1018500011100102100011111111000001133311B8
:10186000139233133388385599999885433322114D
:101870001111111111000111110111022011111189
:101880001100000001134311132331111313338886
:1018900099999885433132111111111310000111DA
:1018A0001001111211111001110000000344331135
:1018B0001123431133338888999998854433331120
:1018C000111111131000000000001111011110007E
:1018D0000000000001444411112344111311338806
:1018E00098888885443312111111111310000000DB
:1018F00000011111111111000000000004444311F6
:10190000112341113338388500111121222233442B
:1019100056456543433347377777777777721111A9
:101920001111111111117771001111101100000026
:101930000111112122223345666556543333347820
:1019400077777777772111111111111121111777FD
:1019500071001111101000010111121222223346E0
:101960006666566443333428777777777721111189
:1019700011111111112777777711077711100001D5
:10198000111121222223335566666566443333479D
:10199000877777777722112111111111111277773B
:1019A000111777777777710011112122223334567E
:1019B00066666656644333337377777777222112EE
:1019C00011111111111122111111177777771110BF
:1019D00011121222233455666666666565443334F7
:1019E0002727777777722211211111111111111107
:1019F00011111127777777101112122222333456E2
:101A000066666665565443333777777777777721FD
:101A10001211111111111111111111122777777172
:101A200011112122222333456666666655644443BC
:101A30003373277777777772121111111111111102
:101A4000111111111111111111111212222233351C
:101A500066666666645643443332337777777777C2
:101A60002121111111111111111111111111111146
:101A700001111121222223346666666665456433AE
:101A800043333342777777777212121111111111A4
:101A900011111111117101110111111212222334AE
:101AA0004556665554345643343333343777777755
:101AB000772221211111111111111111111111018F
:101AC00001111111212223433345665444334564E7
:101AD0003333333342777777772222121112111181
:101AE00011111111111112110011111121222333A1
:101AF0003334543333433456433333333477777783
:101B000077722221211111111111111111111111CD
:101B1000000111112122233333335333333323454F
:101B200054334333333777777777222212111211E8
:101B30001111111111111111000111112122222273
:101B400022334332233332245543343333347777CB
:101B50007777722222211121111111111111111106
:101B600000001111121222222223332222223222B9
:101B70004554434334333277777272222222111252
:101B80002111111111111111000001111121122245
:101B90002222322222222222135544343343337725
:101BA000773227222222221122111111111111271D
:101BB00000000111111221111222222222222222BE
:101BC0001235544443422377772322222227722757
:101BD000122111111111111100000011111112998E
:101BE000ABBA9922111111112112554444342777AF
:101BF0007332322222C99BBB99C2111111111117E4
:101C000000000011111DC9BBBBBBBBAACCD2222254
:101C10001111255444434777274323CC9ABBBBBBC0
:101C2000BBBAC77111111277E0000000111AA9ABFD
:101C3000BBBBBABBBBAC1111111001554444437777
:101C4000787439AABBBABBBBBBBBBC7711111121DD
:101C5000EE00000000CBAACAABBAACAAABBBC11164
:101C6000100000155444443277879AAAABAAAABB45
:101C7000BBBBBAD177127772EEE00000009AAA9A45
:101C8000AAAAA9AAABBBBD00110000004544444369
:101C9000377CAAAAABA9AAAABBBBBBC7777772221B
:101CA000EEEE00000CAAAB9AAAAAA9AAAABBBC0095
:101CB0000010000004544344337AAAAAAAB9AAAA7D
:101CC000ABBBBB9777777777EEEEE0000CBAABBA99
:101CD000AAAA9AAAAAABBB000001000000355432A0
:101CE00044CAAAAAAABB9AAAAABBBBA77777777746
:101CF000EEEEEE000CAABAAAAAA9AAFBAAAABB9069
:101D0000000010000002554234AAAAAAA22BB9AAC8
:101D1000A9ABBBA777777777EEEEEEEE0CAABBAA5E
:101D2000AA9A9FFF9AAABB9000E0000000001354FB
:101D300043AAAAAA2222CB9AACAAABA77777777735
:101D4000EEEEEEEEECAAAB9A99AFFFF9AAAABB9021
:101D5000EEEEE0000000002554AAAAAAA22226B9AD
:101D6000A9AAABA777777777EEEEEEEEECAAABDC1D
:101D70009CCFFFAAAAA9BBCEEEEEEE0000000000A9
:101D8000459AA9BAAAB229CC9C9AABA7777777775C
:101D9000EEEEEEEEEDAAAA9AB9AAAAAAAA9ABBEE0C
:101DA000EEEEEEE00000000002CAAB9BABBAB9AAAF
:101DB000AA9AAB9777777777EEEEEEEEEE9AA9AA2E
:101DC000B9AAA9AAAB9BBBEEEEEEEEEEE0000000D6
:101DD00000CABB9AABAAAA9AAAA9BBC7777777779A
:101DE000EEEEEEEEEEE9CCAAAB9AAB9AABAABBEE66
:101DF000EEEEEEEEEE00000000CAB9AAABCAAA9A57
:101E0000ABAC9C7777777777EEEEEEEEEEEEEECA40
:101E1000AB9AAB9AABB9BBEEEEEEEEEEEEE00000A5
:101E200000CAB9AAB9AAA9AABA3777777777777714
:101E3000EEEEEEEEEEEEEEECAAB9AA9AAAB9BBEE81
:101E4000EEEEEEEEEEEEE000000C9CAAB9AAB9AA06
:101E5000AD33777777777777EEEEEEEEEEEEEEEE68
:101E6000C9CAAA9AAABE99EEEEEEEEEEEEEEEE002A
:101E700000000CABB9ABB9C9D827777777777777FC
:101E8000EEEEEEEEEEEEEEEEEEEE9AECABAEEEEE4B
:101E9000EEEEEEEEEEEEEEEE0000000A90CA944298
:101EA0008838227777772777EEEEEEEEEEEEEEEEDD
:101EB000EEEEEEEEDCDEEEEEEEEEEEEEEEEEEEEE64
:101EC000EE000000000007343282888277227777A4
:101ED000EEEEEEEEEEEEEEEEEEEEEEEEEEEEEEEE22
:101EE000EEEEEEEEEEEEEEEEEEE0000000000008AC
:101EF0004388888882827777EEEEEEEEEEEEEEEEA5
:101F0000EEEEEEEEEEEE7EEEEEEEEEEEEEEEEEEE61
:101F1000EEEEE00000000000073388888388277712
:101F2000EEEEEEEEEEEEEEEEEEEEEEEEEEEEEEEED1
:101F3000EEEEEEEEEEEEEEEEEEEEEE000000000067
:101F40000007888888888807EEEEEEEEEEEEEEEE6B
:101F5000EEEEEEEEEEEEEEEEEEEEEEEEEEEEEEEEA1
:101F6000EEEEEEEE0000000000000788888888880A
:101F7000EEEEEEEEEEEEEEEEEEEEEEEEEEEEEEEE81
:101F8000EEEEEEEEE0EEEEEEEEEEEEEEEE00000049
:101F90000000000708888888EEEEEEEEEEE0EEEE38
:101FA000EEEEEEEEEEEEEEEEEEEEEEEEEEEEEEEE51
:101FB000EEEEEEEEEEEE000000000000007088880D
:101FC000EEEEEEEEEEEEEEEEEEEEEEEEEEEEEEEE31
:101FD000EEEEEEEEEEEEEEEEEEEEEEEEEEEEEE000F
:101FE0000000000000000708EEEEEEEEEEEEEEEE72
:101FF000EEEEEEEEEEEEEEEEEEEEEEEEEEEEEEEE01
:10200000EEEEEEEEEEEEEEEE000000000000000060
:10201000EEEEEEEEEEEEEEEEEEEEEEEEEEEEEEEEE0
:10202000EEEEEEEEEEEEEEEEEEEEEEEEEEEEEEEED0
:10203000EE00000000000000EEEEEEEEEEEEEEEE42
:10204000EEEEEEEEEEEEEEEEEEEEEEEEEEEEEEEEB0
:10205000EEEEEEEEEEEEEEEEEEEEE0000000000054
:10206000EEEEEEEEEEEEEEEEEEEEEEEEEEEEEEEE90
:10207000EEEEEEEEEEEEEEEEEEEEEEEEEEEEEEEE80
:10208000EEEEEEE000000000EEEEEEEEEEEEEEEE36
:10209000EEEEEEEEEEEEEEEEEEEEEEEEEEEEEEEE60
:1020A0002EEEEEEEEEEEEEEEEEEEEEEEEE000000DA
:1020B000EEEEEEEEEEEEEEEEEEEEEEEEEEEEEEEE40
:1020C000EEEEEEEEEEEEEEEEEEEEEEEEEEEEEEEE30
:1020D000EEEEEEEEEEEEE000EEEEEE1EEEEEEEEEEC
:1020E000EEEEEEEEEEEEEEEEEEEEEEEEEEEEEEEE10
:1020F000EEEEEEEEEEEEEEEEEEEEEEEEEEEEEEEE00
:10210000EEEEEEEEEEEEEEEEEEEEEEEEEEEE0EEECF
:10211000EEEEEEEEEEEEEEEEEEEEEEEEEEEEEEEEDF
:10212000EEEEEEEEEEEEEEEEEEEEEEEEEEEEEEEECF
:10213000EEEEEEEEEEEEEEEEEEEEEEEEEEEEEEEEBF
:10214000EEEEEEEEEEEEEEEEEEEEEEEEEEEEEEEEAF
:10215000000000000000000000000000000000007F
:10216000000000000000000000000000000000006F
:102170000000000000000000EEEEEEEEEEEEEEEEEF
:10218000EEEEEEEEEEEEEEEEEEEEEEEEEEEEEEEE6F
:10219000EEEEEEEEEEEEEEEEEEEEEEEEEEEEEEEE5F
:1021A000EEEEEEEEEEEEEEEEEEEEEEEEEEEEEEEE4F
:1021B000EEEEEEEEEEEEEEEEEEEEEEEEEEEEEEEE3F
:1021C000EEEEEEEEEEEEEEEEEEEEEEEEEEEEEEEE2F
:1021D000EEEEEEEEEEEE0EEEEEEEEEEEEEEEEEEEFF
:1021E000EEEEEEEEEEEEEEEEEEEEEEEEEEEEEEEE0F
:1021F000EEEEEEEEEEEEEEEEEEEEEEEEEEE030EECB
:10220000EEEEEEEE00EEEEEEEEEEEEEEEEEEEEEEDC
:10221000EEE0EEEEEEEEEEEEEEEEEEEEEEEEEEEEEC
:10222000EEEEEEEEEEEE0EEEEEEEEEEEEEEEEEEEAE
:10223000EEEEEEEEEEEEEEEEEEEEEEEEEEEEEEEEBE
:10224000EEEEEEEEEEEEEEEEEEEEEEEEEEEEEEEEAE
:10225000EEEEEEEEEEEEEEEEEEEEEE7EEEEEEEEE0E
:10226000EEEEEEEEEEEEEEEE0000000000001234B8
:10227000444343423332500000000000000000009D
:102280006067700000000000080800000000000007
:1022900099999999999522223331333131131A99A9
:1022A0009999999999997776887778999999999937
:1022B0009999999999999999999999999A122333F0
:1022C0002133111111311599999999999999777625
:1022D0008777789999999668899979999999999927
:1022E000999999999B233243344442223331159969
:1022F00099999999999988869877699999999886D9
:1023000099999999999999999999999952311334D7
:102310004CCCCCCCC44311599999999999999986E7
:1023200067669999987779999869999999999995FA
:102330009999999A121113244CCCCCCC4C42315916
:1023400099999999999999866799999998777669B8
:102350006769999999999955999999952311334450
:102360002CCCC4CCCC4431599999999999999777A7
:102370006769999999777999999999999999955DB1
:1023800099999995231132444444CC4C4C44215999
:102390009999999999998776999999998866899936
:1023A00099999999999955D9999999952111322481
:1023B0003111322424422159999999999999777622
:1023C00079999998777679999999999999955D9943
:1023D00099999995211132234223113331113159A1
:1023E0009999999999997896799999977777799907
:1023F000999999999955D99A999999952111322232
:102400002111114211BB135A99999999999966977B
:10241000699999987778999999999999955D99AACF
:1024200099999995211132421EFF44C42BEFF15A1C
:102430009999999999967789999999996879999992
:102440009999999955D99AAA9999999521113244AE
:102450004222C44C4132335A999999999997789963
:102460009999687779999999999999955D99AAAA6D
:10247000999999952111244CCCCCC4444332235AC8
:102480009999999999977699999677777999999948
:1024900099999955D99AAAAA999999952B11224453
:1024A0004444C3333323225A999999999999799934
:1024B00089977777999999999999955D99AAAAA5F4
:1024C000999999AB31113224424444211322335A51
:1024D00099999999878799999997777789999999E6
:1024E000999955D99AAAAA55999999532311333292
:1024F000224244233332335A9999997788699999BA
:10250000966977776999999999955D99AAAAA55A33
:102510009999995232113333324233444313315A29
:102520009999687799999999677987778999999904
:10253000995BD99AAAAA5AA599999952331123332A
:10254000224232444213315999998766999999994F
:1025500096798677899999999A5AD9AAAA55AA55A6
:10256000999999532311223322231244421131594C
:102570009999887699999999677786999999999966
:10258000A5AD9AAAAA55A5559999995344312233D4
:1025900022231333111131599968897699999999A0
:1025A000677769999999999A55D9AAAAA5AA55556B
:1025B00099999951321122233222332442311159EF
:1025C000996777769999667999698699999999A57C
:1025D000AD9AAAAA55A555555555559511113333A0
:1025E000133332442423115999977776999979991D
:1025F0009968999999999A55D9AAAAA55A5555555C
:10260000FFFFF551332311111132222222231B59CE
:102610009878966699999997778779999999A5BDA8
:102620009AAAAA5AA555555AEEEEEEFF122231117A
:1026300011113333133315999687677699999896C4
:1026400078777999999A5AD9AAAAA55A5555555A77
:10265000CCC55FEEE3222311111B11111111BA99A0
:1026600099777776999997879978999999A55D9AA5
:10267000AAAA5AA555555AA5CCCCC4BFEE322311EF
:102680001BBBBBBBBBB1BA99987777786666677797
:10269000999999999A5AD9AAAA55AA555555AA55B8
:1026A000CCC44C23FEE3333111BB11BB113159991A
:1026B000987777778968777699999999A5AD9AAA45
:1026C000AA55A5555555A559CCC424442EEF133110
:1026D00011B1111B123BA9968777777699697776A6
:1026E0009999999A55D9AAAAA5AA5B5555AA559A16
:1026F000CCC422442BEEF3331111311112159997EA
:102700007777777777777777999999A5AD9AAAAA06
:102710005AA5B15A5AA55AA5CCC2424442FFFB332E
:10272000111331B1331B79777777777777777777AD
:1027300099999A55D9AAAAA55A5B115A5A559A55E8
:10274000CC44224442AEE533111331B3311B7777C9
:1027500069877777777777778999955D9AAAAA5A63
:10276000A5B1131B5559A55544442244421FEE51AF
:1027700011111B13315777769967777777777777CA
:102780006999559DAAAAA55A5B111221BAA5555B54
:10279000444223222215EE5511111B13115777794C
:1027A000997777777777789999955D9AAAAA55A5B9
:1027B000BB33332415555551442222222315EEF5FF
:1027C0005B11B13311E577798777777777777899E8
:1027D00099A5DDAAAA55AA5B11324332211BB1117A
:1027E0002222332231B5FEEA5B11B13115FE577654
:1027F00077777777777778669559DAAAAA55A5B16A
:10280000113244333331111B2223323311B5FFEF20
:1028100055B1B111B55FEB787777777777777777C1
:1028200055D9AAAAA5AA5B1132332223311111B5B9
:10283000222244422315FFFFFA5BB111B555FE5722
:1028400077777777777777715DDAAAAD41ABB11398
:1028500032233233331131512324CCC42235FFFFCC
:10286000FF55BBB555555FE5777777777777775520
:1028700099AAAAAC441B1132332213333113B51772
:10288000324CCCCC4422BFFFFF55555555555FFF08
:10289000177777777777855DDAAAADC4231113337D
:1028A0002333331111115177224CCCCC44221FFF1A
:1028B000FFF5555555555FF417777777777755AA14
:1028C000AAAADCC431B13313323333311315A688CD
:1028D000224CCCCC4C2235FFFFF55555555555F4BF
:1028E0004187777777755D55AAACCC3231B132210B
:1028F000333311111B559999224CCCCC44242B5FB6
:10290000FFFFF555555555F4445777777855DD5504
:102910005A4C442331B133233133111315A996771F
:102920002444CCCC444441555FFEF555555555FFE4
:1029300024317777755AAA6DCC4223332BB13333C8
:102940003311111B559997774444CCCC44444255DC
:102950005F55F555555555FF3225777155ADA6CCC8
:10296000C423332315113331331113B518999777D5
:10297000444244C4422423555F5555555555555B33
:10298000332387555ADA54C442333221BB133333CD
:1029900011B13B5877999877244224442322231578
:1029A000555555555555555B13225555ADAA2C42D5
:1029B000233331BB5B1331311B13B51777999999C9
:1029C0002442222222222315FF5FE5555555555BEF
:1029D000333255AA99A2C24233331BB5BB1333110C
:1029E000B13B51766789869942424444222333158C
:1029F0005555F5555555555B11325ADD5AB42422BB
:102A000033311555BB11111B11BB57766777779979
:102A100042444444333331155555F5555555555BAE
:102A20001132AD999A34342233111555BBBBBBBB5F
:102A30005122B876677777992444CC442311111535
:102A40005555F5555555555B113599AAA342422266
:102A5000333311555BBBBBB51244B87867777799B0
:102A6000224CCCC42231111155555555555555ABF5
:102A700011159AAB2C4442322333311BB555555BAB
:102A800012C4B87777777776244CCCCC42222233A5
:102A900033115555555555F1223AAA22C4442232D4
:102AA0002333311111111B113244B87777777777BF
:102AB000244CCCCCCCCC444222233BB5555551B30D
:102AC0002233344CCC422333333333312222333359
:102AD00032215777777777772444CCCCCCCCC44459
:102AE0004222233333333222222CC4CC44233333C7
:102AF0003333333223333333332117777777777791
:102B0000224444CCCCCCCCCCCC44424C444CC44CE1
:102B1000CC444444223333333322233222333333FD
:102B200032357777777677773244444CCCCCCCCC3F
:102B3000CCC44444CC44CCCC44422242333333331F
:102B4000333322244222333111B87777688677777E
:102B5000132222244444CCCCC4C444244222442220
:102B600022222332433333333333322223311111C0
:102B70005587777799977777333222224424444CCC
:102B8000CC44444442222222333133333222233391
:102B9000331113223111332577867777999677771A
:102BA000132332222224444CCCC442222223223337
:102BB00033333113333333331111111111133357AD
:102BC000789977789966777700122222102332223B
:102BD00022132122244444444444444441134444A1
:102BE0005555554555556566655555656555556544
:102BF00031322223102103222223122222222244B4
:102C00004444444441034444444544455555555582
:102C100065555555555555552222331323300122FC
:102C2000222103332222222222224444213124441D
:102C300044444444444555555444555556566555A9
:102C40002222333322231322223103122222222270
:102C500022222223324334444444444444445444CE
:102C600054445555555555561113222222222223DC
:102C700031323332222222222222222322222224F1
:102C80002424444444444444444444445555555500
:102C900030122222222222233332222222222222F4
:102CA000222222222222222222222222444444229E
:102CB00024444444454444551132222222211132F5
:102CC00022222222222222222222222222222222E4
:102CD00022232222222224213444444444444445D1
:102CE00022322222222301222222222222222232C4
:102CF00022222113222222222221132222222223D3
:102D0000324222224444444422111322222113221B
:102D100022222222222223032222300322222223C1
:102D2000322003222322222222222222222444444D
:102D30002230122222222322222222222222223264
:102D40002222310322311220323332220012332266
:102D50002222222222222234221132222222222242
:102D60002222222222223222222223332230032133
:102D70001331333200121121347776432222222379
:102D80002222322222222222222211222313322222
:102D90003132300033300310001110121131313153
:102DA000899A99861132222212222210222222226C
:102DB0002222132223076666113421113111323089
:102DC0000001101312311378AAAAA9BB61112222A3
:102DD00032222310222132223322245788BBBBBB4C
:102DE0009BB88888B888765311136661113787B904
:102DF000AA99999CC7000221223313232220122270
:102E000030778B999999B9B999999999B9999BBB47
:102E1000BCCBBBCC88BBBC9AAA99999CC810122386
:102E2000223333222222222679999AAAA9999BBB7E
:102E30009AAAAAA9BB9AAAA9BCCBB9BBB9BBBC9A8E
:102E4000A99BBBBCCC8102211322222222224789CA
:102E5000AAAADDAAAA999B9B9ADDDAA9BB9AAAAA7B
:102E60009BCBB99BB9BBBC9AA99BBBBCCCC712225C
:102E700012222222224689AAADDDDDDDAA999B9B82
:102E80009ADDDAA9BB9AADAA9BBBBB99BBBBCBAA07
:102E9000AAA9BBCCCCCEFF89322222222479AADD7A
:102EA000DD000DDDAA99999B9ADDAAA9BB9AAAA972
:102EB00099BB99B9BBBCCBADDDAA9BCCCCCCFFF9FF
:102EC0003222222226BADDDD0000D0DDAA999B9BAA
:102ED000AADAAA9BBB9AAAA9BBBB99BBBBBBC9DD9B
:102EE000DAAA9BCCCCBCCFFF2222112248ADDD0058
:102EF000000DDDDAAA999BB99AAAA99BBB99999B67
:102F0000BBBBB9BBBBCCCADDDAA99CCCCBBCCEFF6A
:102F10003332332259ADDD000DDDDDAAA9999BB90D
:102F20009999BBBBBBBBBCBCBBBBBBBCCCCCBDDDEC
:102F3000AAA9BCCCCBBCCCFF1132222269AADDDD10
:102F4000DDDDAAAA9999BBBB8888887711117BBC63
:102F5000CCBBCCCCCCCB9DAAAAA9BCCCCBBCCCFF47
:102F600013222222599AAADAADAAAAA99BBB877773
:102F70001111001000007BBBBCCCCCCCCCCBAA99EF
:102F8000999BBCCCCBCCCCFF2213222227B9AAAA76
:102F9000AAAAA9BBB771100000010011000089990D
:102FA000999ABBBCCCB99A9999BCCCCCCCCCCCFF6F
:102FB0002223122224789999999877762300001079
:102FC000001100130007AAAADDAAA9BBCCBA9AA9CE
:102FD0009BCCCCCCCCCCCCFF222102222224666616
:102FE000771422322233333100310011018AADDDF2
:102FF000DDDAA99BCC9DAAA99BCCCCCCCCCCCEFFB6
:103000002231023322332222213222222112311094
:1030100001310010039AADDDDDDAA99BCC9AA9A994
:10302000BCCCCCCCCCCCCEFF3132322222103222DE
:10303000223133222332300012223330019AADDDA7
:10304000DDAAA9BBCCBAA999BCCCCCCCCCCCCEFF48
:1030500033322222230012222210133222221000A5
:1030600032312223369AAAAAAAAABBCCCCBDD9BB9C
:10307000CCCCCCBBCCCCCEFF22222222223132229D
:103080002310133222222113223322222589999BD5
:10309000BBBBCCCCCCCBAA9BCCCCCBBBCCCCCEEFD3
:1030A000222222132222223313232222222222220C
:1030B000222222222268BCBCCCCCCCCCCCCCCBCC27
:1030C000CCCCCBBBCCCCEEEE22222223122222335C
:1030D0003322223322222222222222222225677C0C
:1030E000CCCBBBB999BCCCCCCCCCCBBBCCCCEEEB59
:1030F00022222221021113222222222322222222F0
:10310000223113222424445CCB99AAAAA9BCCCCC9A
:10311000CCCCCCBCCCCEFEEC122332222213222209
:103120002222222222222222223002244444445CEF
:10313000B9AADDDDAABCCCCCCCCCCCCCCCEFFECCBF
:10314000222103222223122222222222222222248C
:10315000243114444444447B9AADDDDAA9BCCCCC80
:10316000CBBCCCCCCEFFFCC82230012222210222D3
:10317000222222222242444444444444444455C925
:10318000ADDDAAA99BCCCBBCBBBBCCCCEFFF88648C
:1031900012231322223102222222242444444444B2
:1031A00044444444555555C9AAAAA99BBCCBBBBCB1
:1031B000BBBCCCC866664423222222233132322291
:1031C0002224444444444444444555555555558B64
:1031D0009A99BBCCBB99999BCCCCCC7544422231FB
:1031E000222222233332224444444444444444456A
:1031F000555555555555556BBBBCCCB999AAA9BC6D
:10320000CCCC86444442233222211132244444440B
:1032100044444444444455555555555555555556C3
:103220006776BBAAAAAAABBCCC864444222221035F
:1032300022230124444444444444444455555555B0
:103240005555555555555566565689AAAA99BBC820
:1032500076544442222230012224444444444444CB
:103260004444555555544555555555555555556531
:1032700055556B999BBC88655442422222222313E8
:103280002444444444444655555555555554455594
:103290005555555555555565556557BC8776444424
:1032A0004442222332222222444444444444555579
:1032B00055555545555545555555555555556665BD
:1032C0006655556655444444442222210322222255
:1032D00044444444445555555555555555555555F3
:1032E00055555555555555565554555544544444C2
:1032F000422222300122211144444445555555555E
:10330000555555555555555555555554256555558E
:10331000555555544444442222223223132223017A
:103320004444555555545555555555555555555570
:1033300055555554456556655555444444424222B9
:1033400022223222222221134445555555555555E6
:10335000555555555555555556555555555555551C
:103360005555444444222222222132222222222361
:10337000455555555554455555555555555556551D
:1033800055555655555555555444444444222222CA
:103390002233222111322222555555555554455577
:1033A00055555555555555555555555555555544DE
:1033B000444431344222222222103223012222228A
:1033C00055544445555445555555555555555555E0
:1033D0005555555555555444444413222222222311
:1033E0002302222113222222555444555555555566
:1033F000555555555555555555555555555544449F
:103400004444222222222231223222222223322228
:10341000555455555555555555555554256555557E
:1034200055555555544444444444222223322222C3
:103430002222300122210322555555555555555507
:103440005555555445655555555555545444444462
:10345000422222222103222222222313223001226D
:10346000555555555555555556555555555555550B
:1034700055555545444444442222222230012222FB
:1034800022122222222313225555555555555655A1
:103490005555565555555555555454444444422256
:1034A00022222222231322222232222222222223F9
:1034B00055555554256555555555555555554555ED
:1034C00055444444444422222222222222222331EF
:1034D0002212211132222223555555544565555546
:1034E0005555555555554555554444444442222259
:1034F00022222222222223332222230122211132BC
:10350000565555555555555555555555555555546B
:103510004444444422222222222222222111322205
:1035200022222113222301220001000000000001B9
:1035300020000034000003444444444444444441D3
:103540000000002420000000023000000000010004
:1035500000010000000000012000003400000344CE
:10356000444444444444444100000021000000001D
:103570000230000000000100000100000000000116
:103580002000003400000334444444444444444193
:1035900000000024200000000230000000000100B4
:1035A000000100000000000120000034000003348E
:1035B00044444444444444430000002100000000CB
:1035C00002300000000001000001000000000001C6
:1035D0002000003400000344444444444444444232
:1035E0000000002300000000023000000000010085
:1035F000000100000000000120000034000003442E
:10360000444444444444444100000021000000007C
:103610000230000000000100000100000000000175
:1036200020000031000003344444444444444442F4
:103630000000002420000000023000000000010013
:1036400000030000000000032000002100000344EC
:103650004444444444444441000000210055550082
:103660000230000000000100000300000000000321
:1036700020000034000002344444444444444441A3
:103680000000002367888879623000000000010094
:1036900000010000000000012000003400000314BD
:1036A00044444444444444310000002358888888FA
:1036B000AB6C0000000001000001000000009777E3
:1036C000D0000034000003444444444444444433A0
:1036D00000000023DA88888889B500000000010016
:1036E0000003000000788888889A85340000001460
:1036F00044444444444444410000C6230588888827
:1037000089BE0000000002000001000000788888E7
:1037100088887D34CD0000144444444444444441EA
:1037200000DD95210098888889BE00000000010016
:1037300000010000009888888888003DAA000014D5
:10374000444444444444444106A88E242058888874
:10375000A9BE0000000001000003000000E8888806
:103760008888000DA8A7D344444444444444444DAD
:103770007888AE24205888889BBE00000000010095
:103780000001000000E788888885000DA888A5440E
:1037900044444444444444578888A5242058888895
:1037A00089BE0000000001000001000000EBAA88B3
:1037B0008885000D9A8888A756666D4446669A8863
:1037C000888AB521006A888889BD00000000000051
:1037D0000001000000EBB9888885000DE788888823
:1037E000888AAA777AA88888889EF62300698888BC
:1037F00079BC00000000000000010000005BB788F9
:103800008885000169A88888888888888888888A47
:103810009BBE6623006A88A9EBEC00000000000054
:1038200000010000000BB888888500346B78888818
:1038300088888888888888A7B9BEFF24206AA7B5A9
:10384000DE5000000000030000030000000B9BAAF4
:10385000887600346F9A8888888888888888887AEB
:10386000A79BEBD4206A89059B5000000000010053
:103870000003000000059BBB97BE00345B997A8A69
:10388000888888888888888888ABBBD3006A850642
:10389000DED0000000000100000100000006B06062
:1038A000DE9B00215B7A8888888888888888888859
:1038B00088979B53006A88FB6E000000000001009F
:1038C000000100000006BCCDC5AB503459A8888863
:1038D000888888888888888A55EA9BE4206A88BB1B
:1038E000BEC0000000000100000100000000E5D99A
:1038F000DEABF034EB7A88888888A888A88888505E
:1039000000059BE10097A8BBBB5000000000010030
:10391000000100000000DBE56A87EC0DBBBE6559C5
:1039200078A79888A99AA55950D99BE420BBB9BB20
:10393000BEC0000000000100000300000000CE999E
:103940005887B63DB99C0579DA9B9888AB9760E7B4
:103950005D9BBBE3067BBBBBBE000000000001001B
:103960000001000000000CE9D9A9B60DBBA9C6955D
:10397000099B9888AB7A6CCDC5ABBEF425AB6EBB0A
:103980006F0000000000010000010000000000E9DD
:1039900055B7BE01EBA8900005BB9A88AB98AEDD89
:1039A000FA9BBFD4D97B006E010000000000030029
:1039B00000010000000000EBB6B7AB146BB889E95A
:1039C0007977BA88B79A88888BBBFFD467EBF0F613
:1039D000010000000000000000010000000000EBFA
:1039E000BEBB892106B788887999BA88BBBB78881D
:1039F0007BBE6624FBFEB6EC010000000000030065
:103A000000010000000000C5BBBBA9F4005B7AAA5E
:103A1000BBBBB788BBB9ABB999BEF024EBFBBB60AD
:103A20000100000000000300000100000000000091
:103A30006B6E99F1006FBB789BBB9B88B9B9ABBA31
:103A400079BB6024EBBBBB0001000000000000005C
:103A5000000300000000000016E5EEF6006FEBBA70
:103A60009EBBA98898EEBBBBBBB5002FBBBBED00CE
:103A70000100000000000000000100000000000044
:103A80001CEEFFFE00C6EBBBFFFE9BA8B9FFFBBB15
:103A9000BBB500CFBBBBD00001000000000002009E
:103AA0000003000000000000106EFFFE000DEBBEE2
:103AB000FFEBBE5EBBBFFFEBEBB600DBBBB60000AF
:103AC00001000000000001000001000000000000F3
:103AD00010C5BBBBD0005BBF6FBBBBF6EBBBBFBBB6
:103AE000BBE000EBBBFC0000010000000000010097
:103AF000000100000000000030005BBB50000FBB65
:103B0000FEBBB5F65FBBBEBBBB6006BBBE00000024
:103B100001000000000001000001000000000000A2
:103B200010000EBB500006BBEB555560D69EFEBB89
:103B3000BF0006EE50000000010000000000010080
:103B40000001000000000000100006BB50000D6BDB
:103B5000BBBA889E7A88BBBBF1000024200000001D
:103B60000100000000000100000300000000000050
:103B70001000006F6000044BBEBBBB7799BBBBBF9E
:103B800041000024200000000100000000000100AE
:103B90000003000000000000100000340000044F8B
:103BA000BBBBBBB7A9BBBBF44100002300000000B6
:103BB0000100000000000100000100000000000002
:103BC0003000000100000144FEBBBBBBBBBBE544B1
:103BD000430000230000000001000000000001007D
:103BE0000001000000000000100000340000034449
:103BF0004D66EEEEEEE6D4444000002300000000E7
:103C000001000000000001000003000000000000AF
:103C100010000034000003444444444444444444F9
:103C2000400000230000000001000000000001002F
:103C300000010000000000001000003400000444F7
:103C40004444444444444444110000230000000020
:103C50000100000000000100000100000000000061
:103C600010000034000004444444444444444444A8
:103C700041000021000000000100000000000100E0
:103C800000010000000000001000003400000444A7
:103C900044444444444444444000002100000000A3
:103CA0000100000000000100000100000000000011
:103CB0001000003400000314444444444444444489
:103CC000400000230000000001000000000001008F
:103CD0000003000000000000100000340000034456
:103CE0004444444444444444400000210000000053
:103CF00001000000000001000003000000000000BF
:103D0000100000210000034444444444444444441B
:103D10004000002100000000010000000000010040
:103D20000001000000000000100000010000044439
:103D300044444444444444444100002300000000FF
:103D40000100000000000100000100000000000070
:103D500030000001000004444444444444444444CA
:103D600043000023000000000100000000000200EA
:103D70000003000000000000100000010000041417
:103D800044444444444444444100002100000000B1
:103D9000010000000000030000010000000000001E
:103DA0001000003400000434444444444444444477
:103DB000410000210000000001000000000001009F
:103DC0000001000000000000100000340000043476
:103DD000444444444444444441000023000000005F
:103DE00001000000000001000001000000000000D0
:103DF000100000010000034444444444444444444B
:103E0000410000242000000001000000000001002B
:103E10000001000000000000100000310000034419
:103E2000444444444444444441000023000000000E
:103E3000010000000000010000010000000000007F
:103E400010000034000003444444444444444444C7
:103E500043000023000000000100000000000100FA
:103E600000010000000000001000003400000014F9
:103E700044444444444444443000002420000000AE
:103E80000100000000000100000000000000000030
:103E900000000001222233333333333333333333DF
:103EA00033333333332311000000000000000000DF
:103EB0000000000000000000000000012223333257
:103EC0003233233333333333333333233323100049
:103ED00000000000000000000000000000000000E2
:103EE000000000022223333333333333333333338D
:103EF0003333333333221100000000000000000090
:103F000000000000000000000000000322333333F3
:103F100033323233333333333333323222222100DC
:103F20000000000000000000000000000000000091
:103F3000000000033233333333332323333333333B
:103F40003333222222223100000000000000000052
:103F50000000000000000000000000133333333283
:103F600032222222222233333333222222222300FE
:103F700000000000000000000000000000112223EB
:103F8000232223333332321444514445252333331F
:103F900033333333333333100000000000000000AC
:103FA00000022222222222222221155122333333DF
:103FB00022221211111111111111121222112310AA
:103FC000000000000000000022233223333333338B
:103FD000333322246621223333255555555121236D
:103FE000333332333333332000000000000000004D
:103FF0002333333333333333333333332166455150
:10400000122333322222222322223232222323314C
:104010000000000000000000333333333333333308
:1040200033333333333332255555111112233333A0
:104030003333323232333332222111112222200023
:104040002333333333333333333333333333333350
:104050003333332221111121222222222222121152
:1040600011122233333222202333333333333333A9
:104070003333333333333333333333333333333310
:104080003333333333333333333333333333332013
:104090000233333333333333323222223333333345
:1040A00033333333333333333333333333333333E0
:1040B0003333333333333320000233333333333347
:1040C0003333332332222222222332333333333326
:1040D00033333333333333333333333333333330B3
:1040E0000000023333333333333333333332223349
:1040F00023321111111111112222232333333333AF
:10410000333333333333333000000002333333334C
:10411000333333333222132333111111111122158A
:10412000111211111212233333333333333333006B
:10413000000000002333333333333332224133332F
:104140003211111551111121511351111111222246
:1041500032333333332230000000000000023333A7
:104160003333332144233333355445511111111264
:104170005212411111115513333333233300000010
:1041800000000000000001123333211233333233B8
:1041900024451233214452121213412155523153F6
:1041A0003332223300000000000000000000000055
:1041B0000322233333331233145233333332515205
:1041C00023531522333333233223332000000000DE
:1041D000000000000000000001333333333123249A
:1041E00054111667233333223323333333211223FD
:1041F000333200000000000000000000000000005A
:10420000001333223233335446716623333323335E
:1042100031123333333555232000000000000000F5
:104220000000000000000000000332333412334469
:104230007411433313642533264323133631753108
:10424000000000000000000000000000000000006E
:1042500000133333324333444567115755533242C9
:1042600015535331115324300000000000000000AA
:1042700000000000000000000033332423533354B7
:104280004475176886772145256122211154441011
:10429000000000000000000000000000000000001E
:1042A00001333221232233151517847666115452B7
:1042B00024642121576674100000000000000000F3
:1042C00000000000000000000133321221523315BB
:1042D0005157688671147712146725566544771014
:1042E00000000000000000000000000000000000CE
:1042F00001033213335233255151766675444144DC
:104300001577255666666710000000000000000063
:10431000000000000000000000003312237233256B
:1043200055414766644444474546245764466740C0
:10433000000000000000000000000000000000007D
:104340000002335723723322555444766744446441
:10435000554624754466640000000000000000001B
:1043600000000000000000000000333774613332A9
:104370001545454767444671151421774466740016
:10438000000000000000000000000000000000002D
:104390000000333274623233255444476744475532
:1043A00011141347446641000000000000000000A3
:1043B000000000000000000000000322255333230A
:1043C000355545476455544651644255477441003C
:1043D00000000000000000000000000000000000DD
:1043E000000013332233322321544547745552447D
:1043F000699442355544520000000000000000005E
:1044000000000000000000000000033333333233AB
:1044100022144577445413133311233144441200BA
:10442000000000000000000000000000000000008C
:104430000000013321233323312441474114123733
:104440003212331557451100000000000000000033
:1044500000000000000000000000003321133223A0
:10446000322445775245551177523155514120003C
:10447000000000000000000000000000000000003C
:10448000000000132112332332214545214223230A
:1044900021513232275120000000000000000000AE
:1044A0000000000000000000000000033111333361
:1044B00032221451112122332353332212210000BE
:1044C00000000000000000000000000000000000EC
:1044D00000000001341133233231211121157712EC
:1044E000322255252152000000000000000000008B
:1044F0000000000000000000000000002411333321
:104500003332132211441233333333336732000012
:10451000000000000000000000000000000000009B
:1045200000000001271533333232322214221446A0
:1045300064423333773200000000000000000000C6
:1045400000000000000000000000000027452333A9
:10455000233332211477554444551222331000007E
:10456000000000000000000000000000000000004B
:10457000000000012645233332332222247666715F
:1045800022222276513000000000000000000000CE
:104590000000000000000000000000023675133328
:1045A00033333223244466671333277652300000B6
:1045B00000000000000000000000000000000000FB
:1045C0000000000326751333333223323315447150
:1045D00022135767232000000000000000000000A5
:1045E00000000000000000000000001316745233A9
:1045F000333332222233155121211572221000004B
:1046000000000000000000000000000000000000AA
:104610000000333166775433323333321232212182
:104620002111232213000000000000000000000000
:10463000000000000000000000021117667545121E
:1046400032333232131312121121221313000000DD
:10465000000000000000000000000000000000005A
:104660000112681767717225212332323113122229
:1046700012212313230000000000000000000000AE
:1046800000000000000000123326886277147124B5
:1046900042332333313123122212323231000000EF
:1046A00000000000000000000000000000112223B4
:1046B0001228668317747552442331233331331320
:1046C0002313123230000000000000000000000040
:1046D0000000000332215551126866863754654741
:1046E00041412211233333333332132300000000BE
:1046F00000000000000000000323223555555555E9
:1047000012866668131764547411441321223333DC
:1047100032323231000000000000000000000000D2
:104720002355555555555151126676666235645577
:104730004445114412442255233333100000000035
:104740000000000000000000555551111511111115
:104750001376766666331477445544154451111226
:104760002723333310000000000000000000000089
:1047700051111111111121222327711444133544B1
:104780004444554411444427172333332210000076
:10479000000000000000000012112222222222222A
:1047A000223771111144331445444444444447773B
:1047B00064333233152221000000000000000000A5
:1047C000122222222222222222317111111143327D
:1047D000544454454444476662332233555172224F
:1047E00000000000000000000000000000000000C9
:1047F00000000000000000000000000000000000B9
:1048000000000000000000000000000000000000A8
:104810000000000000000000000000000000000098
:104820000000000000000000000000000000000088
:104830000000000000000000000000000000000078
:104840000000000000000000000000000000000068
:104850000000000000000000000000000000000058
:104860000000000000000000000000000000000048
:104870000000000000000000000000000000000038
:104880000000000000000000000000000000000028
:10489000000111111111111222222220000000002A
:1048A0000000000000000000000000000000000008
:1048B0000000000000000000001111111111111181
:1048C0001111111100000000000000001111111160
:1048D00011000000000000000000000000000000C7
:1048E00000112334555222666666661100000000EE
:1048F000000000011111111111111111120000001D
:104900000000000000000000001178888888888876
:10491000883846110000000000000001116666663C
:1049200061111111110000000000000000000000E2
:1049300000117888888888888888361100000000EF
:1049400000000001118888339933345511000000AC
:104950000000000000000000001178888888888826
:104960008888361100000000000000011188888846
:104970008888888511000000000000000000000009
:10498000001178888888888888883611000000009F
:10499000000000011188888888888885110000003F
:1049A00000000000000000000011788888888888D6
:1049B00088883611000000000AAAAAA111888888F8
:1049C00088888885110BCC70000000000000000072
:1049D00000117888888888888700000AAAAAAAAA6D
:1049E000AAAAAA01118888888888888517CBBBCB9A
:1049F000000000000000000000117838838888392A
:104A0000D9AAAAAAAAAAAAAAAAAAAA01118888887F
:104A1000888888851BB7007C00000000000000002B
:104A200000117888888887EFDAAAAAAAAAAAAAAA6F
:104A3000AAAAAA011184883888838845EB70000EE1
:104A40000000000000000000001114843859DFFD50
:104A5000AAAAAAAAAAAAAAAAAAAAA00111484384F1
:104A600033483485BB000000000000000000000057
:104A70000011138380EFFFDAAAAAAAAAAAAAAAAAF7
:104A8000AAAAA0011138388488488385BC00000098
:104A90000000000000000000001178480DFFFDAA92
:104AA000AAAAAAAAAAAAAAAAAAAA90011184834871
:104AB00033843845BC000000000000000000000006
:104AC000001178480AFFDAAAAAAAAAAAAAAAAAAA38
:104AD000AAAA00011184883888838845BC00000098
:104AE0000000000000000000001174430AADAAAAF3
:104AF000AAAAAAAAAAAAAAAAAAAA0BB71133443395
:104B000044344435BC00000B0000000000000000ED
:104B100000111485AAAAAAAAAAAAAAAAAAAAAAAAF3
:104B2000AAAAABCBB144444444444445BC7007BB3F
:104B3000000000000000000000117339AAAAAAAA10
:104B4000AAAAAAAAAAAAAAAAAAAA000ECCE333438E
:104B500044333335BCCCCBBE000000000000000065
:104B600000111997AAAAAAAAAAAAAAAAAAAAAAAA8C
:104B7000AAAA00017CC5995561111112BB77770073
:104B8000000000000000000000111112AAAAAAAA49
:104B9000AAAAAAAAAAAAAAAAAAAA000110CC711112
:104BA00011111112BB000000000000000000000005
:104BB00000011110AAAAAAAAAAAAAAAAAAAAAAAADB
:104BC000AAAA0000117CC11111000002BB00000064
:104BD000000000000000000000000009AAAAAAAA24
:104BE000AAAAAAAAAAAAAAAAAAE90000000BCC709B
:104BF00000000002BB000000000000055EEE555002
:104C000000000009AAAAAAAAAAAE9ADD9AEEDDEDD2
:104C1000DEEE0000007BBCC700000002BB0000000D
:104C2000000004EEEEEEEEEE47000009AAAD9EE9AC
:104C3000DEDAEED9EE9EEEEEEEEEA00000BB50CC3A
:104C400000000002BB0000000027EEEEEEEDDDEEFE
:104C5000EEE55007DDEDDEEEEEEEEEEDEEDEEDDD47
:104C6000DDDD7BBCCBBB117CC7111112BB11111157
:104C70000207EEEEEEEEEEFEEFEEE510EEEEEEEEFD
:104C8000EFDEDFEEFFEEFDFFFFFF77BBBE21111071
:104C9000CC111112BB1111111050EEEEEEEDEFFD23
:104CA000EEDEEE5EEDDDDDDDDDFFFDFFFFFFFFFF94
:104CB000FFFFD622221166667CC76662BB66666607
:104CC00000EEEEEEEEEEEFFEEFFEEEEEFDEFFFFF9E
:104CD000FFFFFFFFFFFFFFFFFFFFF11611616116EE
:104CE00010CC1612BB61616100EEEEEEEEEEEEFD51
:104CF000DFEDFEEEEFFFFFFFFFFFFFFFFFFFFFFF18
:104D0000FFFFFD1611616116117CC717E561616136
:104D10000005EEEEEEEEEEDFFEEEFEEEEDFFFFFF47
:104D2000FFFFFFFFFFFFFFFFFFFFFF06116161169F
:104D30001167CCCCB76161610077EEE7EEEEEEEF84
:104D4000FFEFFFFEEEFFFFFFFFFFFFFFFFFFFFFF95
:104D5000FFFFFFD61161611611610BBBBB216161C1
:104D600007E5EEE7EEEEDEEEFEEFFDEEEEEFFFFF27
:104D7000FFFFFFFFFFFFFFFFFFFFFFF6116161165F
:104D8000116117BBCBB1616105EEEEEEEEEEEFEE19
:104D9000EEEEEEEEEEEFFFFFFFFFFFFFFFFFFFFF88
:104DA000FFFFFFF2116161161161160BDBCB116180
:104DB00007EEEEEEEEEEEEEEEDFEEEEFFEEEFFFFB8
:104DC000FFFFFFFFFFFFFFFFFFFFFFFA116161CC55
:104DD000CCD66207DDBCB161000EEE0EEEEEEEEE5B
:104DE000EEFEEEEEEEEEFFFFFFFFFFFFFFFFFFCC5C
:104DF000CCFFFFFF11616CA917777C72ADEECB1170
:104E0000005EE007EEEEEEEDEEEEEEEEEEEEEFFF24
:104E1000FFFFFFFFFFFFFFDFFFCCCCFF01616DD77E
:104E20007BBCCCCB25EEECB105EEEE0EEEEEEEEE5D
:104E3000EEEEEEEEEEEEEFFFFFFFFFFFFFFFCCAF7B
:104E4000FFFCCBCF01616FA9112CCCFC70EEEECB37
:104E5000000EEEEEEEEEEEEEEEEEEEEEEEEEEFFF2E
:104E6000FFFFFFFFFFFFCFDFFFFCCFCF71616FA917
:104E7000112CCCECE765EEEC000007EEEECCCCDEBE
:104E8000EEEEEEEEEEEEEEFFFFFFFFFFFFFFCCFFDC
:104E9000FFFCCFCFD1616FA9112CCCECE561EEEE18
:104EA000000060EEECDEEBBBBCEEEEEEEEEEEEFFF5
:104EB000FFFFFFFFFFFFCCCCCCCCCCCFD1616CFF90
:104EC000FFFCCCECE56165EE000011EECF3EEEECB0
:104ED000CCEE700EEEEEEDFFFFFFFFFFFFFFCFDD2C
:104EE000DDDFCFBF71616FCCCCCCCCECE56161EE86
:104EF0000077005FFF3EEEECCCEE0007E00EEDFF2A
:104F0000FFFFFFFFFFFFCF88888FCFCEE1616F8863
:104F1000888CCCECE557575E07EEE00FBF3EEEEC19
:104F2000CCEE00E700200DFFFEFFFEDFEEFFFF8866
:104F3000888FCFBE71616F88888CCCFD4444444417
:104F400010EEEE0FBF3EE00CCCE705EE06620FFE62
:104F5000EFDEDFEEEEEEFF88888FCFB444444F885B
:104F6000888CCC4444444444620EE70FBF37700C35
:104F7000CC2100770660EEEEEDEEED4444555D8801
:104F8000888FCFB444444F89999FFC44444444449F
:104F90000000000FBF37777CCC6660775209A444CD
:104FA0004444444444444D85297DFFB4444444D49E
:104FB00048FCCD44444444440026610FDCFFFFFC20
:104FC000CC5555444444444444444444444444D467
:104FD00043EEBE444444444444444444444444446E
:104FE0000212044EFFCCCCCCCC4444444444444450
:104FF0004444444444444444444444444444444471
:105000004444444400000000444444444F88888C95
:10501000CC444444444444444444444444444444C8
:10502000444444445555555500000000000000001C
:10503000444444444F32222FFC44444444444444B6
:105040004444444444444440000000000000000044
:1050500000000001116666664444444444E433DCC5
:10506000BE44444444444455555555700000000026
:105070000000000000222226666666666666666696
:105080004444444444444444444444447000000080
:10509000000000000000021116666666666666661D
:1050A0006666661116100000444444444444444477
:1050B0004444444445770000000001666666666625
:1050C000666666666622221111200000020000005A
:1050D0007444444444444444444444444444406642
:1050E00066666666666666111002000000200000B3
:1050F0000020000002000000105444444444444492
:105100004444444444444447552261112002000071
:10511000000200000020000000200000020000004B
:105120001112744444444444444444444444444474
:105130004455200000020000000200000020000092
:10514000002000000200000000012222222222236F
:10515000333333333333333333333333333333331F
:105160003333333345665473333333333385669483
:1051700000012222222222233333333333333333C9
:105180003333333333333333333333374566517348
:1051900033333333338966690001222222222223EA
:1051A00033333333333333333333333333333333CF
:1051B0003333333375665133333333333374966952
:1051C0000001222222222223333333333333333379
:1051D00033333333333333333333377745665433F1
:1051E00033333333333796690001222222222223BC
:1051F000333333333333333333333333333333337F
:1052000033333499955954733333333333375669C1
:105210000001222222222223333333333333333328
:1052200033333333333333333774489844489844F3
:105230004733333333375669000122222222222397
:10524000333333333333333333333333333333332E
:1052500037855A973337BA558733333333375669DF
:1052600000012222222222233333333333333333D8
:10527000333333333333333378BCD177333371DC67
:10528000B873333333375669000122222222222396
:10529000333333333333333333333333333333779A
:1052A00015CD04733333370DC51733333337566990
:1052B0000001222222222223333333333333333388
:1052C00033333333333333785CD073333333337026
:1052D000DCA97333333756690001222222222223AC
:1052E0003333333333333333333333333333337849
:1052F000ADD1733333333370DDC9733333379669CC
:105300000001222222222223333333333333333337
:105310003333333333333378CEE073333333337152
:10532000EEC9773333379669000122299942222347
:105330003333333333333333333333333333349AD5
:10534000CEE0733333333370EEDC94333333719602
:1053500000014229AC8422233333333333333744BF
:10536000733333333333345CDEED17333333771D2C
:10537000EEED51333333345600012229CDC9422397
:105380007333333773737455873333333333345E46
:10539000EEEED177373371DEEEED513333333456E1
:1053A000000142248ADDB9888888888888888BDA59
:1053B000873333333333345DEEEEE001111110EEF9
:1053C000EEED513333333456000142248ADD5AAABC
:1053D000AA55AA5AAAB8880A873333333333345DBF
:1053E000EE0000000000011EEEDD51333333348641
:1053F00000014249B0A5CDEEEECADDCEED177778BB
:10540000873333333333345ACE17777777737770E4
:10541000EEDC51333333377800014279CECAD114F0
:10542000418AEDABCB844449873333333333345A29
:10543000CD8444444444441BDEDC513333333334A1
:1054400000014249CECC0177778AED599999999913
:10545000473333333333345ACEC5BBB55555BBB55B
:10546000CEDC51333333333700009995ACA5CBBB39
:10547000BB9AED9477777777733333333333345A7A
:10548000CECBFFFD555BFFFDCEDC513333333333E1
:1054900000005AB55A55AAAAAACCDC973333333345
:1054A000333333333333345ACECBFFFB555BFFFBFF
:1054B000CEDC51333333333300005B8555555555BE
:1054C00055DD559733333333333333333333345A32
:1054D000CEC5555555555555CEDC51733333333301
:1054E00000005B895555555555AB477733333333FA
:1054F000333333333333345ACCDDDDDA555ADDDD23
:10550000DCCCAB873333333300009B89555559BB13
:10551000BBB8473733333333333333333337715ACD
:10552000CCDDEEEA555ADEEEDCCCCA5733333333EA
:1055300000B5888555555811111154333333333321
:105540003333333333379ACCCCCCCDEA555ADDCC18
:10555000CCCCCA573333333300C58BBBB8888111E9
:1055600011115473333333333333333333379ACCEA
:10557000CCCCCDEA555AEDCCCCCCCA5733333333EF
:1055800000B98B9811111111111194733333333306
:105590003333333333379ACCCCCCCDEA555AEDCCB8
:1055A000CCCCCA5733333333DAB81111111111117E
:1055B00019987733333333333333333333379ACC28
:1055C000CCCCCDDA555AEDCCCCCCCA5733333333AF
:1055D000D581111111111111844433333333333315
:1055E0003333333333379ACCCCCCDDDA555AEDCC68
:1055F000CCCCCA5733333333D51111111111118962
:1056000087733333333333333333333333379ACCD2
:10561000CCCCED55555ADDCCCCCCCA5733333333D3
:10562000B111111111111181187333333333333325
:1056300033333333333795ACCCCCED55555AEDCCB1
:10564000CCCCA55733333333B11111111111118162
:105650001543333333333333333333333337888A78
:10566000CAACED55555ADDCACAAA888733333333DD
:1056700081111111111188811543333333333333C1
:10568000333333333337777855ACDD55555ADDC571
:1056900055597373333333331111111111111881AB
:1056A0008543333333333333333377444444477898
:1056B000555ACA555555CCA55559737333333333A1
:1056C00011111111111111888543333333333333E1
:1056D0003333715555555178555555555555555583
:1056E000555973333337337311111111111111815E
:1056F000154333333333333333378DEEDCCCAB9850
:10570000B5555555555555559B88947337499997B7
:105710001111111111111181854333333333333397
:105720003371CDDDDAAAAAB88955BB9999999959EF
:10573000B8889844448AAAC181111111111188882E
:105740008543333333333373774ADDC555555B8136
:105750001895888888888B5888888B5555ACCDEAF1
:105760008811111111188B99847333333748888845
:1057700088DDCC55ABBB111111119B8111889BB8F1
:10578000811118B888BAACDD8811111111888B9875
:10579000173333777785555555DDCA55B8881111BC
:1057A00011119B8111185B888111118888B99ACDDC
:1057B00055B88888889558777333345555ACACC53F
:1057C00055DD5B888811111111118B511111581879
:1057D0008111111118888B5DDDBBB9BBBB844423DB
:1057E000333748ACDDDDCCC555DD5B888111111147
:1057F00011118B588811B8111111111111888B5D7D
:10580000EEC55AA55542222333379ACDEEEECCC5CC
:1058100055DD5B888111111111118B5555118111C5
:105820001111111111188B5DDE00000ED5422223DB
:10583000374BDED1771DCCA555CC5B88811111117A
:1058400011111188881181111111111111188B5D1D
:10585000CEE0000ED5422223748CEED7371ECCA5A5
:1058600055AA59B88111111111111188881181118E
:10587000111111111188BB5DCEEEEEECA54222276D
:1058800045DEEE07771DCCC555AA55555555888878
:105890008111118888885811188855555555555DBE
:1058A000DEEECCCA554222248ADEEEE0110ECCC5D3
:1058B0005ACA5AA5558111111888BB9998B95BB875
:1058C0001111185555AAAA5CCEEDCCCAA542227971
:1058D000ACEEEEEEEEEECCC5ACAA5ACA5581111173
:1058E00018889A559BB555988111185AAAACAA5A8E
:1058F000ACCCEEEDD5422249CEEEEEEEEECCCCCCE9
:10590000CCA5AACCCCA55555B111105555555B1158
:1059100015555ACDEEDC555ADDDDEEEDC542228B34
:10592000CEEEEEEDDDCCCCCCCCA5AAACCDDDDCAAA8
:10593000B8888B5555555B88BAAACDDDDCCA555A57
:10594000EEEEEEECA542245CDEEEEEECCCCCCCCC64
:10595000CCA5555ACEEEEDCCA555555555555555BA
:105960005CCCEDDCA555555ADEEEEEECA542245C90
:10597000CCCCCCCCCCDEEEECA55555555ACCCDEEEE
:10598000ED177777777777771DEECAA55555555A76
:10599000CEEEEEEDC58448AACCCCCCDCDCDDDDDC83
:1059A000A555A55555AAACDEED17777777777774AF
:1059B0001DDDAA555AAAAAAACEEEEEEED5555ACCAE
:1059C000CCCCDEEEEEDCCA555A55CAA555555ACC9C
:1059D000CCAABBBBBBBBBBBAACA555555CCCCCC53C
:1059E000CEEEEEEED5AAAACDDDDDCCCCCAAA555AB4
:1059F0009895CCCAAAACDDDDED17744477477444A2
:105A00001DDEDCAAACCCCCA5CEEEEEEED5ACCCCE79
:105A1000EEDDCCA5555555598495CCCCCCCCEEEECD
:105A2000EE173333333333371EEEEDCCCCCCCCA56D
:105A3000DEEEEEEED5AACCCCCCA5555555555598F5
:105A400085ACCCCCCEEEEEEEEEE173333333337176
:105A5000DEEEEEEEECCCCA5ADEEEEEEEDAAAAAAA42
:105A6000AA555555555988889AACCCCDDEEEEEEE48
:105A7000EEEE173333333710EEEEEEEEEDCCCA58C0
:105A8000CEEEEEEEDCA555555555555555A9646934
:105A9000ACCCCCCDEEEEEEEEEEEED177777771DEDC
:105AA000EEEEEEEEEEDCCA58000122222222222384
:105AB00033333333333333333333333333333333B6
:105AC000333333334566547333333333338566941A
:105AD0000001222222222223333333333333333360
